:03000000020D8767
:0C0D8700787FE4F6D8FD758168020DCE7F
:10169800C4A3C4E2B5E7CAD300B5B1C7B0C6B5B5EF
:1016A800C000D1A1D4F1C6B5B5C0003A00202020B1
:0116B8000031
:10142C00013000C100013300C10202312D2D012D0C
:06143C0000C101012C01BA
:0E17B30000007F027E327DCEDDFEDEFCDFFA1E
:0117C1002205
:10173E00538EBF53890F758BE0758DB1C28FD28ECC
:05174E00D2ABD2AF2276
:081880007F0C7EA9DEFEDFFCF7
:01188800223D
:10100900C2C4121880D2C4D295C2941210D012163A
:10101900F612173E1218B77BFF7A167998E4FDFF8E
:101029001209C87BFF7A1679A1E4FD7F011209C86C
:101039007BFF7A1679AAE4FD7F021209C87BFF7A41
:101049001679B37D407F01120E137BFF7A1679B3AF
:101059007D40E4FF120E137BFF7A1679B37D407F42
:0410690002020E135E
:1015E000E559B4430EF52E855A2F7F027859E4F65B
:1015F00008DFFCE55AB4430EF52E85592F7F02789B
:0616000059E4F608DFFCCE
:0116060022C1
:101226008F22E54E6043753301E52DD394014016B8
:10123600E4F52D75312D75322D7BFF7A1679B57D46
:10124600487F02120E13E522249CFF7431252DF8E7
:10125600A607E52D240875F009A4FD7431252DF89F
:0A126600E6FB7F02120F91052D2216
:10113100E4FFE531642D600FE532642D6009E5318E
:1011410075F00AA42532FFE531642D6007E532B45C
:101151002D02AF31EFD3946340027F63854E4B8FF5
:101161004C8F461213F47B007A0079477D071216E3
:10117100751200037BFF7A1679B57D487F02120E46
:0A1181001375312D75322DE4F52DA4
:01118B002241
:100AE900E4F521121009E52E64436003020B9BF51E
:100AF9002EE52F249FB40C005069900B1175F0035B
:100B0900A4C58325F0C58373020B35020B3A020B8A
:100B19003F020B44020B49020B4D020B51020B55CC
:100B2900020B59020B5D020B61020B681212FB806A
:100B39005E12133D80591211DB8054121270804FDE
:100B49007F6580167F6680127F67800E7F68800AC6
:100B59007F6980067F6A80027F6B1212268030D2FD
:100B690002802CE52FD3946D4025E52F2493FBE4D7
:100B790034FFFA7C007D0AAF03FE1208A58F317C91
:100B8900007D0AAF03AE021208A58D32121131E4BD
:100B9900F52F300205C202121131E533D3943240E8
:100BA90018E4F533F52D75312D75322D7BFF7A1645
:100BB90079B57D487F02120E13AB21E4FD7F031244
:100BC9000F91E530B40112E4F5300521121710E553
:100BD90021D394094003E4F521300005C200121520
:100BE900E0E52CC394045003020AEF200103020A32
:0C0BF900EF120003E4F52CC201020AEF29
:03001B000213BC11
:0613BC00C0E0C0F0C0D04B
:1013C200052B300109E52CC394045002052CE52BB2
:1013D20075F00584E5F07008D200E533600205334C
:0B13E200E52BB44606752B00753001AA
:0713ED00D0D0D0F0D0E032B7
:0A144200015800015700C104C10366
:1016F600E5A2543FF5A275985075D7E675D6FF75E5
:0A1706008E14438E01D2ACD2AF2244
:0300230002165270
:07165200C0E0C0D075D00814
:1016590030980DC298A203E4332459F8A699B2032D
:07166900309904C299C2058B
:05167000D0D0D0E032F3
:0617C20014F912085FFF9C
:0917C8002005FDEFD205F5992280
:1016B9008B638A648965AB63AA64A96512085F6054
:0F16C9000D0565E565700205641217C280E82201
:081889007F017EECDEFEDFFCB6
:011891002234
:061675008B228A23892468
:10167B00E4FCECC39D5015AB220524E524AA237092
:0C168B000205231217C21218890C80E619
:011697002230
:10002600B5B1C7B0C6B5B5C0D1A1D4F1C4A3C4E2B9
:10003600B5E7CAD3B1F9CFE4BFD5B5F7D2A3BFD8D8
:10004600A1E600004042445840407F40405048C628
:10005600000000004044444444444444444444FFB3
:100066000000000808E8292E28E80808C80C0BE854
:100076000808000000FF0949897F00000F40807FC3
:10008600000000407C407F484840F2121AD6121207
:10009600F20200908E404F201E804F20180710203D
:1000A6004F8000404042CC0008E9AAB8A8A8AAE9B7
:1000B6000800000040201F20405F4A4A4A4A4A5F23
:1000C600404000404042CC00504EC8487FC8484897
:1000D6004000000040201F20504C4340404F5050ED
:1000E6005C40001010FF100082864A52A2524A86D7
:1000F60080800042827F010010121212FF1212123B
:100106001000001010D0FF9014E4AFA4A4A4AFE434
:10011600040000040300FF00894B2A1A0E1A2A4B1A
:10012600888000101010FF9000F80002041800FFED
:100136000000000242817F00003F108840300C0B17
:1001460030C0000000F888888888FF88888888F88A
:1001560000000000001F080808087F888888889F1C
:1001660080F000080889EE980000FE0202F2020202
:10017600FE0000020100FF008340231806017E8076
:1001860083E00000020CC0002020E000FF70A010F9
:1001960008000002027F0010080641807F00010669
:1001A60008100020908C87EC948414C847444C5463
:1001B600C4040040201806FF041800FF9292929291
:1001C600FF0000100C4424140405060404142444FF
:1001D600140C00004040414141417F4141414140B2
:1001E6004000004042CC0000FE829292FE92928233
:1001F600FE000000003F10887F001E1212125E8073
:100206007F0000404042CC00004A32222AF12131D0
:100216002D00000080403F408081BDA1A1BFA1A16B
:10022600BD8100101010FF9020984828090E28481C
:10023600A818000242817F0040404242427E42426C
:10024600424000060909E6F80C0402020202020412
:100256001E0000000000071F3020404040404020A4
:100266001000000000000000000000000000000078
:10027600000000000000000000000000F800000080
:1002860000000000333000000000100C06100C06C1
:1002960000000000000000000040C07840C0784028
:1002A60000043F04043F040400007088FC0830008A
:1002B60000001820FF211E0000F008F000E01800E2
:1002C6000000211C031E211E0000F008887000009B
:1002D600001E2123241927211010160E00000000ED
:1002E600000000000000000000000000E01804020A
:1002F60000000000071820400000020418E000007B
:10030600000040201807000000404080F080404078
:10031600000202010F01020200000000F0000000CE
:10032600000101011F0101010000000000000000A2
:100336000080B07000000000000000000000000017
:1003460000000101010101010100000000000000A0
:10035600000030300000000000000000008060183F
:1003660004006018060100000000E010080810E014
:1003760000000F102020100F00001010F8000000E1
:10038600000020203F202000000070080808887028
:1003960000003028242221300000300888884830A8
:1003A600000018202020110E000000C02010F800C8
:1003B6000000070424243F240000F8088888080861
:1003C600000019212020110E0000E0108888180076
:1003D60000000F112020110E0000380808C8380848
:1003E600000000003F0000000000708808088870C8
:1003F60000001C222121221C0000E010080810E049
:10040600000000312222110F00000000C0C00000D1
:1004160000000000303000000000000080000000F6
:1004260000000080600000000000008040201008EE
:1004360000000102040810200040404040404040B7
:100446000004040404040404000008102040800092
:10045600000020100804020100007048080808F097
:10046600000000003036010000C030C828E810E067
:10047600000718272423140B000000C038E00000F2
:1004860000203C23020227382008F888888870005C
:1004960000203F202020110E00C030080808083830
:1004A60000071820202010080008F808080810E0A7
:1004B60000203F202020100F0008F88888E8081048
:1004C60000203F20202320180008F88888E808101C
:1004D60000203F200003000000C030080808380054
:1004E6000007182020221E020008F808000008F85D
:1004F60008203F210101213F20000808F8080800D4
:10050600000020203F2020000000000808F808080E
:1005160000C08080807F00000008F888C028180886
:1005260000203F20012638200008F80800000000BF
:1005360000203F20202020300008F8F800F8F808B6
:1005460000203F003F003F200008F830C00008F8B8
:1005560008203F200007183F00E01008080810E0B8
:10056600000F10202020100F0008F808080808F0D7
:1005760000203F210101010000E01008080810E0FA
:10058600000F18242438504F0008F888888888708F
:1005960000203F2000030C3020007088080808382F
:1005A600000038202121221C00180808F808081825
:1005B600000000203F2000000008F808000008F8AE
:1005C60008001F202020201F000878880000C83857
:1005D60008000007380E010000F80800F80008F8C7
:1005E60000033C0700073C03000818688080681871
:1005F6000820302C03032C30200838C800C83808DF
:10060600000000203F2000000010080808C8380835
:10061600002038262120201800000000FE020202D9
:10062600000000007F40404000000C30C000000089
:1006360000000000010638C00000020202FE0000B1
:1006460000004040407F0000000000040202020457
:100656000000000000000000000000000000000094
:10066600008080808080808080000202040000007C
:100676000000000000000000000000808080800074
:10068600000019242222223F2008F8008080000062
:1006960000003F112020110E000000008080800025
:1006A60000000E112020201100000000808088F834
:1006B60000000E112020103F200000808080800066
:1006C60000001F222222221300008080F0888888E2
:1006D600180020203F2020000000008080808080BD
:1006E60000006B94949493600008F800808080006A
:1006F60000203F210000203F200080989800000045
:10070600000020203F202000000000008098980074
:100716000000C08080807F000008F8000080808094
:1007260000203F24022D302000000808F8000000B9
:10073600000020203F202000008080808080808074
:1007460000203F20003F20003F8080008080800006
:1007560000203F210000203F200000808080800094
:1007660000001F202020201F0080800080800000C5
:100776000080FFA12020110E0000000080808080F4
:1007860000000E112020A0FF8080808000808080E5
:100796000020203F21200001000000808080808012
:1007A600000033242424241900008080E080800087
:1007B600000000001F2020000080800000008080D4
:1007C60000001F202020103F2080808000008080B5
:1007D6008000010E300806010080800080008080C5
:1007E600800F300C030C300F00008080008080806A
:1007F600000020312E0E3120008080800000808095
:100806008080818E70180601000080808080808044
:10081600000021302C2221300000000000807C02E4
:100826000200000000003F404000000000FF000002
:100836000000000000FF0000000002027C800000B3
:10084600000040403F0000000000060101020204D3
:0908560004000000000000000095
:0118BD002208
:10137F0075F010EBA4246FF582E5F03403F583E5E7
:0C138F00822CF582E43583F583E493FFA3
:10139B00E4FED290C2931218BDEF30E704D29280D4
:1013AB0002C292D2931218BDEF25E0FF0EBE08E2E7
:0113BB00220F
:0715B800E4FF1215BFAF04B0
:1015BF00E4FEC290C2931218BDEF30E704D29280BE
:1015CF0002C292D2931218BDEF25E0FF0EBE08E2C1
:0115DF0022E9
:0416D800AF02AD01AF
:1016DC00EF24B0FF1215BFED54F0C4540F4410FFAB
:0A16EC001215BFED540FFF0215BFE9
:02162D00AD0707
:10162F00E4FCEC24B0FF1215BFE4FF1215BF7F10CE
:10163F001215BFE4FBAF0512139B0BBB80F70CBC5D
:02164F0008E0B1
:011651002276
:0C180800AD077F201215BFAF050215BF11
:07189B00EF44B0FF0215BF8E
:10175300AD07ED54F0C4540F4410FF1215BFED5400
:051763000FFF0215BF9D
:0C181400AC077F221215BAAF050215BF09
:0C182000AC077F211215BAAF050215BFFE
:0718A200EF4440FF0215BFF7
:0C182C00AD077F811215BFAF050215BF8C
:10177D00AD077F8D1215BFED60047F1480027F10C1
:04178D001215BF2250
:0D000E00EF60047FC880027FC01215BF2282
:0D17EE00EF60047FA180027FA01215BF22D2
:0D17FB00EF60047FA580027FA41215BF22BD
:0718A900EF44A6FF0215BF8A
:0C183800AD077FA81215BFAF050215BF59
:0718B000EF44AEFF0215BF7B
:0C184400AD077FD31215BFAF050215BF22
:0C185000AD077FD51215BFAF050215BF14
:0C185C00AD077FD91215BFAF050215BF04
:0E17E000AD077FDA1215BFED4402FF0215BF00
:0C186800AD077FDB1215BFAF050215BFF6
:05001E007FE30215BFA5
:1010D000D293C291E4FF0FBF64FCD291E4FF1218D7
:1010E000B07F801218507F3F121838E4FF12184466
:1010F000E4FF1218A27F0112177D7F021218087FE9
:10110000011217EE7F0112000E7F101217E07F7F91
:1011100012182C7FF112185C7F40121868E4FF123D
:1011200017FBE4FF1218A97F011218B0E4FF0216A2
:011130002D91
:1014BA00EB24E0FCEDD3947A4003E4FD0F1216DC32
:1014CA00E4FDEC75F006A42469F582E43402F583A0
:0A14DA00E5822D1213910DBD10E8FC
:0114E40022E5
:0A0E13008F238D248B258A26892762
:100E1D00E52325E0F523E4FCAB25AA26A9278C8242
:100E2D00758300120878606124E0FBE524D3947883
:100E3D004007E4F52405230523AD24AF231216DC6A
:100E4D00E4FD75F010EBA4246FF582E5F03402F5A6
:100E5D0083E5822D1213910DBD08E7E52304FFAD47
:100E6D00241216DC7D0875F010EBA4246FF582E5D5
:100E7D00F03402F583E5822D1213910DBD10E77448
:090E8D00082524F5240C020E25B1
:010E96002239
:0A09C8008F228D238B248A258926B7
:1009D200E52225E0F522E4F528AB24AA25A92685FF
:1009E20028827583001208787003020AE8E4F5276A
:1009F200F529752A01E52790002693FFD3947F40BD
:100A02003AAB24AA25A92685288275830012087884
:100A1200FEEF6E7020852882F583A3120878FFE529
:100A22002790002793B5070DE52775F010A485F0F0
:100A320029F52A80060527052780BAE523D3947075
:100A42004007E4F52305220522E52A6401452960D1
:100A520058AD23AF221216DCE4F5277449252AF596
:100A62008274003529121396052AE52A7002052997
:100A72000527E527C3941040E2E52204FFAD2312C7
:100A820016DCE4F5277449252AF58274003529120B
:100A92001396052AE52A700205290527E527C3943E
:100AA2001040E2052805288034AD23AF221216DC5F
:100AB200E4F527E4FF12139B0527E527C3941040B2
:100AC200F2E52204FFAD231216DCE4F527E4FF125F
:100AD200139B0527E527C3941040F20528741025BF
:060AE20023F5230209DBED
:010AE80022EB
:0A0F19008F348D358B368A37893806
:100F2300E4F53CAB36AA37A938853C8275830012B9
:100F33000878FF6058D3947F40298F39853C8275A8
:100F43008300A3120878F53AE4F53BFB7A0079397C
:100F5300AD35AF341209C874102535F535053C0598
:100F63003C80C0AB36AA37A938853C827583001212
:100F73000878F539E4F53AFB7A007939AD35AF34C1
:0D0F8300120E1374082535F535053C8096D7
:010F9000223E
:060E97008F3D8D3E8B3FF4
:100E9D00C3E53F6480948050107B2D120000E53F28
:100EAD00F404754400F545800F7B2BAD3EAF3D122C
:100EBD000000754400853F45AE44AF457C007D6420
:100ECD001208A5AB07AE44AF457C007D0A1208A5FC
:100EDD007C007D0A1208A58C408D41AE44AF457C47
:100EED00007D0A1208A58C428D43E53E2406FDAF18
:100EFD003D120000E53E240CFDAB41AF3D1200005C
:0C0F0D00E53E2412FDAB43AF3D020000A6
:080C05008F108D118A128B1370
:100C0D00C3E5126480948050137B2D120000C3E461
:100C1D009513FFE49512F51C8F1D800F7B2BAD11E5
:100C2D00AF1012000085121C85131DAE1CAF1D7C6C
:100C3D00277D101208A5AB07AE1CAF1D7C037DE808
:100C4D001208A57C007D0A1208A58C1A8D1BAE1CFE
:100C5D00AF1D7C007D641208A57C007D0A1208A5DD
:100C6D008C148D15AE1CAF1D7C007D0A1208A57C61
:100C7D00007D0A1208A58C168D17AE1CAF1D7C00C9
:100C8D007D0A1208A58C188D19E5112406FDAF10EB
:100C9D00120000E511240CFDAB1BAF10120000E596
:100CAD00112412FDAB15AF10120000E5112418FD33
:100CBD00AB17AF10120000E511241EFDAB19AF10DC
:030CCD0002000022
:06106D008B4F8A508951EF
:10107300E4F555F556EDD3943F40027D3FE553D358
:10108300947F400375537FED131313541FF554EDF1
:10109300540760020554E4FCECC39554502EAF048E
:1010A300E4FD1216DCEDC39553501EAB4FAA50A9B5
:1010B30051855682855583120878FF12139B055676
:0C10C300E556700205550D80DC0C80CC59
:0110CF0022FE
:10145C00AC077F2E1215BF3006047F2780027F2633
:10146C001215BF1215B8AF681215BFAF051215BF14
:0F147C00E4FF1215BF7FFF1215BF7F2F0215BFB0
:10148B00AC077F2E1215BF3007047F2A80027F29FD
:10149B001215BF1215B8AF5D1215BFAF051215BFF0
:0F14AB00E4FF1215BFAF5E1215BF7F2F0215BFF2
:0C187400AC077FA31215BAAF050215BF28
:04118C00AA07A90500
:10119000E9D3947A40030AE4F9EBC3940A50181295
:1011A00016D8E4FCEB75F006A424C9F582E43402F9
:1011B00012138C0CBC06EDEBD39409401DEB94107C
:1011C00050181216D8E4FCEB75F006A424F3F5824F
:0A11D000E4340212138C0CBC06ED8F
:0111DA0022F2
:040F9100AA07A905FD
:100F9500EA25E0FAE9D3947840040A0AE4F9EBC3B8
:100FA500940A501D1216D8E4FC12137F0CBC08F9E4
:100FB500EA04FFAD011216DC7C0812137F0CBC108D
:100FC500F9EBD39409403CEB941050371216D8E452
:100FD500FC75F010EBA424DFF582E5F03403121361
:100FE5008C0CBC08ECEA04FFAD011216DC7C08751C
:100FF500F010EBA424DFF582E5F0340312138C0C1A
:03100500BC10EC30
:0110080022C5
:1017A3004F50454E2000436C4F53450020202000EE
:0F144C00014E0001460007473A3A53430000AAF9
:0E17D10000007F037E487DA1DDFEDEFCDFFA16
:0117DF0022E7
:081892007F757EB8DEFEDFFC6D
:01189A00222B
:08000300C2C4121892D2C422FB
:10171000854E4B85464C7B007A0079477D07121633
:0717200075E4F52CD2012253
:1012FB00754EFFE54E7BFF60067A1779A380047A63
:10130B001779A97D50E4FF120E137BFF7A1779AF83
:10131B007D4F7F01120E1312179175259875264478
:10132B007527BB7B677DAA7F5512160712173E02E6
:02133B00171089
:10133D00E4F54EE54E7BFF60067A1779A380047ABB
:10134D001779A97D50E4FF120E137BFF7A1779AF41
:10135D007D4F7F01120E1312179175259875264436
:10136D007527BB7B677DAA7F5512160712173E02A4
:02137D00171047
:1011DB00E54E6046E546C39463500405468003E440
:1011EB00F546E54675F00A84FB7D507F01120F91A1
:1011FB00E54675F00A84ABF07D597F01120F911211
:10120B0017917525907526487527B77B677DA97F44
:0B121B005512160712173E1217102282
:10127000E54E6042E5467004F54680021546E546B7
:1012800075F00A84FB7D507F01120F91E54675F0E1
:101290000A84ABF07D597F01120F911217917525C9
:1012A0009875264F7527B07B677DAA7F5512160764
:0712B00012173E1217102275
:1013F400121791E54675F00A84FB7D507F01120FA8
:1014040091E54675F00A84ABF07D597F01120F9186
:1014140075259875264F7527B07B677DAA7F551271
:08142400160712173E02171013
:10179100538EBF53890FE4F58BF58DC28FC28EC274
:0217A100AB2279
:1014E500D28CD2A9758DFD758BC6D28E308FFDC27B
:1014F5008FC28EC2A9C28CD294758DFD758BC6D252
:0B1505008E308FFDC28FC28ED2942268
:10151000D28CD2A9758DFD758BC6D28E308FFDC24F
:101520008FC28EC28CC2A9D294758DF9758B7AD276
:0B1530008E308FFDC28FC28ED294223D
:10172700E4FEEF30E70512151080031214E5EF25EC
:06173700E0FF0EBE08EC0D
:01173D002289
:10153B00D28CD2A9758DEE758B3AD28E308FFDC2BF
:10154B008FC28EC28CC2A9D294758DEE758B3AD296
:0B155B008E308FFDC28FC28ED2942212
:100CD0008E5F8F608C618D62D28CAB07AA06E4C3F5
:100CE0009BFFE49AFE74019400FDE49400FCE4FB95
:100CF0007A01F9F81212B78F8DAE5FAF60AB07AA19
:100D000006E4C39BFFE49AFE74019400FDE49400A2
:100D1000FCE4FB7A01F9F81212B7AF038F8BD28E85
:100D2000308FFDC28FC28EC28CC2A9D294AE61AF89
:100D300062AB07AA06EA3395E0F9F8C3E49BFFE447
:100D40009AFE740199FDE498FCE4FB7A01F9F8122B
:100D500012B78F8DAE61AF62AB07AA06EA3395E09A
:100D6000F9F8C3E49BFFE49AFE740199FDE498FC52
:100D7000E4FB7A01F9F81212B7AF038F8BD28E30F1
:070D80008FFDC28FC28E221D
:10156600D28CD2A9758DFD758BBCD28E308FFDC203
:101576008FC28EC28CD294758DEC758B14D28E3040
:091586008FFDC28FC28EC29422B7
:10176800538E7F5389F0758AF3758CFFC28DC28CB6
:05177800D2AFD2A9224E
:10160700AE07AC0312153B121727AF05121727AF0A
:1016170004121727AF25121727AF26121727AF2750
:06162700121727021566F0
:0318B700021768AD
:10158F00AA07D2A97525E08A26EAF4F5277B1F7DE5
:10159F004D7FB21216077525E08A26EAF4F5277FEC
:0915AF00B2121607C2A9C294226F
:03000B000218BA1E
:0318BA00B29432B3
:100D9300020AE9E493A3F8E493A34003F68001F283
:100DA30008DFF48029E493A3F85407240CC8C33361
:100DB300C4540F4420C8834004F456800146F6DF30
:100DC300E4800B010204081020408090142CE47E80
:100DD300019360BCA3FF543F30E509541FFEE49325
:100DE300A360010ECF54C025E060A840B8E493A3EC
:100DF300FAE493A3F8E493A3C8C582C8CAC583CA17
:100E0300F0A3C8C582C8CAC583CADFE9DEE780BECE
:01145B000090
:10085F00BB010689828A83E0225002E722BBFE0297
:09086F00E32289828A83E49322CA
:10087800BB010CE58229F582E5833AF583E0225035
:1008880006E92582F8E622BBFE06E92582F8E2227F
:0D089800E58229F582E5833AF583E4932299
:1008A500BC000BBE0029EF8DF084FFADF022E4CC37
:1008B500F875F008EF2FFFEE33FEEC33FCEE9DEC00
:1008C500984005FCEE9DFE0FD5F0E9E4CEFD22ED46
:1008D500F8F5F0EE8420D21CFEADF075F008EF2F90
:1008E500FFED33FD4007985006D5F0F222C398FD81
:0508F5000FD5F0EA221E
:1012B700C2D5E830E70FB2D5E4C39BFBE49AFAE462
:1012C70099F9E498F8EC30E717B2D51212ED120944
:1012D70036E4C39BFBE49AFAE499F9E498F88003AF
:1012E70012093630D50DE4C39FFFE49EFEE49DFD51
:0412F700E49CFC2255
:1008FA0075F008758200EF2FFFEE33FECD33CDCCB5
:10090A0033CCC58233C5829BED9AEC99E582984037
:10091A000CF582EE9BFEED9AFDEC99FC0FD5F0D614
:10092A00E4CEFBE4CDFAE4CCF9A88222B800C1B93E
:10093A000059BA002DEC8BF084CFCECDFCE5F0CB7C
:10094A00F97818EF2FFFEE33FEED33FDEC33FCEBB5
:10095A0033FB10D703994004EB99FB0FD8E5E4F970
:10096A00FA227818EF2FFFEE33FEED33FDEC33FC5D
:10097A00C933C910D7059BE99A4007EC9BFCE99A51
:10098A00F90FD8E0E4C9FAE4CCFB2275F010EF2F96
:10099A00FFEE33FEED33FDCC33CCC833C810D70796
:1009AA009BEC9AE899400AED9BFDEC9AFCE899F8D1
:0E09BA000FD5F0DAE4CDFBE4CCFAE4C8F92264
:00000001FF
