:03000000020F9359
:0C0F9300787FE4F6D8FD75816D020FDA5E
:10196300C4A3C4E2BFD5B5F700434C4F534500A110
:0C197300E6003A00C4A3CABD20A3BA00DD
:0A16BA00015B00C103C104015801E7
:0E1A2F0000007F027E247DCEDDFEDEFCDFFAAD
:011A3D002286
:1019CA00538EBF53890F758BE0758DB1C28FD28E3E
:0519DA00D2ABD2AF22E8
:081AFC007F0C7EA9DEFEDFFC79
:011B040022BE
:10127B00C2C4121AFCD2C4D295C2941213421219D0
:10128B007F1219CA121B337BFF7A197963E4FDFFB6
:10129B00120A0C7BFF7A19796C7D50E4FF12101F38
:1012AB007BFF7A197972E4FD7F01120A0C7BFF7ABE
:1012BB001979757D127F0112101F7BFF7A197977CF
:1012CB00E4FD7F02120A0C7BFF7A1979757D227F70
:0412DB000202101FDC
:10186E00E55EB4410EF559855F5A7F02785EE4F667
:10187E0008DFFCE55FB4410EF559855E5A7F0278AC
:06188E005EE4F608DFFC39
:011894002231
:100E1800E4F53212127BE55964417075F559E55ACB
:100E2800249FB40A005058900E3D75F003A4C58362
:100E380025F0C58373020E5B020E60020E65020E7A
:100E48006A020E6F020E74020E78020E7C020E8089
:100E5800020E96120B2D8036120C3D80311214BDF5
:100E6800802C12140380271213A380227F01800A8A
:100E78007F0380067F028002E4FF121461800FE581
:100E88005AD3946D4008E55A2493FF121517E4F5D8
:100E98005AAB32E4FD7F0312119DE55BB40112E405
:100EA800F55B0532121999E532D394094003E4F54C
:100EB80032300305C20312186EE558C39404500378
:100EC800020E1E200403020E1E120003E4F558C28F
:040ED80004020E1EE4
:03001B0002168842
:06168800C0E0C0F0C0D07C
:10168E000557300409E558C3940450020558E55730
:10169E0075F00384E5F07002D203E557B432067597
:0516AE005700755B010F
:0716B300D0D0D0F0D0E032EE
:0A16C400015D00015C00C101C100DE
:10197F00E5A2543FF5A275985075D7E675D6FF7559
:0A198F008E14438E01D2ACD2AF22B9
:030023000218E0E0
:0718E000C0E0C0D075D00884
:1018E70030980DC298A200E433245EF8A699B2009E
:0718F700309904C299C202FE
:0518FE00D0D0D0E03263
:061A3E0014F91208A3FFD9
:091A44002002FDEFD202F5992207
:101926008B688A69896AAB68AA69A96A1208A36082
:0F1936000D056AE56A70020569121A3E80E82203
:081B05007F017EECDEFEDFFC37
:011B0D0022B5
:061903008B348A358936A1
:10190900E4FCECC39D5015AB340536E536AA3570B9
:0C191900020535121A3E121B050C80E678
:01192500229F
:10002600CABDD7D4B6AFB3E9CAAAD6C6C0E4C8C853
:10003600C4A3C4E2B5E7CAD3B1F9CFE4BFD5B5F7D7
:10004600D2A3BFD8A1E60010109090909090101007
:10005600FF101011161000002060203F1010100035
:10006600030C102040F800000000F8888C8A89886C
:100076008888F800000000000000FF44444444441F
:100086004444FF000000004044C44444444010106F
:10009600FF101010F00000103C131014B840300E82
:1000A600014080403F0000101010FF109000F0103B
:1000B60010FF1010F000000444827F010000FF4290
:1000C600427F4242FF00001060028C00FE92929234
:1000D600929292FE00000004047E014448507F4044
:1000E600407F504844400040504E4848FF484848EA
:1000F60040F80000FF000000003E0202FF12221E30
:10010600000F40807F000000020CC0004020100C51
:1001160023CC102040400002027F0000000109119C
:1001260021D10D03000000080888FF484800084850
:10013600FF0808F80000008165080720C0080423AE
:10014600C0030023C40F001010D0FF9014E4AFA426
:10015600A4A4AFE4040000040300FF00894B2A1A9C
:100166000E1A2A4B888000101010FF9000F800022B
:10017600041800FF0000000242817F00003F108843
:1001860040300C0B30C0000000F888888888FF8853
:10019600888888F800000000001F080808087F8883
:1001A6008888889F80F000080889EE980000FE0283
:1001B60002F20202FE0000020100FF008340231843
:1001C60006017E8083E00000020CC0002020E000D3
:1001D600FF70A01008000002027F00100806418090
:1001E6007F00010608100020908C87EC948414C8C8
:1001F60047444C54C4040040201806FF041800FF6E
:1002060092929292FF0000100C44241404050604F6
:1002160004142444140C00004040414141417F41F4
:10022600414141404000004042CC0000FE82929293
:10023600FE929282FE000000003F10887F001E1290
:1002460012125E807F0000404042CC00004A3222FB
:100256002AF121312D00000080403F408081BDA160
:10026600A1BFA1A1BD8100101010FF9020984828C1
:10027600090E2848A818000242817F0040404242E9
:10028600427E4242424000060909E6F80C04020298
:10029600020202041E0000000000071F302040403A
:1002A6004040402010000000000000000000000058
:1002B6000000000000000000000000000000000038
:1002C600F800000000000000333000000000100CB1
:1002D60006100C0600000000000000000040C07878
:1002E60040C0784000043F04043F040400007088C6
:1002F600FC08300000001820FF211E0000F008F066
:1003060000E018000000211C031E211E0000F0085A
:1003160088700000001E2123241927211010160EB4
:1003260000000000000000000000000000000000C7
:10033600E018040200000000071820400000020434
:1003460018E0000000004020180700000040408030
:10035600F0804040000202010F010202000000008E
:10036600F0000000000101011F0101010000000072
:10037600000000000080B0700000000000000000D7
:100386000000000000000101010101010100000060
:1003960000000000000030300000000000000000F7
:1003A6000080601804006018060100000000E010DC
:1003B600080810E000000F102020100F0000101099
:1003C600F8000000000020203F20200000007008F8
:1003D60008088870000030282422213000003008E8
:1003E60088884830000018202020110E000000C028
:1003F6002010F8000000070424243F240000F80819
:1004060088880808000019212020110E0000E0103D
:100416008888180000000F112020110E00003808EF
:1004260008C83808000000003F000000000070887F
:100436000808887000001C222121221C0000E01000
:10044600080810E0000000312222110F0000000011
:10045600C0C00000000000003030000000000000B6
:1004660080000000000000806000000000000080A6
:1004760040201008000001020408102000404040FF
:100486004040404000040404040404040000081032
:10049600204080000000201008040201000070487F
:1004A600080808F0000000003036010000C030C81F
:1004B60028E810E0000718272423140B000000C0CA
:1004C60038E0000000203C23020227382008F88884
:1004D6008888700000203F202020110E00C03008C0
:1004E6000808083800071820202010080008F80817
:1004F600080810E000203F202020100F0008F88890
:1005060088E8081000203F20202320180008F888DB
:1005160088E8081000203F200003000000C03008D3
:10052600080838000007182020221E020008F808D4
:10053600000008F808203F210101213F200008089B
:10054600F8080800000020203F20200000000008D6
:1005560008F8080800C08080807F00000008F8883E
:10056600C028180800203F20012638200008F80877
:100576000000000000203F20202020300008F8F86E
:1005860000F8F80800203F003F003F200008F83040
:10059600C00008F808203F200007183F00E01008B8
:1005A600080810E0000F10202020100F0008F8089F
:1005B600080808F000203F210101010000E01008B2
:1005C600080810E0000F18242438504F0008F88857
:1005D6008888887000203F2000030C302000708837
:1005E60008080838000038202121221C00180808B5
:1005F600F8080818000000203F2000000008F8084E
:10060600000008F808001F202020201F0008788816
:100616000000C83808000007380E010000F808007E
:10062600F80008F800033C0700073C0300081868B8
:10063600808068180820302C03032C30200838C826
:1006460000C83808000000203F20000000100808FD
:1006560008C838080020382621202018000000008D
:10066600FE020202000000007F40404000000C3005
:10067600C000000000000000010638C000000202B1
:1006860002FE000000004040407F00000000000421
:10069600020202040000000000000000000000004A
:1006A6000000000000808080808080808000020240
:1006B60004000000000000000000000000000080B0
:1006C60080808000000019242222223F2008F800A2
:1006D6008080000000003F112020110E0000000065
:1006E6008080800000000E112020201100000000F4
:1006F600808088F800000E112020103F2000008026
:100706008080800000001F222222221300008080A9
:10071600F0888888180020203F20200000000080F4
:100726008080808000006B94949493600008F800A9
:100736008080800000203F210000203F200080981C
:1007460098000000000020203F202000000000004C
:10075600809898000000C08080807F000008F80024
:100766000080808000203F24022D302000000808F1
:10077600F8000000000020203F202000008080803C
:100786008080808000203F20003F20003F80800046
:100796008080800000203F210000203F2000008054
:1007A6008080800000001F202020201F0080800005
:1007B600808000000080FFA12020110E00000000B4
:1007C6008080808000000E112020A0FF8080808025
:1007D600008080800020203F212000010000008052
:1007E6008080808000003324242424190000808027
:1007F600E0808000000000001F20200000808000B4
:100806000000808000001F202020103F2080808074
:10081600000080808000010E300806010080800004
:1008260080008080800F300C030C300F0000808029
:1008360000808080000020312E0E312000808080D4
:10084600000080808080818E701806010000808004
:1008560080808080000021302C22213000000000A2
:1008660000807C020200000000003F4040000000C3
:1008760000FF00000000000000FF00000000020270
:100886007C800000000040403F00000000000601A0
:0D0896000102020404000000000000000048
:011B39002289
:10164B0075F010EBA424B3F582E5F03403F583E5D4
:0C165B00822CF582E43583F583E493FFD4
:10166700E4FED290C293121B39EF30E704D2928086
:1016770002C292D293121B39EF25E0FF0EBE08E299
:011687002240
:07184600E4FF12184DAF048E
:10184D00E4FEC290C293121B39EF30E704D29280AE
:10185D0002C292D293121B39EF25E0FF0EBE08E2B1
:01186D002258
:04194500AF02AD013F
:10194900EF24B0FF12184DED54F0C4540F4410FFAA
:0A19590012184DED540FFF02184D57
:0218BB00AD0777
:1018BD00E4FCEC24B0FF12184DE4FF12184D7F101C
:1018CD0012184DE4FBAF051216670BBB80F70CBC6D
:0218DD0008E021
:0118DF0022E6
:0C1A8400AD077F2012184DAF0502184D71
:071B1700EF44B0FF02184D7E
:1019DF00AD07ED54F0C4540F4410FF12184DED54E1
:0519EF000FFF02184D7E
:0C1A9000AC077F22121848AF0502184D69
:0C1A9C00AC077F21121848AF0502184D5E
:071B1E00EF4440FF02184DE7
:0C1AA800AD077F8112184DAF0502184DEC
:101A0900AD077F8D12184DED60047F1480027F10A1
:041A190012184D2230
:0D000E00EF60047FC880027FC012184D22F1
:0D1A6A00EF60047FA180027FA012184D22C2
:0D1A7700EF60047FA580027FA412184D22AD
:071B2500EF44A6FF02184D7A
:0C1AB400AD077FA812184DAF0502184DB9
:071B2C00EF44AEFF02184D6B
:0C1AC000AD077FD312184DAF0502184D82
:0C1ACC00AD077FD512184DAF0502184D74
:0C1AD800AD077FD912184DAF0502184D64
:0E1A5C00AD077FDA12184DED4402FF02184D5F
:0C1AE400AD077FDB12184DAF0502184D56
:05001E007FE302184D14
:10134200D293C291E4FF0FBF64FCD291E4FF121B5F
:101352002C7F80121ACC7F3F121AB4E4FF121AC0FB
:10136200E4FF121B1E7F01121A097F02121A847FE8
:1013720001121A6A7F0112000E7F10121A5C7F7F1F
:10138200121AA87FF1121AD87F40121AE4E4FF124F
:101392001A77E4FF121B257F01121B2CE4FF0218AF
:0113A200BB8F
:10174800EB24E0FCEDD3947A4003E4FD0F12194931
:10175800E4FDEC75F006A424ADF582E43402F583CB
:0A176800E5822D12165D0DBD10E89C
:011772002254
:0A101F008F338D348B358A36893704
:10102900E53325E0F533E4FCAB35AA36A9378C82E4
:101039007583001208BC606124E0FBE534D3947821
:101049004007E4F53405330533AD34AF331219499C
:10105900E4FD75F010EBA424B3F582E5F03402F554
:1010690083E5822D12165D0DBD08E7E53304FFAD5A
:10107900341219497D0875F010EBA424B3F582E503
:10108900F03402F583E5822D12165D0DBD10E7746B
:09109900082534F5340C02103175
:0110A200222B
:0A0A0C008F348D358B368A37893818
:100A1600E53425E0F534E4F53AAB36AA37A938854E
:100A26003A827583001208BC7003020B2CE4F53978
:100A3600F53B753C01E53990002693FFD3947F4042
:100A46003AAB36AA37A938853A827583001208BCB4
:100A5600FEEF6E7020853A82F583A31208BCFFE58F
:100A66003990002793B5070DE53975F010A485F088
:100A76003BF53C80060539053980BAE535D39470D7
:100A86004007E4F53505340534E53C6401453B6033
:100A960058AD35AF34121949E4F539744D253CF596
:100AA600827400353B121662053CE53C7002053B3C
:100AB6000539E539C3941040E2E53404FFAD35123B
:100AC6001949E4F539744D253CF5827400353B121D
:100AD6001662053CE53C7002053B0539E539C394D1
:100AE6001040E2053A053A8034AD35AF3412194963
:100AF600E4F539E4FF1216670539E539C394104069
:100B0600F2E53404FFAD35121949E4F539E4FF1274
:100B160016670539E539C3941040F2053A74102575
:060B260035F535020A1F3F
:010B2C0022A6
:0A1125008F3D8D3E8B3F8A408941CB
:10112F00E4F545AB3FAA40A941854582758300127E
:10113F0008BCFF6058D3947F40298F428545827544
:10114F008300A31208BCF543E4F544FB7A0079420F
:10115F00AD3EAF3D120A0C7410253EF53E05450518
:10116F004580C0AB3FAA40A94185458275830012D7
:10117F0008BCF542E4F543FB7A007942AD3EAF3D42
:0D118F0012101F7408253EF53E05458096A0
:01119C002230
:0610A3008F468D478B48CB
:1010A900C3E5486480948050107B2D120000E54808
:1010B900F404754D00F54E800F7B2BAD47AF4612FA
:1010C9000000754D0085484EAE4DAF4E7C007D64E5
:1010D9001208E9AB07AE4DAF4E7C007D0A1208E954
:1010E9007C007D0A1208E98C498D4AAE4DAF4E7CD1
:1010F900007D0A1208E98C4B8D4CE5472406FDAFAB
:1011090046120000E547240CFDAB4AAF4612000029
:0C111900E5472412FDAB4CAF460200007D
:080D4D008F108D118A128B1327
:100D5500C3E5126480948050137B2D120000C3E418
:100D65009513FFE49512F51C8F1D800F7B2BAD119C
:100D7500AF1012000085121C85131DAE1CAF1D7C23
:100D8500277D101208E9AB07AE1CAF1D7C037DE87B
:100D95001208E97C007D0A1208E98C1A8D1BAE1C2D
:100DA500AF1D7C007D641208E97C007D0A1208E90C
:100DB5008C148D15AE1CAF1D7C007D0A1208E97CD4
:100DC500007D0A1208E98C168D17AE1CAF1D7C003C
:100DD5007D0A1208E98C188D19E5112406FDAF105E
:100DE500120000E511240CFDAB1BAF10120000E54D
:100DF500112412FDAB15AF10120000E5112418FDEA
:100E0500AB17AF10120000E511241EFDAB19AF1092
:030E1500020000D8
:0612DF008B4F8A5089517B
:1012E500E4F555F556EDD3943F40027D3FE553D3E4
:1012F500947F400375537FED131313541FF554ED7D
:10130500540760020554E4FCECC39554502EAF0419
:10131500E4FD121949EDC39553501EAB4FAA50A9D0
:10132500518556828555831208BCFF1216670556EE
:0C133500E556700205550D80DC0C80CCE4
:011341002289
:1016EA00AC077F2E12184D3005047F2780027F2613
:1016FA0012184D121846AF6D12184DAF0512184D3B
:0F170A00E4FF12184D7FFF12184D7F2F02184D6C
:10171900AC077F2E12184D3006047F2A80027F29DC
:1017290012184D121846AF6212184DAF0512184D16
:0F173900E4FF12184DAF6312184D7F2F02184DA9
:0C1AF000AC077FA3121848AF0502184D88
:04156C00AA07A9051C
:10157000E9D3947A40030AE4F9EBC3940A501812B1
:101580001945E4FCEB75F006A4240DF582E4340360
:101590001216580CBC06EDEBD39409401DEB9410C9
:1015A0005018121945E4FCEB75F006A42437F582B7
:0A15B000E434031216580CBC06EDDB
:0115BA00220E
:04119D00AA07A905EF
:1011A100EA25E0FAE9D3947840040A0AE4F9EBC3AA
:1011B100940A501D121945E4FC12164B0CBC08F997
:1011C100EA04FFAD011219497C0812164B0CBC1040
:1011D100F9EBD39409403CEB94105037121945E4D4
:1011E100FC75F010EBA42423F582E5F0340412160B
:1011F100580CBC08ECEA04FFAD011219497C0875D2
:10120100F010EBA42423F582E5F034041216580CF7
:03121100BC10EC22
:0112140022B7
:10121500C4A3C4E2BFD5B5F7002000A1E600C4A36E
:10122500CABDA3BA00202020202020200020202095
:101235002020004F50454E2000D7D4B6AF00D6C66B
:10124500C0E400B3E9CAAA00D6C6C8C800434C4FDB
:101255005345003A00C4A3CABD20A3BA00202020EC
:10126500002020000010302060705040C0D09080D9
:06127500A0B00800040C0B
:1016CE0001210001220001310006233A3A53110094
:0B16DE000008293A3A534100FFFFAA20
:0E1A4D0000007F037E557DA1DDFEDEFCDFFA8A
:011A5B002268
:081B0E007F757EB8DEFEDFFCEE
:011B160022AC
:08000300C2C4121B0ED2C4227C
:1019990085312D85222E85212F7B007A0079297D9D
:0A19A90008121903E4F558D20422D5
:1015BB007BFF7A127915E4FDFF120A0C7BFF7A127E
:1015CB00791EE4FD7F0112101F7BFF7A1279207DBB
:1015DB00147F01120A0C7BFF7A127923E4FDFF12B0
:1015EB000A0C7BFF7A12792A7D327F02120A0C7B5E
:0C15FB00FF7A1279327D50E4FF02101FCD
:100B2D00121A1DD2A97537E07538087539F77B1F74
:100B3D007D4D7FB21218957537E07538087539F708
:100B4D007B1F7D4D7FB2121895C2A9C2947531FFDE
:100B5D00E531606F7BFF7A1279387D50E4FF12101A
:100B6D001FE5212411FFE433FE7C007D0A1208E904
:100B7D00AB077D227F0112119DE5212411FFE43386
:100B8D00FE7C007D0A1208E9AB057D2B7F01121159
:100B9D009DE52214601514601A14601F2403600370
:100BAD00020C377BFF7A12793E80787BFF7A1279BF
:100BBD004380707BFF7A12794880687BFF7A1279C7
:100BCD004D80607BFF7A127915E4FDFF120A0C7BD4
:100BDD00FF7A1279527D50E4FF12101F7BFF7A12BB
:100BED007920E4FD7F01120A0C7BFF7A1279587D82
:100BFD00127F0112101F7BFF7A12795AE4FD7F02DA
:100C0D00120A0C7BFF7A1279587D227F0212101F77
:100C1D007BFF7A1279627D1B7F01120A0C7BFF7AB2
:100C2D001279667D347F02120A0C1219CA021999C3
:100C3D00121A1DD2A97537847538E075391F7B7B63
:100C4D007D4D7FB21218957537847538E075391F53
:100C5D007B7B7D4D7FB2121895C2A9C294E4F5310C
:100C6D00E531606F7BFF7A1279387D50E4FF121009
:100C7D001FE5212411FFE433FE7C007D0A1208E9F3
:100C8D00AB077D227F0112119DE5212411FFE43375
:100C9D00FE7C007D0A1208E9AB057D2B7F01121148
:100CAD009DE52214601514601A14601F240360035F
:100CBD00020D477BFF7A12793E80787BFF7A12799D
:100CCD004380707BFF7A12794880687BFF7A1279B6
:100CDD004D80607BFF7A127915E4FDFF120A0C7BC3
:100CED00FF7A1279527D50E4FF12101F7BFF7A12AA
:100CFD007920E4FD7F01120A0C7BFF7A1279587D71
:100D0D00127F0112101F7BFF7A12795AE4FD7F02C8
:100D1D00120A0C7BFF7A1279587D227F0212101F66
:100D2D007BFF7A1279627D1B7F01120A0C7BFF7AA1
:100D3D001279667D347F02120A0C1219CA021999B2
:10140300E5316059121A1DE521C3940D400575217C
:101413000D80020521E52190126993FFE5229012C8
:101423007793420712181D1219CAE5212411FFE40C
:1014330033FE7C007D0A1208E9AB077D227F01128F
:10144300119DE5212411FFE433FE7C007D0A12087F
:0D145300E9AB057D2B7F0112119D12199947
:011460002269
:1014BD00E5316055121A1DE5217004F521800215E4
:1014CD0021E52190126993FFE5229012779342074F
:1014DD0012181D1219CAE5212411FFE433FE7C00F8
:1014ED007D0A1208E9AB077D227F0112119DE521CE
:1014FD002411FFE433FE7C007D0A1208E9AB057D63
:09150D002B7F0112119D121999A6
:0115160022B2
:021517008F3310
:10151900E531604E121A1D853321E5219012699338
:10152900FFE52290127793420712181D1219CAE596
:10153900212411FFE433FE7C007D0A1208E9AB0780
:101549007D227F0112119DE5212411FFE433FE7CE8
:10155900007D0A1208E9AB057D2B7F0112119D124E
:021569001999CE
:01156B00225D
:1013A300E531605B121A1D0522E522D39403400345
:1013B300E4F522E52190126993FFE52290127793D9
:1013C300420712181D1219CAE5221460121460177D
:1013D30014601C240370257BFF7A12793E80167BF0
:1013E300FF7A127943800E7BFF7A12794880067B5D
:0F13F300FF7A12794D7D347F02120A0C1219997C
:0114020022C7
:101461008F33E5316055121A1D853322E521901223
:101471006993F533E522901277934233AF33121813
:101481001D1219CAE52214601214601714601C247D
:101491000370257BFF7A12793E80167BFF7A1279E1
:1014A10043800E7BFF7A12794880067BFF7A12799E
:0C14B1004D7D347F02120A0C12199922A2
:101A1D00538EBF53890FE4F58BF58DC28FC28EC2E5
:021A2D00AB22EA
:10177300D28CD2A9758DFD758BC6D28E308FFDC2EA
:101783008FC28EC2A9C28CD294758DFD758BC6D2C1
:0B1793008E308FFDC28FC28ED29422D8
:10179E00D28CD2A9758DFD758BC6D28E308FFDC2BF
:1017AE008FC28EC28CC2A9D294758DF9758B7AD2E6
:0B17BE008E308FFDC28FC28ED29422AD
:1019B300E4FEEF30E70512179E8003121773EF253D
:0619C300E0FF0EBE08EC7F
:0119C90022FB
:1017C900D28CD2A9758DEE758B3AD28E308FFDC22F
:1017D9008FC28EC28CC2A9D294758DEE758B3AD206
:0B17E9008E308FFDC28FC28ED2942282
:100EDC008E648F658C668D67D28CAB07AA06E4C3D3
:100EEC009BFFE49AFE74019400FDE49400FCE4FB87
:100EFC007A01F9F81216078F8DAE64AF65AB07AAAD
:100F0C0006E4C39BFFE49AFE74019400FDE4940094
:100F1C00FCE4FB7A01F9F8121607AF038F8BD28E23
:100F2C00308FFDC28FC28EC28CC2A9D294AE66AF76
:100F3C0067AB07AA06EA3395E0F9F8C3E49BFFE434
:100F4C009AFE740199FDE498FCE4FB7A01F9F8121D
:100F5C0016078F8DAE66AF67AB07AA06EA3395E02E
:100F6C00F9F8C3E49BFFE49AFE740199FDE498FC44
:100F7C00E4FB7A01F9F8121607AF038F8BD28E308F
:070F8C008FFDC28FC28E220F
:1017F400D28CD2A9758DFD758BBCD28E308FFDC273
:101804008FC28EC28CD294758DEC758B14D28E30AF
:091814008FFDC28FC28EC2942226
:1019F400538E7F5389F0758AF3758CFFC28DC28C28
:051A0400D2AFD2A922BF
:10189500AE07AC031217C91219B3AF051219B3AFCE
:1018A500041219B3AF371219B3AF381219B3AF39E0
:0618B5001219B30217F442
:031B33000219F4A0
:10181D00AA07D2A97537E08A38EAF4F5397B1F7D1E
:10182D004D7FB21218957537E08A38EAF4F5397F95
:09183D00B2121895C2A9C294224E
:03000B00021B369F
:031B3600B2943234
:100F9F00020E18E493A3F8E493A34003F68001F242
:100FAF0008DFF48029E493A3F85407240CC8C33353
:100FBF00C4540F4420C8834004F456800146F6DF22
:100FCF00E4800B01020408102040809016BAE47EE2
:100FDF00019360BCA3FF543F30E509541FFEE49317
:100FEF00A360010ECF54C025E060A840B8E493A3DE
:100FFF00FAE493A3F8E493A3C8C582C8CAC583CA09
:10100F00F0A3C8C582C8CAC583CADFE9DEE780BEC0
:0116E9000000
:1008A300BB010689828A83E0225002E722BBFE0253
:0908B300E32289828A83E4932286
:1008BC00BB010CE58229F582E5833AF583E02250F1
:1008CC0006E92582F8E622BBFE06E92582F8E2223B
:0D08DC00E58229F582E5833AF583E4932255
:1008E900BC000BBE0029EF8DF084FFADF022E4CCF3
:1008F900F875F008EF2FFFEE33FEEC33FCEE9DECBC
:10090900984005FCEE9DFE0FD5F0E9E4CEFD22ED01
:10091900F8F5F0EE8420D21CFEADF075F008EF2F4B
:10092900FFED33FD4007985006D5F0F222C398FD3C
:050939000FD5F0EA22D9
:10160700C2D5E830E70FB2D5E4C39BFBE49AFAE40E
:1016170099F9E498F8EC30E717B2D512163D12099C
:101627007AE4C39BFBE49AFAE499F9E498F8800317
:1016370012097A30D50DE4C39FFFE49EFEE49DFDB9
:04164700E49CFC2201
:10093E0075F008758200EF2FFFEE33FECD33CDCC70
:10094E0033CCC58233C5829BED9AEC99E5829840F3
:10095E000CF582EE9BFEED9AFDEC99FC0FD5F0D6D0
:10096E00E4CEFBE4CDFAE4CCF9A88222B800C1B9FA
:10097E000059BA002DEC8BF084CFCECDFCE5F0CB38
:10098E00F97818EF2FFFEE33FEED33FDEC33FCEB71
:10099E0033FB10D703994004EB99FB0FD8E5E4F92C
:1009AE00FA227818EF2FFFEE33FEED33FDEC33FC19
:1009BE00C933C910D7059BE99A4007EC9BFCE99A0D
:1009CE00F90FD8E0E4C9FAE4CCFB2275F010EF2F52
:1009DE00FFEE33FEED33FDCC33CCC833C810D70752
:1009EE009BEC9AE899400AED9BFDEC9AFCE899F88D
:0E09FE000FD5F0DAE4CDFBE4CCFAE4C8F92220
:00000001FF
