:03000000020E5A93
:0C0E5A00787FE4F6D8FD758163020EA1DC
:10130200C4A3C4E2D2A3BFD800BFD8D6C6BFD5B546
:10131200F700BFD8D6C6B5C6202000BFD8D6C6B5FE
:10132200E7CAD300204D5033202020202020200067
:0D13320020204D50332020202020202000BE
:0E000E0004343A3A413006383A3A534430AAA4
:0817E5007F6C7E91DEFEDFFC4B
:0117ED0022D9
:0817EE007F0C7EA9DEFEDFFC8A
:0117F60022D0
:100BBE00E4FD75A0FFC2A7AFA053070FEF640F604F
:100BCE00371217E5AFA053070FEF640F601EEF2427
:100BDE00F9601724FC600F24FE600714700E7D046C
:100BEE00800A7D0380067D0280027D01EF640F6026
:100BFE0007AFA053070F80F4D2A7C2A6AFA053072A
:100C0E000FEF640F60371217E5AFA053070FEF64B5
:100C1E000F601EEF24F9601724FC600F24FE60079E
:100C2E0014700E7D08800A7D0780067D0680027D89
:100C3E0005EF640F6007AFA053070F80F4D2A6C272
:100C4E00A5AFA053070FEF640F60371217E5AFA0E3
:100C5E0053070FEF640F601EEF24F9601724FC603A
:100C6E000F24FE600714700E7D0C800A7D0B80062B
:100C7E007D0A80027D09EF640F6007AFA053070F56
:100C8E0080F4D2A5C2A4AFA053070FEF640F603754
:100C9E001217E5AFA053070FEF640F601EEF24F994
:100CAE00601724FC600F24FE600714700E7D108008
:100CBE000A7D0F80067D0E80027D0DEF640F6007AA
:0C0CCE00AFA053070F80F475A0FFAF0526
:010CDA0022F7
:1015F000C2C41217E5D2C4D295C29412120E1216AA
:101600008D1218157BFF7A1379027D10E4FF020A10
:011610009D3C
:0E171E0000007F037E507DA1DDFEDEFCDFFAC1
:01172C00229A
:0B17DA0012171EC2C41217E5D2C42271
:1010D700EF24FBB40C0050619010ED75F003A4C52C
:1010E7008325F0C58373021111021115021119022C
:1010F700111D02112102112502112902112D0211C0
:101107003102113502113902113D753CFF22E4F518
:101117003C22753CF022753C0F22753CEE22753C53
:10112700A022753C6722753C6822753C6922753C94
:0A1137006A22753C6B22753C6C22A5
:10114100EF24FBB40C00506190115775F003A4C556
:101151008325F0C5837302117B02117F0211830283
:10116100118702118B02118F021193021197021143
:101171009B02119F0211A30211A7753761227537D6
:101181006222753763227537642275376522753798
:101191006622753767227537682275376922753778
:0A11A1006A2275376B2275376C2245
:1007B5001215F07BFF7A13790B7D107F02120A9DCB
:1007C500120BBE8F21E52160F7B402030208EEE5A6
:1007D50021B40303020909E521B4040F75364475F4
:1007E50037307BFF7A1379260208A9AF2112114110
:1007F5007B007A0079347D0412155F1217DA80C008
:10080500120BBE8F21E52160F7B402030208EEE565
:1008150021B40303020909E521B4040E75364475B4
:1008250037307BFF7A137932807AAF211211417B01
:10083500007A0079347D0412155F1217DA80C1122F
:100845000BBE8F21E52160F7B401030208D3E52132
:10085500B40303020909E521B4040E75364475375E
:10086500307BFF7A137932803BAF211211417B0037
:100875007A0079347D0412155F1217DA80C1120BE4
:10088500BE8F21E52160F7B401028042E521B40263
:10089500028056E521B404157536447537307BFF63
:1008A5007A1379327D107F02120FE78015AF21127E
:1008B50011417B007A0079347D0412155F1217DA35
:1008C50080BC120BBE8F21E52160F7B40116753689
:1008D500417537307BFF7A13790B7D107F02120A41
:1008E5009D020805E521B402167536427537307B41
:1008F500FF7A1379147D107F02120A9D020844E5E0
:1009050021B403167536437537307BFF7A13791D8D
:100915007D107F02120A9D020883AF211210D77B3A
:0F092500007A0079387D0612155F1217DA809379
:10168D00E5A2543FF5A275985075D7E675D6FF754E
:0A169D008E14438E01D2ACD2AF22AE
:0300230002150FB4
:07150F00C0E0C0D075D00858
:10151600309812C298AF99BF3109A200E433240073
:0C152600F8A699B200309904C299C201E5
:05153200D0D0D0E03232
:0917F7002001FDEFD201F5992259
:06155F008B228A2389247F
:10156500E4FEEEC39D5018AB220524E524AA2370A2
:0F15750002052314F9120934FF1217F70E80E351
:011584002244
:10002600B5C6C4A3C4E2BFD8D6C6B5E7CAD3BFD542
:10003600B5F7D2A3BFD8A1E600807000FF20100458
:10004600040404FC0404040400806018070830005B
:100056000040807F00000000001010D0FF9014E4E4
:10006600AFA4A4A4AFE4040000040300FF00894B7E
:100076002A1A0E1A2A4B888000101010FF9000F8DA
:100086000002041800FF0000000242817F00003FCA
:10009600108840300C0B30C000101010FF902098D4
:1000A6004828090E2848A818000242817F004040CF
:1000B6004242427E424242400040504E4848FF483B
:1000C600484840F80000FF000000003E0202FF1210
:1000D600221E000F40807F00000000F88888888874
:1000E600FF88888888F800000000001F08080808B4
:1000F6007F888888889F80F000080889EE9800002D
:10010600FE0202F20202FE0000020100FF0083402E
:10011600231806017E8083E000100C442414040595
:10012600060404142444140C00004040414141419B
:100136007F41414141404000004042CC0000FE82E8
:100146009292FE929282FE000000003F10887F008D
:100156001E1212125E807F0000404042CC00004A10
:1001660032222AF121312D00000080403F4080815B
:10017600BDA1A1BFA1A1BD8100101010FF902098C4
:100186004828090E2848A818000242817F004040EE
:100196004242427E4242424000060909E6F80C0409
:1001A6000202020202041E0000000000071F3020A7
:1001B60040404040402010000000000000000000C9
:1001C6000000000000000000000000000000000029
:1001D6000000F800000000000000333000000000BE
:1001E600100C06100C060000000000000000004085
:1001F600C07840C0784000043F04043F0404000077
:100206007088FC08300000001820FF211E0000F056
:1002160008F000E018000000211C031E211E00004B
:10022600F00888700000001E2123241927211010D1
:10023600160E000000000000000000000000000094
:100246000000E0180402000000000718204000002B
:10025600020418E0000000004020180700000040DB
:100266004080F0804040000202010F0102020000BF
:100276000000F0000000000101011F010101000063
:100286000000000000000080B070000000000000C8
:100296000000000000000000010101010101010051
:1002A60000000000000000003030000000000000E8
:1002B60000000080601804006018060100000000BD
:1002C600E010080810E000000F102020100F0000BA
:1002D6001010F8000000000020203F202000000041
:1002E6007008080888700000302824222130000099
:1002F600300888884830000018202020110E0000A1
:1003060000C02010F8000000070424243F24000049
:10031600F80888880808000019212020110E00001E
:10032600E0108888180000000F112020110E000030
:10033600380808C83808000000003F000000000028
:1003460070880808887000001C222121221C0000E9
:10035600E010080810E0000000312222110F000012
:100366000000C0C0000000000000303000000000A7
:100376000000800000000000008060000000000017
:1003860000804020100800000102040810200040F0
:1003960040404040404000040404040404040000BB
:1003A6000810204080000000201008040201000010
:1003B6007048080808F0000000003036010000C050
:1003C60030C828E810E0000718272423140B000083
:1003D60000C038E0000000203C2302022738200835
:1003E600F8888888700000203F202020110E00C069
:1003F60030080808083800071820202010080008D0
:10040600F808080810E000203F202020100F000800
:10041600F88888E8081000203F20202320180008CC
:10042600F88888E8081000203F200003000000C07C
:100436003008080838000007182020221E0200088D
:10044600F808000008F808203F210101213F20009C
:100456000808F8080800000020203F2020000000BF
:10046600000808F8080800C08080807F00000008A7
:10047600F888C028180800203F20012638200008E8
:10048600F8080000000000203F202020203000084F
:10049600F8F800F8F80800203F003F003F20000869
:1004A600F830C00008F808203F200007183F00E099
:1004B6001008080810E0000F10202020100F000878
:1004C600F808080808F000203F210101010000E0BB
:1004D6001008080810E0000F18242438504F0008B0
:1004E600F8888888887000203F2000030C302000A0
:1004F600708808080838000038202121221C0018BE
:100506000808F8080818000000203F20000000082E
:10051600F808000008F808001F202020201F000807
:1005260078880000C83808000007380E010000F877
:100536000800F80008F800033C0700073C03000821
:100546001868808068180820302C03032C30200897
:1005560038C800C83808000000203F2000000010FE
:10056600080808C83808002038262120201800006E
:100576000000FE020202000000007F404040000032
:100586000C30C000000000000000010638C000006A
:10059600020202FE000000004040407F0000000012
:1005A6000004020202040000000000000000000037
:1005B6000000000000000080808080808080800035
:1005C600020204000000000000000000000000001D
:1005D600008080808000000019242222223F20080B
:1005E600F8008080000000003F112020110E00005E
:1005F60000008080800000000E11202020110000E5
:100606000000808088F800000E112020103F200096
:1006160000808080800000001F222222221300001A
:100626008080F0888888180020203F202000000065
:1006360000808080808000006B9494949360000812
:10064600F8008080800000203F210000203F20002D
:10065600809898000000000020203F202000000025
:100666000000809898000000C08080807F0000080D
:10067600F8000080808000203F24022D30200000FA
:100686000808F8000000000020203F20200000801D
:1006960080808080808000203F20003F20003F80B7
:1006A60080008080800000203F210000203F200045
:1006B60000808080800000001F202020201F0080F6
:1006C6008000808000000080FFA12020110E000025
:1006D60000008080808000000E112020A0FF808016
:1006E6008080008080800020203F212000010000C3
:1006F6000080808080800000332424242419000098
:100706008080E0808000000000001F202000008024
:1007160080000000808000001F202020103F2080E5
:100726008080000080808000010E30080601008075
:10073600800080008080800F300C030C300F00009A
:10074600808000808080000020312E0E31200080C5
:100756008080000080808080818E701806010000F5
:10076600808080808080000021302C222130000093
:10077600000000807C020200000000003F404000B4
:10078600000000FF00000000000000FF0000000065
:1007960002027C800000000040403F000000000094
:0F07A60006010102020404000000000000000030
:01000A0022D3
:10133F0075F010EBA424C5F582E5F03402F583E5D2
:0C134F00822CF582E43583F583E493FFE3
:10135B00E4FED290C29312000AEF30E704D29280DF
:10136B0002C292D29312000AEF25E0FF0EBE08E2F2
:01137B00224F
:07153700E4FF12153EAF04B2
:10153E00E4FEC290C29312000AEF30E704D292800A
:10154E0002C292D29312000AEF25E0FF0EBE08E20D
:01155E00226A
:04165100AF02AD0136
:10165500EF24B0FF12153EED54F0C4540F4410FFB3
:0A16650012153EED540FFF02153E72
:02158500AD07B0
:10158700E4FCEC24B0FF12153EE4FF12153E7F1079
:1015970012153EE4FBAF0512135B0BBB80F70CBCC7
:0215A70008E05A
:0115A900221F
:0C176200AD077F2012153EAF0502153EBA
:07000300EF44B0FF02153EBF
:1016BE00AD07ED54F0C4540F4410FF12153EED5417
:0516CE000FFF02153EB4
:0C176E00AC077F22121539AF0502153EB2
:0C177A00AC077F21121539AF0502153EA7
:07180000EF4440FF02153E1A
:0C178600AD077F8112153EAF0502153E35
:1016E800AD077F8D12153EED60047F1480027F10D8
:0416F80012153E2267
:0D173B00EF60047FC880027FC012153E22BF
:0D174800EF60047FA180027FA012153E22F9
:0D175500EF60047FA580027FA412153E22E4
:07180700EF44A6FF02153EAD
:0C179200AD077FA812153EAF0502153E02
:07180E00EF44AEFF02153E9E
:0C179E00AD077FD312153EAF0502153ECB
:0C17AA00AD077FD512153EAF0502153EBD
:0C17B600AD077FD912153EAF0502153EAD
:0E172D00AD077FDA12153EED4402FF02153EB5
:0C17C200AD077FDB12153EAF0502153E9F
:05181B007FE302153E11
:10120E00D293C291E4FF0FBF64FCD291E4FF121897
:10121E000E7F801217AA7F3F121792E4FF12179EBD
:10122E00E4FF1218007F011216E87F021217627F88
:10123E00011217487F0112173B7F1012172D7F7F67
:10124E001217867FF11217B67F401217C2E4FF12F3
:10125E001755E4FF1218077F0112180EE4FF02154E
:01126E0085FA
:03140B00240CFDB1
:10140E00EB24E0FCEDD3947A4003E4FD0F12165565
:10141E00E4FDEC75F006A424BFF582E43401F583F7
:0A142E00E5822D1213510DBD06E8F2
:011438002291
:0A137C008F4D8D4E8B4F8A50895122
:10138600E4F552AB4FAA50A95185528275830012DB
:10139600094DFB6011AD4EAF4D12140E7406254E6D
:0613A600F54E055280DD4A
:0113AC00221E
:0A0EE6008F2B8D2C8B2D8A2E892F67
:100EF000E52B25E0F52BE4FCAB2DAA2EA92F8C8247
:100F000075830012094D606124E0FBE52CD39478D1
:100F10004007E4F52C052B052BAD2CAF2B121655F5
:100F2000E4FD75F010EBA424C5F582E5F03401F57D
:100F300083E5822D1213510DBD08E7E52B04FFADAB
:100F40002C1216557D0875F010EBA424C5F582E52A
:100F5000F03401F583E5822D1213510DBD10E774B5
:090F600008252CF52C0C020EF8FA
:010F69002265
:0A0A9D008F2B8D2C8B2D8A2E892FB4
:100AA700E52B25E0F52BE4F531AB2DAA2EA92F85F3
:100AB700318275830012094D7003020BBDE4F530D6
:100AC700F532753301E53090002693FFD3947F40CC
:100AD7003AAB2DAA2EA92F85318275830012094DB5
:100AE700FEEF6E7020853182F583A312094DFFE575
:100AF7003090002793B5070DE53075F010A485F009
:100B070032F53380060530053080BAE52CD3947072
:100B17004007E4F52C052B052BE5336401453260CE
:100B270058AD2CAF2B121655E4F530743F2533F52D
:100B370082740035321213560533E53370020532DD
:100B47000530E530C3941040E2E52B04FFAD2C12CD
:100B57001655E4F530743F2533F5827400353212AB
:100B670013560533E533700205320530E530C3947B
:100B77001040E2053105318034AD2CAF2B121655EC
:100B8700E4F530E4FF12135B0530E530C394104001
:100B9700F2E52B04FFAD2C121655E4F530E4FF12F5
:100BA700135B0530E530C3941040F205317410250E
:060BB7002CF52C020AB02F
:010BBD002215
:0A0FE7008F228D238B248A25892692
:100FF100E4F52AAB24AA25A926852A827583001245
:10100100094DFF6058D3947F40298F27852A827527
:101011008300A312094DF528E4F529FB7A0079270D
:10102100AD23AF22120A9D74102523F523052A054D
:101031002A80C0AB24AA25A926852A82758300129D
:10104100094DF527E4F528FB7A007927AD23AF2276
:0D105100120EE674082523F523052A80966B
:01105E00226F
:060F6A008F46AA05A90351
:100F7000C3E964809480500F7B2D12140EE9F404B1
:100F8000754B00F54C8010AD027B2BAF4612140E52
:100F9000AF01754B008F4CAE4BAF4C7C007D6412A3
:100FA000097A8F82AE4BAF4C7C007D0A12097A7CA5
:100FB000007D0A12097A8C478D48AE4BAF4C7C00FD
:100FC0007D0A12097A8C498D4AEA2406FDAB82AF6C
:100FD0004612140EEAAB48AF4612140BEA2412FD77
:070FE000AB4AAF4602140EFC
:080CDB008F108D118A128B139A
:100CE300C3E5126480948050137B2D12140EC3E469
:100CF3009513FFE49512F51C8F1D800F7B2BAD110F
:100D0300AF1012140E85121C85131DAE1CAF1D7C73
:100D1300277D1012097AAB07AE1CAF1D7C037DE85B
:100D230012097A7C007D0A12097A8C1A8D1BAE1C7B
:100D3300AF1D7C007D6412097A7C007D0A12097A5A
:100D43008C148D15AE1CAF1D7C007D0A12097A7CB4
:100D5300007D0A12097A8C168D17AE1CAF1D7C001C
:100D63007D0A12097A8C188D19E5112406FDAF103E
:100D730012140EE511AB1BAF1012140BE511241264
:100D8300FDAB15AF1012140EE5112418FDAB17AF10
:100D93001012140EE511241EFDAB19AF1002140E30
:0611AB008B3E8A3F8940E3
:1011B100E4F544F545EDD3943F40027D3FE542D34C
:1011C100947F400375427FED131313541FF543EDD4
:1011D100540760020543E4FCECC39543502EAF0471
:1011E100E4FD121655EDC39542501EAB3EAA3FA930
:1011F1004085458285448312094DFF12135B0545E5
:0C120100E545700205440D80DC0C80CC3B
:01120D0022BE
:1013AD00AC077F2E12153E3002047F2780027F2668
:1013BD0012153E121537AF6312153EAF0512153ECD
:0F13CD00E4FF12153E7FFF12153E7F2F02153EE3
:1013DC00AC077F2E12153E3003047F2A80027F2932
:1013EC0012153E121537AF5B12153EAF0512153EA6
:0F13FC00E4FF12153EAF5C12153E7F2F02153E27
:0C17CE00AC077FA3121539AF0502153ED1
:04126F00AA07A9051C
:10127300E9D3947A40030AE4F9EBC3940A501812B1
:101283001651E4FCEB75F006A4241FF582E4340246
:1012930012134C0CBC06EDEBD39409401DEB9410D8
:1012A3005018121651E4FCEB75F006A42449F5829C
:0A12B300E4340212134C0CBC06EDEB
:0112BD00220E
:04105F00AA07A9052E
:10106300EA25E0FAE9D3947840040A0AE4F9EBC3E9
:10107300940A501D121651E4FC12133F0CBC08F9DC
:10108300EA04FFAD011216557C0812133F0CBC1085
:10109300F9EBD39409403CEB94105037121651E40A
:1010A300FC75F010EBA42435F582E5F0340312133C
:1010B3004C0CBC08ECEA04FFAD011216557C087514
:1010C300F010EBA42435F582E5F0340312134C0C35
:0310D300BC10EC62
:0110D60022F7
:10146500D28CD2A9758DFD758BC6D28E308FFDC2FB
:101475008FC28EC2A9C28CD294758DFD758BC6D2D2
:0B1485008E308FFDC28FC28ED29422E9
:10149000D28CD2A9758DFD758BC6D28E308FFDC2D0
:1014A0008FC28EC28CC2A9D294758DF9758B7AD2F7
:0B14B0008E308FFDC28FC28ED29422BE
:1016A700E4FEEF30E7051214908003121465EF256E
:0616B700E0FF0EBE08EC8E
:0116BD00220A
:1014BB00D28CD2A9758DEE758B3AD28E308FFDC240
:1014CB008FC28EC28CC2A9D294758DEE758B3AD217
:0B14DB008E308FFDC28FC28ED2942293
:100DA3008E5D8F5E8C5F8D60D28CAB07AA06E4C329
:100DB3009BFFE49AFE74019400FDE49400FCE4FBC1
:100DC3007A01F9F81212BE8F8DAE5DAF5EAB07AA42
:100DD30006E4C39BFFE49AFE74019400FDE49400CF
:100DE300FCE4FB7A01F9F81212BEAF038F8BD28EAB
:100DF300308FFDC28FC28EC28CC2A9D294AE5FAFB8
:100E030060AB07AA06EA3395E0F9F8C3E49BFFE475
:100E13009AFE740199FDE498FCE4FB7A01F9F81257
:100E230012BE8F8DAE5FAF60AB07AA06EA3395E0C3
:100E3300F9F8C3E49BFFE49AFE740199FDE498FC7E
:100E4300E4FB7A01F9F81212BEAF038F8BD28E3016
:070E53008FFDC28FC28E2249
:1014E600D28CD2A9758DFD758BBCD28E308FFDC284
:1014F6008FC28EC28CD294758DEC758B14D28E30C1
:091506008FFDC28FC28EC2942237
:10170E00538EBF53890FE4F58BF58DC28FC28E2297
:1016D300538E7F5389F0758AF3758CFFC28DC28C4C
:0516E300D2AFD2A922E4
:061439007B1F7D4D7FB218
:10143F00AE07AC031214BB1216A7AF051216A7AF57
:10144F00041216A7AF561216A7AF571216A7AF580A
:06145F001216A70214E6BC
:0618150012170E0216D3AB
:10161100D2A97556E07557487558B71214397556E1
:10162100E07557487558B77FB212143FC2A9C294EA
:011631002296
:1015AA00AA07D2A97556E08A57EAF4F558121439EF
:1015BA007556E08A57EAF4F5587FB212143FC2A969
:0315CA00C29422A6
:03000B00021820B8
:03182000B294324D
:1016FC000010302060705040C0D09080A0B0080026
:02170C00040CCB
:06001C00011E00011F009F
:1015CD00E51ED3940D4005751E0D8002051EE51E0A
:1015DD009016FC93FFE51F25E025E042075307FC1D
:0315ED000215AA3A
:10163200E51E7004F51E8002151EE51E9016FC9331
:0F164200FFE51F25E025E042075307FC0215AA2C
:10166F00051FE51FD394034003E4F51FE51E9016F5
:0E167F00FC93FFE51F90170A9342070215AA7D
:100E66000207B5E493A3F8E493A34003F68001F2E6
:100E760008DFF48029E493A3F85407240CC8C3338D
:100E8600C4540F4420C8834004F456800146F6DF5C
:100E9600E4800B010204081020408090000EE47EDE
:100EA600019360BCA3FF543F30E509541FFEE49351
:100EB600A360010ECF54C025E060A840B8E493A318
:100EC600FAE493A3F8E493A3C8C582C8CAC583CA43
:100ED600F0A3C8C582C8CAC583CADFE9DEE780BEFB
:0100220000DD
:10093400BB010689828A83E0225002E722BBFE02C1
:09094400E32289828A83E49322F4
:10094D00BB010CE58229F582E5833AF583E022505F
:10095D0006E92582F8E622BBFE06E92582F8E222A9
:0D096D00E58229F582E5833AF583E49322C3
:10097A00BC000BBE0029EF8DF084FFADF022E4CC61
:10098A00F875F008EF2FFFEE33FEEC33FCEE9DEC2A
:10099A00984005FCEE9DFE0FD5F0E9E4CEFD22ED70
:1009AA00F8F5F0EE8420D21CFEADF075F008EF2FBA
:1009BA00FFED33FD4007985006D5F0F222C398FDAB
:0509CA000FD5F0EA2248
:1012BE00C2D5E830E70FB2D5E4C39BFBE49AFAE45B
:1012CE0099F9E498F8EC30E717B2D51212F4120A35
:1012DE000BE4C39BFBE49AFAE499F9E498F88003D3
:1012EE00120A0B30D50DE4C39FFFE49EFEE49DFD74
:0412FE00E49CFC224E
:1009CF0075F008758200EF2FFFEE33FECD33CDCCDF
:1009DF0033CCC58233C5829BED9AEC99E582984062
:1009EF000CF582EE9BFEED9AFDEC99FC0FD5F0D63F
:1009FF00E4CEFBE4CDFAE4CCF9A88222B800C1B969
:100A0F000059BA002DEC8BF084CFCECDFCE5F0CBA6
:100A1F00F97818EF2FFFEE33FEED33FDEC33FCEBDF
:100A2F0033FB10D703994004EB99FB0FD8E5E4F99A
:100A3F00FA227818EF2FFFEE33FEED33FDEC33FC87
:100A4F00C933C910D7059BE99A4007EC9BFCE99A7B
:100A5F00F90FD8E0E4C9FAE4CCFB2275F010EF2FC0
:100A6F00FFEE33FEED33FDCC33CCC833C810D707C0
:100A7F009BEC9AE899400AED9BFDEC9AFCE899F8FB
:0E0A8F000FD5F0DAE4CDFBE4CCFAE4C8F9228E
:00000001FF
