:020000040800F2
:1000000030120020F1080008ED020008EF0200089D
:10001000F3020008F7020008FB02000800000000DD
:10002000000000000000000000000000FF020008C7
:100030000103000800000000030300080503000896
:100040000B0900080B0900080B0900080B09000840
:100050000B0900080B0900080B0900080B09000830
:100060000B0900080B0900080B0900080B09000820
:100070000B0900080B0900080B0900080B09000810
:100080000B0900080B0900080B0900080B09000800
:100090000B0900080B0900080B0900080B090008F0
:1000A0000B0900080B0900080B0900080B090008E0
:1000B000155700080B0900080B0900080B09000878
:1000C0000B0900080B0900080B0900080B090008C0
:1000D0000B0900081B2F00084B2F0008C52F000834
:1000E0000B0900080B0900080B0900080B090008A0
:1000F0000B0900080B0900080B0900080B09000890
:100100000B0900080B0900080B0900080B0900087F
:100110000B0900080B0900080B0900080B0900086F
:100120000B0900080B0900080B0900080B0900085F
:1001300000F002F800F068F80AA090E8000C824491
:100140008344AAF10107DA4501D100F05DF8AFF26E
:10015000090EBAE80F0013F0010F18BFFB1A43F0A5
:10016000010318477CB800009CB800000A444FF017
:10017000000C10F8013B13F0070408BF10F8014B06
:100180001D1108BF10F8015B641E05D010F8016B4B
:10019000641E01F8016BF9D113F0080F1EBF10F8AF
:1001A000014BAD1C0C1B09D16D1E58BF01F801CBD2
:1001B000FAD505E014F8016B01F8016B6D1EF9D555
:1001C0009142D6D37047000000230024002500266A
:1001D000103A28BF78C1FBD8520728BF30C148BFAA
:1001E0000B607047642907F02180002070471FB51D
:1001F00007F0AEF904000020002107F049FA401C86
:1002000060601FBD10B510BD07F0C6F91146FFF7BD
:10021000EEFF00F01BF807F0E4F903B4FFF7F2FF7C
:1002200003BC02F07BFD000010B505F06DFA4FF441
:10023000165002F07CFD1B21244807F0C7F804F09B
:1002400073FE03F0C6FE03F084FE10BD05F003FD4F
:100250001F4803881F4802880021084605F056FD04
:1002600000214FF6FF7006F0E7FAFFF7DDFF02F01E
:10027000EBFC4FF4E13002F0AAFD4FF4E13002F064
:10028000F8FD00F03CF902F0A5FF02F0C9FF06F00E
:1002900056FB1AE02021104800F0B1FFA8B90F4B1F
:1002A00002220721032000F067FA0D480078012898
:1002B00008D100200A4908700AA000F038F903F0BC
:1002C00037F902E0002000F0FEF9E3E72E060020F7
:1002D000EE010020EC010020000801400000002099
:1002E000ED000020B4A6C0EDD6D00000704700BFDE
:1002F000FEE700BFFEE700BFFEE700BFFEE7704776
:1003000070477047704700000CB5002001900090C6
:100310006C48006840F480306A49086000BF694852
:10032000006800F4003000900198401C0190009893
:1003300018B90198B0F5A06FF1D16248006800F4D7
:10034000003010B10120009001E0002000900098E2
:10035000012843D15C48006840F010005A49086009
:100360000846006820F0030008600846006840F076
:100370000200086053484068524948600846406897
:1003800048600846406840F480604860084640681D
:1003900020F47C1048600846406840F4E81048604B
:1003A0000846006840F08070086000BF454800685B
:1003B00000F000700028F9D04248406820F00300A7
:1003C000404948600846406840F00200486000BF6D
:1003D0003C48406800F00C000828F9D10CBD10B56D
:1003E000FFF792FF10BD10B53648006840F00100DD
:1003F000344908600846406834490840314948603B
:1004000008460068324908402E49086008460068DE
:1004100020F4802008600846406820F4FE00486010
:100420004FF41F008860FFF7DAFF4FF000602949A2
:10043000086010BD10B5002100200022214B5B6830
:1004400003F00C0121B1042906D0082928D107E0C6
:10045000214B224C236027E01F4B204C236023E0DC
:10046000184B5B6803F47010164B5B6803F4803222
:10047000022303EB904022B9194B4343174C2360EE
:100480000DE0104B5B6803F4003323B1144B43437E
:10049000124C236003E0104B4343104C236003E0F5
:1004A0000D4B0E4C236000BF00BF064B5B68C3F3CF
:1004B00003130C4CE15C094B1B68CB40074C2360D9
:1004C00010BD000000100240002002400000FFF8B4
:1004D000FFFFF6FE08ED00E000127A001800002091
:1004E00000093D001C000020002000BF04E00021A6
:1004F000E44A1154411CC8B20C28F8DB70470EB511
:10050000E1A207CA8DE807000A226946E14802F025
:10051000B1FD0020E049087000BFDF4800780028E6
:10052000FBD00020DC490870FFF7DEFF0EBD7CB574
:100530000546DA48007848BB284606F0B1FE84B28A
:10054000FD208DF8000000208DF80100A01CC0B235
:100550008DF8020001208DF8030000208DF80400C2
:100560000521684602F012FE2146284602F00EFEE2
:100570008C2002F0A6FB03F0ECFC01E003F0E9FCA8
:100580002021C74800F03BFE0128F7D07CBD7CB598
:100590000446C4480678C449496851F8240006F066
:1005A0007FFE85B2FD208DF8000000208DF801004F
:1005B000A81CC0B28DF8020061208DF80300002055
:1005C0008DF804000521684602F0E0FDB64949684F
:1005D00051F82400294602F0D9FD2AE003F0B9FCC5
:1005E00002F044FEAF480078864222D0AD4806783B
:1005F000AD49496851F8260006F052FE85B2A81CA4
:10060000C0B28DF802000521684602F0BFFDA64980
:10061000496851F82600294602F0B8FD00209E499D
:10062000087000BF9C4800780028FBD000209A4941
:10063000087020219A4800F0E2FD0128CED09748AA
:1006400000780028CAD1954908707CBD1CB50446C5
:10065000FD208DF8000000208DF8010002208DF8AB
:10066000020010208DF803008DF8044000208F490F
:10067000C8700521684602F089FD04218C4802F00B
:1006800095FD8B48C07841280CD10321884802F0A1
:100690008DFD87480078FC2804D1854881788348FF
:1006A00002F084FD1CBD10B504467648007A1A2875
:1006B00008DA7D4951F82410724A127A51F8220062
:1006C000FFF735FF10BD10B504466E48C078C01E58
:1006D000052815D2DFE800F003070B100C0075A009
:1006E000FFF725FF0CE076A0FFF721FF08E000BF31
:1006F00076A0FFF71CFF03E077A0FFF718FF00BF0D
:1007000000BF10BD08B5FD208DF8000000208DF859
:10071000010001208DF8020011208DF80300042152
:10072000684602F033FD08BD1CB50446FD208DF877
:10073000000000208DF8010002208DF802005120F9
:100740008DF803008DF804400521684602F01EFD77
:100750000421574802F02AFD5548C07841280AD1A3
:100760000421534802F022FD5148C078212802D1CB
:1007700001205D4908701CBD2DE9F04399B0804609
:10078000894616461F46FD208DF8000015208DF87D
:1007900003008DF804808DF805908DF8066056B939
:1007A00000208DF8010004208DF802000721684622
:1007B00002F0ECFC20E001208DF80700384606F03E
:1007C0006FFD85B200208DF80100681DC0B28DF864
:1007D0000200002406E0395D04F108000DF8001065
:1007E000601C84B2AC42F6DBFFF77EFE05F1080028
:1007F00081B2684602F0CAFC00BF27480078002892
:10080000FBD00020244908701E48C078412817D129
:10081000FFF76AFE03E002F029FD03F09AFB1E4891
:1008200000780028F7D000201B4908701548007890
:10083000FC2805D11348C078012801D12A49087045
:1008400019B0BDE8F08308B5FD208DF80000002048
:100850008DF8010001208DF8020021208DF80300A1
:100860000421684602F092FC0421114802F09EFC2B
:100870000F48C078412803D104211C4802F096FC9F
:1008800008BD000022060020FD00071E020FA00F79
:10089000A0030000004800403F0100205C01002050
:1008A0000008014054010020C40000203000002056
:1008B0002C000020BEB2D2F4B3ACCAB100000000DC
:1008C000D3EFD2F4B3ACCAB100000000D2AACBB5CA
:1008D000C7E5B3FEB5E30000CAB6B1F0C4DAB2BFF3
:1008E000B4EDCEF300000000ED0000203600002043
:1008F0000948804709480047FEE7FEE7FEE7FEE7B4
:10090000FEE7FEE7FEE7FEE7FEE7FEE704480549EF
:10091000054A064B70470000E70300083101000854
:10092000300C002030120020300E0020300E00204D
:1009300031490143314A1160704770B500210023ED
:100940000F22C47804B32D4C246804F4E064C4F589
:10095000E064210AC1F10403CA40447804FA03F1B7
:100960008478144021430901254C0678A155047868
:1009700004F01F050124AC4005786D11AD0005F1B0
:10098000E025C5F8004109E0047804F01F050124C2
:10099000AC401C4D0678761145F8264070BD1A4AC9
:1009A0000A400243154B1B1F1A60704739B1134AA6
:1009B000121D12680243114B1B1D1A6006E00F4AFC
:1009C000121D126882430D4B1B1D1A6070470428CC
:1009D00008D14FF0E021096941F004014FF0E02215
:1009E000116107E04FF0E021096921F004014FF0A7
:1009F000E0221161704700000000FA050CED00E0F4
:100A000000E400E080E100E080FFFF1F30B943F226
:100A1000DB028100A1F1C0410A6005E043F2D2028D
:100A20008100A1F1C0410A606FF07042411C890051
:100A3000A1F1C0410A608100A1F1C041C1F80421C7
:100A4000704710280AD118214FF02042116640212A
:100A500051664FF0FC319166D16610E01821F74ADB
:100A6000116040214FF02042C2F884104FF0FC3159
:100A7000F24A083211604FF02042C2F88C107047E1
:100A80001820EE492031086000200906C1F8A400B2
:100A90004FF0FC30E94928310860091D0860091D44
:100AA00008607047D0E901121143C268114302691E
:100AB00011434269114382691143C2691143026AB9
:100AC0001143426A1143826A1143C26A1143026BA5
:100AD000114302689200A2F1C042116081680829A6
:100AE0000BD101688900A1F1C041096841F04002C1
:100AF00001688900A1F1C0410A60416B0968426B3D
:100B0000526841EA0211426B926841EA0221426B4B
:100B1000928941EA0241426B128A41EA0251426BD8
:100B2000127D41EA0261426B926911430268521CD4
:100B30009200A2F1C0421160C16AB1F5804F1BD191
:100B4000816B0968826B526841EA0211826B92687C
:100B500041EA0221826B128A41EA0251826B127DC4
:100B600041EA0261826B9269114302689200A2F12C
:100B7000C042C2F8041107E06FF0704201688900BA
:100B8000A1F1C041C1F80421704730B50021002215
:100B90000023446844F0080485682C43C5682C434E
:100BA00005692C43456944EA4524856944EA453191
:100BB000C4692468C5696D6844EA0524C5692D893E
:100BC00044EA0544C5692D7B44EA0562046A246849
:100BD000056A6D6844EA0524056A2D8944EA0544DE
:100BE000056A2D7B44EA05630468102C05D14FF09B
:100BF00020442166A266E36608E0904C21604FF035
:100C00002044C4F888208D4C0C34236030BD01682A
:100C100041F01001426841EA4221826841EA4231D2
:100C2000864A20321160C1680968C268526841EA88
:100C30000221C268128941EA0241C268127B41EA7C
:100C400002617E4A283211600169096802695268AE
:100C500041EA02210269128941EA02410269127BDA
:100C600041EA0261754A2C321160416909684269A2
:100C7000526841EA02214269128941EA024142690D
:100C8000127B41EA02614FF02042C2F8B010704777
:100C9000002101600221416000218160C160016189
:100CA00041618161C16101624FF48051416249003B
:100CB00081620021C16201630F21426B1160426BAE
:100CC0005160FF21426B91600F21426BD160426BFA
:100CD0001161426B51610021426B91610F21826B66
:100CE0001160826B5160FF21826B91600F21826BDA
:100CF000D160826B1161826B51610021826B9161C5
:100D0000704710210160002141608160C160016174
:100D100041618161FC21C2691160C2695160C2698F
:100D20009160C269D160026A1160026A5160026A10
:100D30009160026AD160704700210160416081606A
:100D4000FC21C2681160C2685160C2689160C268CB
:100D5000D1600269116002695160026991600269A3
:100D6000D160426911604269516042699160426993
:100D7000D160704751B18200A2F1C042126842F0C6
:100D800001038200A2F1C042136009E08200A2F1D7
:100D9000C04212682A4B1A408300A3F1C0431A6074
:100DA000704799B1102808D14FF02042126E42F0DE
:100DB00004024FF020431A661DE0204A126842F0F8
:100DC00004024FF02043C3F8802014E0102809D11A
:100DD0004FF02042126E1A4BDB1E1A404FF0204398
:100DE0001A6608E0154A1268154BDB1E1A404FF0D0
:100DF0002043C3F88020704748B11049203109686A
:100E000041F004014FF02042C2F8A01009E00B4964
:100E1000203109680A4AD21E11404FF02042C2F820
:100E2000A0107047B9B110280CD14FF02042126EBB
:100E300042F040024FF020431A661FE0800000A0FD
:100E4000FEFF0F00724A126842F040024FF020434A
:100E5000C3F8802012E0102808D14FF02042126E13
:100E60006C4B1A404FF020431A6607E0684A12683C
:100E7000684B1A404FF02043C3F88020704701466A
:100E80000020102903D14FF02042506F02E0604A49
:100E900014321068704710B5F2B1102807D14FF026
:100EA00020435B6E0B434FF02044636632E0B0F5A5
:100EB000807F08D1564B1B1D1B680B434FF020440D
:100EC000C4F8843026E0524B24331B680B434FF0A8
:100ED0002044C4F8A4301DE0102807D14FF020436F
:100EE0005B6E8B434FF02044636613E0B0F5807F68
:100EF00008D1474B1B1D1B688B434FF02044C4F89F
:100F0000843007E0424B24331B688B434FF020446E
:100F1000C4F8A43010BD10B5024600200023102AEA
:100F200003D14FF02044636E09E0B2F5807F03D116
:100F3000374C241D236802E0354C2434236803EA2F
:100F400001040CB1012000E0002010BD102807D1E1
:100F50004FF02042526E8A434FF020435A6613E00E
:100F6000B0F5807F08D12A4A121D12688A434FF0DB
:100F70002043C3F8842007E0254A243212688A43BC
:100F80004FF02043C3F8A420704770B502460020FC
:100F9000002300240025102A03D14FF02046736E51
:100FA00009E0B2F5807F03D1194E361D336802E0A7
:100FB000174E2436336803EA010403EAD10514B15D
:100FC0000DB1012000E0002070BD102808D14FF0C5
:100FD0002042526E22EAD1024FF020435A6615E0B9
:100FE000B0F5807F09D10A4A121D126822EAD102A7
:100FF0004FF02043C3F8842008E0054A24321268E9
:1010000022EAD1024FF02043C3F8A4207047000029
:10101000800000A0BFFF0F0010B50446CC488442FA
:1010200008D10121042000F02DFB0021042000F054
:1010300029FB46E0C748844208D10121082000F07E
:1010400021FB0021082000F01DFB3AE0C248844249
:1010500008D10121102000F015FB0021102000F024
:1010600011FB2EE0BD48844208D10121202000F070
:1010700009FB0021202000F005FB22E0B848844253
:1010800008D10121402000F0FDFA0021402000F0AD
:10109000F9FA16E0B348844208D10121802000F01B
:1010A000F1FA0021802000F0EDFA0AE0AE48844217
:1010B00007D10121801500F0E5FA0021A01500F00C
:1010C000E1FA10BD10B50121084600F0DBFA00215D
:1010D000012000F0D7FA10BD2DE9F04102460025AD
:1010E0000026002000230024002791F803C00CF004
:1010F0000F0591F803C00CF0100CBCF1000F03D0E9
:1011000091F802C04CEA050591F800C0BCF1000F4F
:1011100031D0146800202BE04FF0010C0CFA00F3E2
:10112000B1F800C00CEA03069E4220D183004FF0C4
:101130000F0C0CFA03F7BC4305FA03FC4CEA040459
:1011400091F803C0BCF1280F06D14FF0010C0CFA46
:1011500000FCC2F814C00AE091F803C0BCF1480FCB
:1011600005D14FF0010C0CFA00FCC2F810C0401C75
:101170000828D1D31460B1F800C0BCF1FF0F34DDF2
:10118000546800202EE000F1080C4FF0010808FA26
:101190000CF3B1F800C00CEA03069E4221D1830093
:1011A0004FF00F0C0CFA03F7BC4305FA03FC4CEAB2
:1011B000040491F803C0BCF1280F05D100F1080C1C
:1011C00008FA0CF8C2F8148091F803C0BCF1480F7B
:1011D00007D100F1080C4FF0010808FA0CF8C2F82A
:1011E0001080401C0828CED35460BDE8F0814FF633
:1011F000FF710180022181700421C1707047024695
:10120000002093680B400BB1012000E000207047E4
:101210000146886880B2704702460020D3680B40C0
:101220000BB1012000E0002070470146C86880B281
:10123000704701617047416170470AB1016100E088
:1012400041617047C16070474FF480320A43826148
:101250008161826182698269704702460020434B46
:1012600018684FF68073184040EA021008433F4B5D
:10127000186070473E49C8617047F0B50A460023C0
:1012800000240021002500F00046B6F1004F02D1F5
:10129000364EF16901E0354E7168C0F3034583B203
:1012A00000F44016B6F5401F08D121F070612F4EB2
:1012B000766826F070662D4F7E6012E000F480168E
:1012C000B6F5801F06D1032606FA05F4A14341F0C6
:1012D000706106E0460D360103FA06F6B14341F0AF
:1012E000706122B1460D360103FA06F6314300F073
:1012F0000046B6F1004F02D11C4EF16101E01B4ED9
:101300007160F0BD30B500228B071C0F0F2303FA6C
:1013100004F2164B08338C1053F824309343134CCB
:1013200008348D1044F8253023468C1053F82430AF
:101330008C07240F00FA04F423430C4C08348D105E
:1013400044F8253030BD0A49DC31086070470000A0
:1013500000080140000C0140001001400014014051
:1013600000180140001C0140002001400000014025
:1013700000002042DF48006840F00100DD490860BD
:1013800008464068DC490840DA4948600846006879
:10139000DA490840D74908600846006820F48020F0
:1013A00008600846406820F4FE0048604FF41F00C3
:1013B00088607047CF49096821F48031CD4A1160B7
:1013C0001146096821F480211160B0F5803F03D0F7
:1013D000B0F5802F0ED106E0C649096841F480318E
:1013E000C44A116007E0C349096841F4A021C14A19
:1013F000116000E000BF00BF704710B50146002239
:10140000002300204A11012A02D1BA4C236806E0C9
:10141000022A02D1B74C236A01E0B64C636A01F09C
:101420001F02012494401C400CB1012000E0002068
:1014300010BD38B5002000900024002500BF3120E9
:10144000FFF7DBFF05460098401C00900098B0F5C0
:10145000A06F01D0002DF2D03120FFF7CEFF08B1F0
:10146000012400E00024204638BD01460020A14AA6
:10147000106820F0F80040EAC10010607047A049F1
:1014800008607047024600209A4B586820F47C1090
:1014900042EA01031843974B586070479849086621
:1014A000704701460020934A506820F0030008432B
:1014B000506070478F48406800F00C00704701464C
:1014C00000208C4A506820F0F000084350607047BC
:1014D00001460020874A506820F4E06008435060CD
:1014E000704701460020834A506820F4605040EA6B
:1014F000C1005060704729B17E4A527A02437D4B49
:101500005A7204E07B4A527A82437A4B5A7270478D
:101510007B49D8310860704701460020754A506801
:1015200020F440400843506070470021714A203247
:101530001170704A82F82010012802D004280AD1C4
:1015400004E001216B4A2032117005E00521694A4F
:101550002032117000E000BF00BF70476949086089
:1015600070476449096A0143624A116270476549DC
:1015700044390860704730B5002100220024002360
:101580005C4D6D6805F00C0121B1042905D00829D6
:1015900023D105E05C4D056022E05B4D05601FE056
:1015A000544D6D6805F47012524D6D6805F4803429
:1015B000022505EB92421CB9544D554305600BE0E2
:1015C0004C4D6D6805F400351DB1504D5543056017
:1015D00002E04D4D5543056002E04B4D056000BFF4
:1015E00000BF444D6D6805F0F0010909484D6B5C82
:1015F0000568DD4045603F4D6D6805F4E061090A0E
:10160000434D6B5C4568DD4085603A4D6D6805F47F
:101610006051C90A3E4D6B5C4568DD40C560354D83
:101620006D6805F44041890B3A4D6B5CC568B5FBAC
:10163000F3F5056130BD29B12E4A526902432D4BA5
:101640005A6104E02B4A526982432A4B5A6170471F
:1016500029B1284A92690243264B9A6104E0254A3F
:1016600092698243234B9A61704729B1214AD2691A
:101670000243204BDA6104E01E4AD26982431D4BCB
:10168000DA61704729B11B4AD2680243194BDA600C
:1016900004E0184AD2688243164BDA60704729B1D9
:1016A000144A12690243134B1A6104E0114A126989
:1016B0008243104B1A6170471249403908607047E5
:1016C0000F49C86470470B49C87170470948406AA0
:1016D00040F0807007494862704701460020054A83
:1016E00092680A400AB1012000E0002070470149D9
:1016F00088727047001002400000FFF8FFFFF6FEFE
:10170000000042428004424200127A0000093D007B
:10171000EE000020FE00002010B50446BE488442C2
:1017200008D101218014FFF7ADFF0021A014FFF7BD
:10173000A9FF16E0B948844208D101210014FFF73F
:10174000AEFF00212014FFF7AAFF0AE0B44884424C
:1017500007D10121C013FFF7A2FF0021E013FFF71B
:101760009EFF10BD10B50022028802F441520B8882
:101770004C8823438C882343CC8823430C89234300
:101780004C8923438C892343CC8923431A43028009
:10179000838B4FF2FF74234083830B8A038210BD37
:1017A0002DE9F04F85B005460C464FF000090227A1
:1017B0004FF000084FF0010B0026B246A88B4FF205
:1017C00040010840A88302202884B5F81C90A06836
:1017D000022801D100BF38E0A08810B94FF0010BFA
:1017E00001E04FF0020B8D48854200D100E000BFC0
:1017F0006846FFF7C0FEDDF800A0E088B0F5007F86
:101800000AD14FEA1A2000EB80004000A168B0FB2B
:10181000F1F0401D86B20BE04FEA4B10BAFBF0F03E
:1018200000EB80004000A168B0FBF1F0401D86B2E3
:101830000A20B6FBF0F606F00108A6EB0800C0F39C
:101840004F074FF6FF7000EA0828022F01DBFF2F39
:1018500002DD02274FF00008E08840EA0800384324
:101860002884A088A1890843618808432188084307
:1018700040F4006040EA0909A5F81C9005B0BDE8F5
:10188000F08F0021018041808180C18001814181F0
:101890008181C1810721018270470021018041803F
:1018A0008180C1800221816000218181704721B146
:1018B000028842F04002028004E002884FF6BF73C3
:1018C0001A400280704721B1828B42F48062828389
:1018D00004E0828B4FF6FF331A408283704730B5A5
:1018E000002400230C110125A540ABB21AB1858854
:1018F0001D43858002E085889D43858030BD1AB1F7
:1019000083880B43838002E083888B438380704706
:10191000818170470146888970474FF6FF62914286
:1019200004D0028842F48072028004E002884FF6FC
:10193000FF631A400280704721B1828842F004029E
:10194000828004E082884FF6FB731A4082807047E1
:1019500002884FF2FF731A40028002880A43028015
:101960007047018841F480510180704721B102889D
:1019700042F40052028004E002884DF6FF731A40E0
:101980000280704702460020012901D0108B00E040
:10199000908A70470146088A7047B1F5804F04D19C
:1019A000028842F48042028004E002884BF6FF7312
:1019B0001A40028070470246002013890B400BB189
:1019C000012000E000207047CA4302817047F0B553
:1019D0000246002000240023002501F00F07012605
:1019E000BE40B4B20B1101269E40B3B2968806EAFF
:1019F00003051689264016B10DB1012000E0002034
:101A0000F0BD10B5002201F00F040123A3409AB2EB
:101A1000D343038110BD0000003001400038004076
:101A2000003C004010B50446FE48844208D1012124
:101A3000C014FFF727FE0021E014FFF723FEC4E0E7
:101A4000B4F1804F08D101210846FFF728FE00219C
:101A50000120FFF724FEB8E0F348844208D10121B9
:101A60000220FFF71CFE00210220FFF718FEACE069
:101A7000EE48844208D101210420FFF710FE002126
:101A80000420FFF70CFEA0E0E948844208D10121C0
:101A90000820FFF704FE00210820FFF700FE94E075
:101AA000E448844208D101211020FFF7F8FD00210D
:101AB0001020FFF7F4FD88E0DF48844208D10121BF
:101AC0002020FFF7ECFD00212020FFF7E8FD7CE05F
:101AD000DA48844208D101214014FFF7D3FD0021E8
:101AE0006014FFF7CFFD70E0D548844209D1012191
:101AF000C804FFF7C7FD00214FF40020FFF7C2FD27
:101B000063E0D048844209D101210805FFF7BAFDFE
:101B100000214FF48010FFF7B5FD56E0CA4884421B
:101B200009D101214805FFF7ADFD00214FF4001058
:101B3000FFF7A8FD49E0C548844208D101214020B3
:101B4000FFF7ADFD00214020FFF7A9FD3DE0C048B3
:101B5000844208D101218020FFF7A1FD00218020CF
:101B6000FFF79DFD31E0BB48844208D1012180157B
:101B7000FFF795FD0021A015FFF791FD25E0B64880
:101B8000844209D101210804FFF77CFD00214FF4B4
:101B90008030FFF777FD18E0B048844209D1012179
:101BA0004804FFF76FFD00214FF40030FFF76AFD96
:101BB0000BE0AB48844208D101218804FFF762FDA5
:101BC00000214FF48020FFF75DFD10BD0022028848
:101BD000944B98420ED0994B98420BD0B0F1804F65
:101BE00008D0914B984205D0904B984202D0904B30
:101BF000984204D14FF68F731A404B881A438D4B8D
:101C0000984207D08C4B984204D04FF6FF431A40BD
:101C1000CB881A4302808B8883850B880385814B90
:101C200098420BD0854B984208D08B4B984205D0F8
:101C30008A4B984202D08A4B984201D10B7A038694
:101C400001238382704770B5002400220023058C95
:101C50004FF6FE7635400584028C8388048B4FF660
:101C60008F752C40B51E2C400D882C43751E2A40C4
:101C70000D892A434D882A436A4DA8420BD06F4DE7
:101C8000A84208D0744DA84205D0744DA84202D095
:101C9000734DA84213D14FF6F7752A404D892A4358
:101CA0004FF6FB752A408D882A434FF6FF652B407F
:101CB0004FF6FF552B408D892B43CD892B438380D5
:101CC0000483CD888586028470BD70B5002400220F
:101CD0000023058C4FF6EF7635400584028C83880F
:101CE000048B48F6FF752C404FF6FF452C400D88BD
:101CF0004FF6FF7606EA05252C434FF6DF752A409E
:101D00000D8906EA05152A434D8806EA05152A437A
:101D1000444DA84202D0494DA8421DD14FF67F75CF
:101D20002A404D894FF6FF7606EA05152A434FF6FD
:101D3000BF752A408D8806EA05152A434FF6FF3500
:101D40002B404FF2FF752B408D8906EA85052B430A
:101D5000CD8906EA85052B4383800483CD880587DA
:101D6000028470BD70B5002400220023058C4FF65C
:101D7000FF6635400584028C8388848B4FF68F750F
:101D80002C404FF6FC752C400D882C434FF6FF5528
:101D90002A400D894FF6FF7606EA05252A434D882D
:101DA00006EA05252A431F4DA84202D0234DA8422A
:101DB0001DD14FF2FF752A404D894FF6FF7606EA96
:101DC00005252A434FF6FF352A408D8806EA05256A
:101DD0002A434EF6FF752B404DF6FF752B408D893B
:101DE00006EA05152B43CD8906EA05152B438380AA
:101DF0008483CD888587028470BD70B5002200235E
:101E00000024058C4EF6FF7635400584038C8488CB
:101E1000828B48F6FF752A404FF6FF452A400D8811
:101E200020E00000002C01400004004000080040B9
:101E3000000C00400010004000140040003401403D
:101E4000004C014000500140005401400018004087
:101E5000001C0040002000400040014000440140C0
:101E6000004801404FF6FF7606EA05252A434DF665
:101E7000FF752B400D8906EA05352B434D8806EA90
:101E800005352B43FA4DA84202D0FA4DA84208D19D
:101E90004BF6FF752C408D894FF6FF7606EA8515C7
:101EA0002C4384808283CD88A0F84050038470BD89
:101EB000828B4FF2FF331A408283828B4FF6FF737F
:101EC00003EA01231A4382837047F0B50C46154696
:101ED000002200210026078C4EF6FF7C07EA0C0743
:101EE0000784828B018C4FF6FF7707EA043640F6B1
:101EF000FF473A404FF6FF7707EA05273A434FF688
:101F0000FF7707EA03373A43D94FB8420ED0D94F8B
:101F1000B8420BD0B0F1804F08D0D74FB84205D0AF
:101F2000D64FB84202D0D64FB84206D14DF6FF7711
:101F3000394046F48057394305E047F6FF573940AA
:101F400044F48057394382830184F0BD828B4FF67D
:101F5000F3731A408283828B0A4382837047F0B501
:101F60000C461546002200210026078C4FF6FF6C18
:101F700007EA0C070784828B018C4FF6FF7707EA8C
:101F800004264FF60C773A404FF6FF7707EA03171F
:101F90002F433A43B64FB8420ED0B64FB8420BD09B
:101FA000B0F1804F08D0B44FB84205D0B34FB8421B
:101FB00002D0B34FB84206D14FF6FF57394046F42E
:101FC0008077394305E04FF2FF57394044F480777A
:101FD000394382830184F0BD028B4FF2FF331A40F4
:101FE0000283028B4FF6FF7303EA01231A43028335
:101FF0007047F0B50C461546002200210026078CDC
:102000004FF6EF7C07EA0C070784028B018C4FF632
:10201000FF7707EA041640F6FF473A404FF6FF778E
:1020200007EA03373A434FF6FF7707EA05273A43B3
:102030008F4FB8420ED08F4FB8420BD0B0F1804FC7
:1020400008D08D4FB84205D08C4FB84202D08C4F8B
:10205000B84206D14FF6DF77394046F010073943D2
:1020600005E04FF65F77394044F0100739430283AB
:102070000184F0BD028B4FF6F3731A400283028B8A
:102080000A4302837047F0B50C4615460022002132
:10209000068C4FF6FE773E400684028B018C4FF68D
:1020A0000C7632407E1C06EA03162E433243704EF5
:1020B000B0420ED06F4EB0420BD0B0F1804F08D07E
:1020C0006D4EB04205D06D4EB04202D06C4EB04263
:1020D00006D14FF6FD76314044F00106314305E06C
:1020E0004FF6F576314044F0010631430283018416
:1020F000F0BD70B505460C465D4885420ED05D4882
:1021000085420BD0B5F1804F08D05B48854205D0A1
:102110005A48854202D05A48854200D100E000BFAB
:10212000208850B92389A28861882846FFF7ABFF31
:10213000E1882846FFF79EFF25E0208804280AD181
:102140002389A28861882846FFF753FFE188284643
:10215000FFF742FF17E0208808280AD12389A288C8
:1021600061882846FFF7FBFEE1882846FFF7EEFE70
:1021700009E02389A28861882846FFF7A6FEE18846
:102180002846FFF795FE70BD2DE9F04105460C4647
:1021900000260127608808B9022600E00026A088F2
:1021A000012801D1022700E001272088A0B9238956
:1021B000A28861882846FFF766FFE1882846FFF776
:1021C00059FF23893A4631462846FFF712FFE18836
:1021D0002846FFF701FF13E02389A288618828467B
:1021E000FFF707FFE1882846FFF7F6FE23893A4606
:1021F00031462846FFF747FFE1882846FFF73AFFB8
:10220000BDE8F0810A884B881A438B881A43CB8833
:102210001A430B891A434B891A438B891A43A0F836
:10222000442070474FF6FF71818000210180C180FA
:102230004180017270470021018041808180C1800E
:10224000018141818181C1817047002101804180EC
:10225000012181800021C18001817047002101801E
:1022600041808180C180018141818181704700006E
:10227000002C0140003401400004004000080040F0
:10228000000C004021B1028842F00102028004E00B
:1022900002884FF6FE731A400280704731B1B0F8E1
:1022A000442042F40042A0F8442005E0B0F8442065
:1022B000C2F30E02A0F8442070471AB183890B4381
:1022C000838102E083898B438381704781827047D9
:1022D00041EA0203A0F8483070471AB183890B43E2
:1022E000838102E083898B438381704701894FF6A4
:1022F000F8721140018170470A46002101894FF6AA
:102300008F73194011430181704730B504460D4663
:1023100029462046FFF7F0FF208940F00700208182
:1023200030BD2DE9F04104460D4616461F46602D8E
:1023300006D13B46012231462046FFF75AFE05E012
:102340003B46012231462046FFF79DFE29462046A6
:10235000FFF7D2FF208940F007002081BDE8F0811F
:1023600030B50C4600210189C9B24FF6FF7505EA68
:102370000325154325432943018130BD2DE9F04153
:1023800005460E4617469846002443463A463146CF
:102390002846FFF7E5FF2C894FF6F870044044F01B
:1023A00007044FF68F70044044F070042C81BDE8A0
:1023B000F081F0B504460D4616461F463B463246B0
:1023C00029462046FFF7CCFF208940F48040208139
:1023D000F0BD0185828270470A46002101884FF6D0
:1023E0008F731940114301807047F0B50C461546B4
:1023F0001E460021002200230189028B038C4FF628
:10240000F877394021434FF6FC473A4040F2011734
:102410003A434FF6DD773B404FF6FF7707EA061762
:102420002F433B43018102830384F0BD0A46002110
:10243000018B4FF68F7319401143018370470A4691
:102440000021018B48F6FF7319404FF6FF7303EA32
:1024500002231943018370470A460021818B4FF6FE
:102460008F7319401143818370470A460021818B85
:1024700048F6FF7319404FF6FF7303EA022319432E
:102480008183704721B1028842F08002028004E01B
:1024900002884FF67F731A400280704721B182880C
:1024A00042F00402828004E082884FF6FB731A40F7
:1024B0008280704721B1828842F00802828004E065
:1024C00082884FF6F7731A408280704721B1828864
:1024D00042F00102828004E082884FF6FE731A40C7
:1024E000828070470A460021018B4FF6F77319402E
:1024F0001143018370470A460021018B4FF2FF739D
:1025000019404FF6FF7303EA022319430183704712
:102510000A460021818B4FF6F773194011438183DE
:1025200070470A460021818B4FF2FF7319404FF626
:10253000FF7303EA02231943818370470A4600218F
:10254000018B4FF6FB7319401143018370470A4614
:102550000021018B4FF6FF3319404FF6FF7303EA5A
:1025600002231943018370470A460021818B4FF6ED
:10257000FB7319401143818370470A460021818B08
:102580004FF6FF3319404FF6FF7303EA0223194356
:10259000818370470A460021018B4FF67F731940F3
:1025A0001143018370470A460021018BC1F30E01DC
:1025B0004FF6FF7303EA02231943018370470A466B
:1025C0000021818B4FF67F7319401143818370473F
:1025D0000A460021818BC1F30E014FF6FF7303EA17
:1025E00002231943818370470A460021018C4FF66C
:1025F000FD7319401143018470470A460021018C84
:102600004FF6F77319401143018470470A460021C1
:10261000018C4FF6DF7319404FF6FF7303EA021384
:102620001943018470470A460021018C4FF67F73DD
:1026300019404FF6FF7303EA0213194301847047F0
:102640000A460021018C4FF6FF5319404FF6FF73E5
:1026500003EA02231943018470470A460021018CD2
:102660004FF2FF7319404FF6FF7303EA0223194339
:10267000018470470A460021018C4DF6FF73194012
:102680004FF6FF7303EA023319430184704730B5F4
:10269000002301248C40A3B2048C9C430484048C4A
:1026A00002FA01F5ADB22C43048430BD30B50023ED
:1026B00004248C40A3B2048C9C430484048C02FA4E
:1026C00001F5ADB22C43048430BD70B50346002043
:1026D00000241846183001258D40ACB21D8CA5434E
:1026E0001D8409B1082909D100EB6100056825F0B6
:1026F000700505600568154305600EE00D1FC5F304
:102700004E052844056825F4E045056005684FF648
:10271000FF7606EA02263543056070BD21B10288C6
:1027200042F00202028004E002884FF6FD731A4074
:102730000280704721B1028842F00402028004E066
:1027400002884FF6FB731A400280704721B18288DD
:1027500042F08002828004E082884FF67F731A4044
:102760008280704702884FF6F7731A400280028811
:102770000A430280704782884FF68F731A40828026
:1027800082880A438280704702894FF6F8731A40A4
:10279000028102890A430281704702894FF67F73E2
:1027A0001A40028102890A4302817047818470477E
:1027B00081857047818670470187704781877047A0
:1027C000A0F84010704702884FF6FF431A4002807D
:1027D00002880A43028070470146888E704701468E
:1027E000088F70470146888F70470146B1F8400056
:1027F00070470146888C70470146088D7047024635
:102800000020138A0B400BB1012000E0002070472C
:10281000CA430282704730B50246002000230024DC
:10282000158A05EA0103958905EA010413B10CB183
:10283000012000E0002030BDCA4302827047000042
:1028400010B50446FB48844209D101218803FEF7F4
:1028500019FF00214FF48040FEF714FF32E0F648E4
:10286000844209D101214804FEF719FF00214FF4E9
:102870000030FEF714FF25E0F048844209D1012121
:102880008804FEF70CFF00214FF48020FEF707FFBD
:1028900018E0EB48844209D10121C804FEF7FFFE8D
:1028A00000214FF40020FEF7FAFE0BE0E5488442D9
:1028B00008D101210805FEF7F2FE00214FF4801037
:1028C000FEF7EDFE10BD2DE9F04786B005460E4639
:1028D0000024A24600BFA1460027B08900B100BF76
:1028E0002F462C8A4CF6FF700440F08804432C825B
:1028F000AC894EF6F3100440B088318908437189E1
:1029000008430443AC81AC8A4FF6FF400440B089D1
:102910000443AC8201A8FEF72EFEC648874202D1CE
:10292000DDF810A001E0DDF80CA0A88900F400405B
:1029300040B10AEBCA0000EB0A1031684900B0FB55
:10294000F1F807E00AEBCA0000EB0A1031688900D1
:10295000B0FBF1F86420B8FBF0F004012009642119
:1029600001FB1089A88900F4004040B1322000EB3F
:10297000C900B0FBF1F000F00700044308E032208A
:1029800000EB09106421B0FBF1F000F00F000443EC
:102990002C8106B0BDE8F0874FF41651016000218C
:1029A0008180C18001810C2141810021818170479A
:1029B00010B502460020108A4FF2FF0318400B8822
:1029C0004C8823438C882343CC88234318431082AC
:1029D00010BD0021018041808180C180704721B1FC
:1029E000828942F40052828104E082894DF6FF73AD
:1029F0001A4082817047F0B5034600240026002566
:102A0000002040F66A17B94200D100BF1846C1F352
:102A1000421401F01F06012707FA06F5012C01D127
:102A20000C3004E0022C01D1103000E014301AB157
:102A300007682F43076002E00768AF430760F0BDF7
:102A40001AB1838A0B43838202E0838A8B43838299
:102A50007047028A4FF6F0731A400282028A0A43D4
:102A60000282704782894FF2FF731A408281828905
:102A70000A438281704721B1828942F00202828139
:102A800004E082894FF6FD731A4082817047028A02
:102A90004FF6DF731A400282028A0A4302827047AD
:102AA00021B1028A42F48042028204E0028A4BF69B
:102AB000FF731A4002827047C1F308028280704798
:102AC00001468888C0F308007047818941F0010100
:102AD00081817047028BD2B20283028B42EA0122CB
:102AE00002837047028B02F47F420283028B0A4307
:102AF0000283704721B1828A42F02002828204E080
:102B0000828A4FF6DF731A408282704721B1828A2F
:102B100042F01002828204E0828A4FF6EF731A407C
:102B20008282704721B1828A42F00802828204E0E8
:102B3000828A4FF6F7731A408282704721B18289E8
:102B400042F40042828103E08289C2F30E02828154
:102B5000704721B1828A42F40062828204E0828A54
:102B60004FF2FF731A4082827047828A4FF6FB73DE
:102B70001A408282828A0A438282704721B1828A05
:102B800042F00202828204E0828A4FF6FD731A400C
:102B90008282704702460020B1F5007F00D100BF5D
:102BA00013880B400BB1012000E00020704701F4B6
:102BB0000072B2F5007F00D100BFCA4302807047A7
:102BC00070B50246002400230025002040F66A1656
:102BD000B14200D100BFC1F3421501F01F0301262D
:102BE00006FA03F3012D02D19689334006E0022D47
:102BF00002D1168A334001E0968A33400C12012636
:102C000006FA04F41688344013B10CB1012000E038
:102C1000002070BD10B50022002340F66A14A142C6
:102C200000D100BF0A1201249440A3B2DC43048007
:102C300010BD000000380140004400400048004042
:102C4000004C00400050004010B56FF00400FDF74C
:102C5000BEFE2E4800682E49B0FBF1F02D490870E9
:102C60000846007800EB4001C1EBC0104FF6FF7141
:102C700001EAC0002849088010BD0146254A1278A3
:102C80004A434FF0E0235A6100229A611A461269C2
:102C900042F001021A6100BF4FF0E022106900F01B
:102CA00001021AB100F48032002AF5D04FF0E02280
:102CB000126922F001024FF0E0231A6100229A61AA
:102CC00070470146144A12884A434FF0E0235A6184
:102CD00000229A611A46126942F001021A6100BF8D
:102CE0004FF0E022106900F001021AB100F48032C6
:102CF000002AF5D04FF0E022126922F001024FF0D5
:102D0000E0231A6100229A61704700001800002039
:102D100000127A00020100200401002000BF704769
:102D2000DF4A1288C2B2DE4B1B1D1A80704710B5F5
:102D300086B00446012144F20400FEF789FC4FF4FA
:102D40000070ADF8140003208DF8160018208DF8DF
:102D5000170005A9D348FEF7BFF94FF48060ADF81E
:102D6000140004208DF8170005A9CE48FEF7B4F929
:102D700025208DF8000003208DF801008DF8020059
:102D800001208DF803006846FDF7D7FD019400206F
:102D9000ADF80800ADF80A00ADF80C00ADF8100071
:102DA0000C20ADF80E0001A9BF48FFF78CFD0122F1
:102DB00040F22551BC48FFF71EFE0121BA48FFF73B
:102DC0000EFE4021B848FFF7F2FE06B010BD10B568
:102DD00086B0044601214804FEF747FC0121042087
:102DE000FEF736FC0420ADF8140003208DF8160021
:102DF00018208DF8170005A9AA48FEF76DF90820DC
:102E0000ADF8140004208DF8170005A9A548FEF7B9
:102E100063F926208DF8000002208DF801000320C0
:102E20008DF8020001208DF803006846FDF785FD4E
:102E300001940020ADF80800ADF80A00ADF80C00D0
:102E4000ADF810000C20ADF80E0001A99448FFF772
:102E50003AFD012240F225519148FFF7CCFD0121B6
:102E60008F48FFF7BCFD40218D48FFF793FE06B069
:102E700010BD10B586B0044601218804FEF7F5FBAD
:102E800001210820FEF7E4FB4FF48060ADF8140048
:102E900003208DF8160018208DF8170005A9834827
:102EA000FEF71AF94FF40060ADF8140004208DF815
:102EB000170005A97D48FEF70FF927208DF80000BF
:102EC00002208DF8010004208DF8020001208DF809
:102ED00003006846FDF731FD01940020ADF80800BD
:102EE000ADF80A00ADF80C00ADF810000C20ADF8FC
:102EF0000E0001A96E48FFF7E6FC012240F22551C1
:102F00006B48FFF778FD01216948FFF768FD402114
:102F10006748FFF73FFE06B010BD08B500200090DF
:102F200040F225516048FFF74BFE68B140F2255151
:102F30005D48FFF73CFE5C48FFF7C2FDC0B2009061
:102F40000121684601F0E4F808BD10B540F22551B2
:102F50005348FFF735FE002833D040F22551504842
:102F6000FFF725FE4E48FFF7ABFDC4B2514800788D
:102F700050B9532C08D15048047001204D490870B5
:102F800000204E4908701CE04A480078A0B14B4828
:102F9000007888B9AA2C08D0464801780078401CEF
:102FA000444A1070444844540BE0002041490870E2
:102FB00001204249087004E000203E4908703F4962
:102FC000087010BD10B5302440F225513848FFF785
:102FD000F7FD00284DD040F225513548FFF7E7FDB9
:102FE0003348FFF76DFDC4B2FC2C0BD13448007898
:102FF00040B901203249087032480470002032493B
:10300000087036E02E48007850B3FC2C31D02D48A3
:103010002B49097844542A480078022810D12046C8
:103020002949087008460078062809D00846007823
:10303000042805D008460078012801D00020087037
:103040001F48017820480078801C814209D1002067
:103050001B49087001201D49087000201A4908709A
:1030600007E000201949087015480078401C1449F1
:10307000087010BD2DE9F04107460D4616460024A4
:1030800000BF08E0295D3846FFF716FD5020FFF726
:10309000F4FD601CC4B2B442F4DBBDE8F081000072
:1030A000004400400008014000380140000C01408D
:1030B0000048004044010020180600204001002084
:1030C00045010020220600203E0100203F01002093
:1030D00010B586B0044601218804FEF7C6FA012126
:1030E0000820FEF7B5FA3948FFF7AAFB4FF48060D5
:1030F000ADF8140018208DF8170003208DF8160085
:1031000005A93348FDF7E8FF4FF40060ADF814005F
:1031100004208DF8170005A92D48FDF7DDFF019467
:103120000020ADF80800ADF80A00ADF80C00ADF8CD
:1031300010000C20ADF80E0001A92448FFF7C3FBD6
:1031400001212248FFF74BFC40212048FFF722FDD8
:1031500006B010BD10B5044621461C48FFF7ACFC74
:1031600000BF40211948FFF715FD0128F9D110BD16
:1031700010B500BF20211548FFF70CFD0128F9D13B
:103180001248FFF79DFC0446204610BD70B5054669
:103190000E46002407E0285DFFF7DCFF3220FFF732
:1031A0006CFD601C84B2B442F5DB70BD70B50546A1
:1031B0000E46002407E0FFF7DBFF28556420FFF7E9
:1031C0005CFD601C84B2B442F5DB70BD0048004079
:1031D000000C014008B501210420FEF739FA202037
:1031E000ADF8000004208DF8030003208DF80200E4
:1031F00069461C48FDF770FF08BD08B50121042091
:10320000FEF726FA4020ADF8000004208DF80300F8
:1032100003208DF8020069461248FDF75DFF08BDE6
:1032200008B501210420FEF713FA0220ADF80000D2
:1032300010208DF8030003208DF8020069460A482B
:10324000FDF74AFF02210748FDF7F3FF0221064878
:10325000FDF7F1FF0A20FFF734FD02210248FDF7D8
:10326000E8FF08BD00080140000C014010B5DF4830
:103270000078002872D00120DD4908700020DB4969
:103280000870DC484078412806D0422850D04328B6
:103290007FD044284BD1B9E0D6488078D649097808
:1032A000884213D0D3488078FF2807D1D14880784E
:1032B000D1490870D1A0FDF73AF938E0CD488078BF
:1032C000CD490870D0A0FDF732F930E0C948C07888
:1032D000C9494978884212D0C6488078FF280ED163
:1032E000C448C078C4494870CAA0FDF720F9C24953
:1032F0004978CB4A52F82100FDF719F917E0BD488B
:103300000079BD498978884211D0BA488078FF2871
:103310000DD1B8480079B8498870C2A0FDF707F907
:10332000B5498978C24A52F82100FDF700F9D9E081
:10333000B0488078BF490978884210D0AD4880787D
:10334000BC490870AB488078FF2803D1BAA0FDF7CC
:10335000EEF81CE0BBA0FDF7EAF818E0CEE0A548C7
:10336000C078B4494978884211D0A2488078FF28B3
:103370000DD1A048C078AF494870B5A0FDF7D7F887
:10338000AC494978B54A52F82100FDF7D0F8A9E0D8
:10339000FFE798488078B249097888420FD095486D
:1033A0008078AF49087093488078FF2803D1ADA09A
:1033B000FDF7BDF829E0AEA0FDF7B9F825E08D488E
:1033C000C078A749497888421FD08A488078FF286A
:1033D0001BD18848C078A24948708648C0780A2125
:1033E00090FBF1F03030A54908718248C0780A217D
:1033F00090FBF1F201FB12003030A0494871A0A00F
:10340000FDF795F89D48FDF792F86BE079488078D4
:10341000EE283FD005DC80B10F282ED0A0285BD14C
:1034200049E0F0281CD0FF2856D19848007818B9F8
:1034300097480078FDF7ABF84EE09448007870B1FB
:1034400004219448FFF7A2FE00209049087000BFB5
:10345000914800780028FBD000208F4908703BE09D
:1034600004218E48FFF792FE00BF8B4800780028A9
:10347000FBD00020884908702EE004218848FFF71F
:1034800085FE00BF844800780028FBD000208249D8
:10349000087021E07D48007860B17D4800780828F8
:1034A00005DA7B480078401C7949087002E000206A
:1034B0007749087010E07548007860B1744800786A
:1034C000002805DD72480078401E7149087002E04E
:1034D00008206F49087000BF00BF464880786B49DC
:1034E000087000BF00BF002404E0002041490855D7
:1034F000601CC4B20A2CF8DB03F021FA10BD10B531
:10350000042268496848FFF7B5FD5020FFF7D9FB52
:10351000302064498870C87002216448FDF78BFE32
:103520000520FFF7CEFB02216048FDF782FE10BDAB
:1035300010B55F48007A0A2190FBF1F020B1012814
:1035400006D002280CD107E04120564988700BE0D4
:1035500042205449887007E043205249887003E0B4
:1035600030205049887000BF00BF5148007A0A21BE
:1035700090FBF1F201FB12000A282ED2DFE800F0E6
:1035800005090D1115191D21252961204549C8700E
:1035900027E062204349C87023E063204149C87096
:1035A0001FE064203F49C8701BE065203D49C8709A
:1035B00017E066203B49C87013E067203949C8709E
:1035C0000FE068203749C8700BE069203549C870A2
:1035D00007E06A203349C87003E030203149C870E1
:1035E00000BF00BFFFF78BFF012010BD400100208E
:1035F000D20100201806002055010020BFD5B5F7E4
:10360000C9E8B1B8BFAA0000BFD5B5F7C9E8B1B8DD
:10361000B9D80000B5B1C7B0C4A3CABDCEAA0000D6
:1036200084010020B5B1C7B0CEC2B6C8000000000A
:103630009401002058010020B5C6C9E8B1B8BFAA5E
:1036400000000000B5C6C9E8B1B8B9D80000000054
:10365000C1C1B5C6B8F6CAFD000000006001002077
:103660005A010020B5E7CAD3BFAABBFA0000000088
:10367000B5E7CAD3B9D8BBFA00000000CC010020DE
:10368000B5B1C7B0C6B5B5C0000000005C010020F0
:1036900054010020480100203F0100204C0100207F
:1036A00050010020D301002000440040000C0140E4
:1036B0002206002010B502460024002302B109B9F9
:1036C000002010BD022303E0D05C2044C4B25B1C88
:1036D000481E9842F8D82046F3E701B581B0002093
:1036E0000090694601AA5078087010784870BDF8BB
:1036F00000000CBD0146080601F47F4240EA0220AA
:1037000001F47F0240EA122040EA1160704710B5D0
:1037100002460024302A05DB392A03DCA2F13000FE
:10372000C3B20EE0412A05DB462A03DCA2F13700D2
:10373000C3B206E0612A04DB662A02DCA2F157006C
:10374000C3B2302905DB392903DCA1F13000C4B252
:103750000EE0412905DB462903DCA1F13700C4B2A4
:1037600006E0612904DB662902DCA1F15700C4B23E
:1037700004EB0310C0B210BD70B50446002500264E
:10378000204603F08DFD06460CB9681E70BD00256D
:1037900005E0605D302801D00020F7E76D1CB542E0
:1037A000F7D30120F2E72DE9F043034600BF0025DF
:1037B000002400260027012901D002290DD1A3F100
:1037C000010C4FF06408BCFBF8F4BCFBF8F908FBF3
:1037D00019C501F10C06174609E04FF0640CB3FB64
:1037E000FCF4B3FBFCF80CFB18350E46174606F14B
:1037F000010C4FF01A080CFB08FC4FF00A08BCFB48
:10380000F8FC05EB950808EB94084FF0020909FB5A
:103810001488C444BC44ACF10100002806DB4FF01E
:10382000070C90FBFCF80CFB180C07E04FF0070CA2
:1038300090FBFCF80CFB180C0CF1070C6046BDE883
:10384000F08301460A46C81701EB90708010A1EB87
:10385000800070B9642091FBF0F300FB131030B9C5
:103860004FF4C87091FBF0F300FB131008B901206E
:1038700070470020FCE710B504462046FFF7E1FF43
:1038800010B14FF4B77010BD40F26D10FBE72DE999
:10389000F04190B080460E4640F2B2753022694940
:1038A00001A803F061FD344604F5E14400BF11E0D6
:1038B0002846FFF7E0FF074640F2A3207843B4EB29
:1038C000C01F06D340F2A3207843A4EBC0146D1CA4
:1038D00000E001E0002CEBD100BFA8B2ADF834004D
:1038E000002518E0BDF83400FFF7ABFF08B11D203C
:1038F000029001A850F8250040F2A3214843B4EB00
:10390000C01F07D301A850F825004843A4EBC014FA
:103910006D1C00E001E0002CE4D100BF1C200290EF
:10392000681CC0B28DF83600012506E04648844286
:1039300002D3241A6D1C00E001E0002CF6D100BF78
:10394000E8B28DF837004FF46160B4FBF0F0C0B21C
:103950008DF838004FF46160B4FBF0F100FB1140CA
:103960003C21B0FBF1F0C0B28DF839003C20B4FB33
:10397000F0F100FB11408DF83A00CDF83B600D9856
:10398000C8F800000E98C8F80400BDF83C00A8F87C
:1039900008009DF83E0088F80A0010B0BDE8F081EC
:1039A0002DE9F05F80460E46914600241CE016F893
:1039B00014A06000401C16F800B0504603F0E7FB6E
:1039C0003038C5B2092D01DDE81FC5B2584603F0F5
:1039D000DEFB3038C7B2092F01DDF81FC7B207EB95
:1039E000051008F80400641C4C45E0DBBDE8F09FBE
:1039F000F0B5034600201EE00E5CF71706EB1777C4
:103A00003F1107F130050E5CF71706EB17773F11F2
:103A1000A6EB07173037FCB2392D01DDEE1DF5B2EC
:103A2000392C01DDE61DF4B203F81050012606EB37
:103A300040069C55401C9042DEDB002603F81260D5
:103A4000F0BD0000F07B00088051010030B5024657
:103A50000B460021002400250AB9481E30BD002174
:103A600008E0545C581A401E155C5554581A401E04
:103A70001454491CB1EB530FF3D30020EEE710B5FB
:103A800003460020541AB4FBF3F010BD10B50346F2
:103A9000002002FB031010BD2DE9F04704460E463E
:103AA000154600273146284604F02CF88146214669
:103AB00003F066FE804603F025FF07463846BDE862
:103AC000F0872DE9F04704460E46154600272846A4
:103AD00003F038FF8146214603F048FF8046314617
:103AE00003F0ECFD07463846BDE8F087024612B108
:103AF00002F0070028B9082901D8002070470120EA
:103B0000FCE702F00700C0F10800884201D3002062
:103B1000F4E70120F2E72DE9F04705468846144610
:103B20001E464FF00009CA460027002314B9581E4C
:103B3000BDE8F087EB0841462846FFF7D7FF074668
:103B40003FB9E05C05F0070106FA01F10843E054D3
:103B50001DE0012F1BD1F0B205F00701C1F10801F2
:103B600040FA01F905F00700C0F10801FF20084103
:103B700000EA060A581C205C40EA0900591C6054FF
:103B8000E05C05F007010AFA01F10843E054002067
:103B9000CEE72DE9F04F8FB004460F4690461D4604
:103BA0000026B246B146B34600200E90B8F1000F91
:103BB00000D025B94FF0FF300FB0BDE8F08F4FEACD
:103BC000D4092A46414601A803F089FB012D09D9F1
:103BD000294601A8FFF73AFFB0F1FF3F02D14FF0AD
:103BE000FF30E9E739462046FFF780FF8246BAF109
:103BF000000F0CD101A810F8090004F007010841DA
:103C0000C7F10802FF2111410840064321E0BAF143
:103C1000010F1ED101A909F10100085C04F00701A0
:103C2000C1F10801791AC1F10802FF21114100EA2E
:103C3000010B01A810F8090004F0070108410E90DB
:103C400004F00700C0F108010BFA01F006430E98DA
:103C500006433046B0E72DE9F04F8FB005460C46DD
:103C600016469946189F4FF0000AD34600200E9042
:103C70008046B9F1000F00D027B94FF0FF300FB0E8
:103C8000BDE8F08F3A46494601A803F028FB012F12
:103C900009D9394601A8FFF7D9FEB0F1FF3F02D19B
:103CA0004FF0FF30EBE731462046FFF71FFF82461B
:103CB000BAF1000F0CD101A8405D04F007010841E2
:103CC000C6F10802FF211141084040EA080821E03E
:103CD000BAF1010F1ED101A9681C085C04F00701AC
:103CE000C1F10801711AC1F10802FF21114100EA76
:103CF000010B01A8405D04F0070108410E9004F09B
:103D00000700C0F108010BFA01F040EA08080E981C
:103D100048EA00084046B2E72DE9F04704460D4660
:103D20001746089E4FF00009CA46C8461BB94FF017
:103D3000FF30BDE8F08739462846FFF7D7FE8046BA
:103D4000B8F1000F07D1185D05F0070106FA01F17F
:103D5000084318551EE0B8F1010F1BD1F0B205F071
:103D60000701C1F1080140FA01F905F00700C0F1AF
:103D70000801FF20084100EA060A601C185C40EABE
:103D80000900611C5854185D05F007010AFA01F199
:103D9000084318550020CCE72DE9F05F06460D4694
:103DA000934600272C46A846A946AA4606B11DB947
:103DB0004FF0FF30BDE8F09F0027C2E0701CC05DEF
:103DC00018286ED2DFE800F0AEAFB0B9B9B1B2B327
:103DD000B4B9B9B9B9B5B7B8B60C1F3245717DA23F
:103DE0002078C149087008460078012805D1412093
:103DF000BE4988706120C87004E04120BB498870CA
:103E00006220C8709AE06078B749487008464078E8
:103E1000012805D14220B54988706120C87004E0AE
:103E20004220B24988706220C87087E0A078AE490D
:103E3000887008468078012805D14320AB498870F6
:103E40006120C87004E04320A84988706220C870CF
:103E500074E0D4F80300A449C1F803000846D0F880
:103E6000030030B101280AD002280ED0032819D14E
:103E700011E041209D4988706920C87013E04120FD
:103E80009A4988706620C8700DE041209749887073
:103E90006820C87007E04120944988706720C87086
:103EA00001E04AE000BF00BF48E0D4F807008E49B7
:103EB000C1F8070041208D498870E0795C30C870F6
:103EC0003CE0D4F80B008849C1F80B000846D0F854
:103ED0000B0028B94220854988706720C87014E01B
:103EE0008148D0F80B00012805D142207F49887015
:103EF0006620C87009E07C48D0F80B00022804D185
:103F000042207A4988706520C87017E0D4F80F0005
:103F10007549C1F80F00432074498870E07B6D300B
:103F2000C8700BE00AE009E008E007E006E005E001
:103F300004E003E002E001E000E000BF00BF781C05
:103F4000C7B23078B8423FF739AFFFF7D8FA002050
:103F500030E710B500206649087066480078782878
:103F600001DD012000E000205F4908706248007810
:103F7000782801DD012000E000205B4948705F489F
:103F80000078782801DD012000E000205649887083
:103F900058484078C1F80300564880781130C1F87D
:103FA000070055484078032190FBF1F04E49C1F8D5
:103FB0000B0051484078C1F8130050484078C1F8D0
:103FC0000F004E484078C1F81700084601F02DF95F
:103FD00010BD10B51B21444803F0F8F9454800789E
:103FE000782801DD012000E000203F4908704248A8
:103FF0000078782801DD012000E000203A4948706F
:104000003E480078782801DD012000E00020364994
:10401000887038484078C1F80300364880781130FD
:10402000C1F8070034484078032190FBF1F02E4995
:10403000C1F80B0030484078C1F813002F48407891
:10404000C1F80F0010BD2E480068401C2C490860C4
:1040500070472B4800687047012080F3138800BF29
:1040600000BF2848006800F4E06027490843001DAD
:1040700024490860BFF3408F00BF00BFFEE700B5D2
:10408000FFF7E1FF00BD08B5002000900121684660
:1040900000F03EF808BD70B505460E4600240DB987
:1040A000601E70BD00241BE0295D1848FEF704FD6A
:1040B00000BF40211548FEF76DFD0028F9D0022C05
:1040C0000DD3285DFF280AD155211048FEF7F4FCD6
:1040D00000BF40210D48FEF75DFD0028F9D0641CAB
:1040E000B442E1D33046DCE72E060020D3010020A5
:1040F000D201002055010020580100205A01002063
:10410000D80100200CED00E00000FA050038014065
:1041100070B504460D46002624B9F4A003F046F815
:10412000701E70BD2A462146F84801F065FA064621
:10413000AE4205D0F6A003F039F84FF0FF30F0E7BB
:104140003046EEE710B504462CB9F8A003F02EF87F
:104150004FF0FF3010BD002020606060FF20207015
:1041600060700020F6E770B504460D462CB9FAA041
:1041700003F01CF84FF0FF3070BD2321FC4803F022
:1041800025F92A462146FA48801C03F0A8F8F84889
:104190004338A0F86050012180F84410FFF759FF20
:1041A000F3494339C1F862000020E5E7F8B5054658
:1041B0000C4616460DB104B12EB9EEA002F0F6FF82
:1041C0004FF0FF30F8BD287800F0010098B11121C0
:1041D0002278601C81542078401C207001206B1CC8
:1041E0000246002100900846FFF735FD08B1012086
:1041F00000E0002030702878C0F3400098B1122110
:104200002278601C81542078401C207001206B1C97
:104210000246014600900020FFF71DFD08B1012075
:1042200000E0002070702878C0F3800098B113215E
:104230002278601C81542078401C207001206B1C67
:104240000246022100900020FFF705FD08B1012081
:1042500000E00020B0702878C0F3C00080B11421C5
:104260002278601C81542078401C207001206B1C37
:104270000222032100900020FFF7EDFCC6F80300A6
:104280002878C0F3001068B115212278601C815491
:104290002078401C2070AA7800210120FFF7F6FB4F
:1042A000C6F807002878C0F3401068B116212278BC
:1042B000601C81542078401C2070EA780021012085
:1042C000FFF7E4FBC6F80B002878C0F3801068B154
:1042D00017212278601C81542078401C20702A7994
:1042E00000210120FFF7D2FBC6F80F00002069E78C
:1042F0002DE9F04104460D460026002704B11DB902
:104300004FF0FF30BDE8F081FFF7A3FE07462878A5
:104310002178884200D0012668786178884200D0F0
:104320000126A878A178884200D00126D5F803009C
:10433000D4F80310884200D00126D5F80700D4F83D
:104340000710884200D00126D5F80B00D4F80B10D6
:10435000884200D00126D5F80F00D4F80F1088420B
:1043600000D00126D5F81300D4F81310884207D0E6
:104370008B480068381A41F27071884200D30126D8
:10438000D5F81700D4F81710884207D08448006881
:10439000381A41F27071884200D30126012E03D1F0
:1043A000FFF757FE7E4908603046ABE738B5044654
:1043B0000D4604B115B94FF0FF3038BD002028700C
:1043C00020782B460122002100900846FFF7A4FC2C
:1043D00060782B460122114600900020FFF79CFCDC
:1043E000A0782B460122022100900020FFF794FCC8
:1043F000D4F80300042802D34FF0FF30DDE7D4F8EF
:1044000003002B460222032100900020FFF784FCCA
:1044100001212846FFF71AFB54F8072F002101203D
:10442000FFF72DFB6870626800210120FFF727FB72
:10443000A870A26800210120FFF721FBE870E26864
:1044400000210120FFF71BFB28712269E41F0021D6
:104450000120FFF714FB68710020AEE72DE9F0475B
:1044600080460C4617461D46089E94F800900CB1F5
:1044700005B11EB94FF0FF30BDE8F087B8F1000F6D
:1044800032D119213A48233002F0A0FFB9F1010FCF
:1044900006D0B9F1020F12D0B9F1050F25D185E090
:1044A000334A8D32A2F16A01601CFFF77FFE0120C2
:1044B0002F494339087000250020306096E02C49D0
:1044C000873101F12100FFF771FF60B9284887307B
:1044D0000168C5F801108088A5F805000320287040
:1044E0000720306061E05DE081E07EE04552523AB5
:1044F0002067697A50757444617461206275662022
:10450000697320656D707479200A00009D07002092
:104510004552523A204661696C656420746F20727E
:10452000625772697465200A000000004552523AD1
:104530002067697A50726F746F636F6C486561644D
:10454000496E6974206865616420697320656D70C7
:104550007479200A000000004552523A20646174C8
:104560006120697320656D707479200A0000000075
:104570008C06002067697A44617461506F696E74BB
:10458000324576656E74204572726F72202C204918
:104590006C6C6567616C20506172616D0A0000008F
:1045A000DC0100204FF0FF3066E71FE07A1E611C3F
:1045B000FE4802F094FE781EFC491C39C1F8370011
:1045C0001021FA481C3890F866206730815467380B
:1045D00090F86600401CF5491C3981F866000320FC
:1045E000087000250020306000E000BF00BF002000
:1045F00042E72DE9F04F8FB005468B46904699462D
:1046000000200E908246002600276C46BBF1000F6A
:1046100003D1401E0FB0BDE8F08FB9F1010F04D1F6
:104620002E7AB01D404487B202E008F1050087B23F
:10463000FF2004F8010B04F8010B381204F8010BF9
:1046400004F8017B2879401C04F8010B687904F810
:10465000010B002004F8010B04F8019B4FF0080A3D
:10466000B9F1010F0CD104F8016B0AF1010A0DEB4D
:104670000A00324605F1090102F031FEB244344429
:10468000B8F1000F05D00DEB0A004246594602F082
:1046900026FE391D6846FFF70DF80146F81C0DF897
:1046A0000010391D6846FFF7F6FC0E900E980028A2
:1046B00002DA6FF00100ADE70020ABE72DE9FF4122
:1046C00004460D46174600261DB9701E04B0BDE80D
:1046D000F0816846FFF736FD05208DF80400B348E9
:1046E0001C3890F83B10D0F83B00401CAF4A1C3AF5
:1046F000C2F83B00C8B28DF805008DF808400C20C8
:10470000FEF7EBFFADF802003A4629460DF109002D
:1047100002F0E5FD10216846FEF7CCFF8DF80F0092
:1047200010216846FFF7B7FC0646002E02DA6FF04C
:104730000100CBE710216846FFF715FD3046C5E7BD
:1047400070B50546FFF785FC04469849CF312846E9
:10475000FFF7CEFD012811D19449AE312846FFF76D
:1047600025FE28B906229149AE310420FFF7A6FFA5
:104770001B2229468D48CF3002F0B1FD8C48B4FB96
:10478000F0F100FB1140B8B98A480068A04213D08C
:104790008649AE312846FFF709FE28B9062283492B
:1047A000AE310420FFF78AFF1B2229467F48CF3015
:1047B00002F095FD7F48046070BD2DE9FE4F8046F4
:1047C0000E4617464FF0000B0020029081468246AD
:1047D000002534460090B8F1000F01D006B11FB992
:1047E0004FF0FF30BDE8FE8F404600F089FE00F03C
:1047F000FF0ABAF1000F02D14FF0FF30F2E74FF09D
:1048000000095DE0012201A9404600F0A4FE8346B4
:10481000BBF1000F52D068480078FF281FD19DF8E7
:104820000400FF281BD16548007848B9FF2020709C
:10483000607002206249088001206049087034E0FD
:104840005F480088042830DD5D480088A8422CD0ED
:10485000FF202070607002205949088025E05648EA
:104860000078FF2803D19DF8040055281DD0534837
:104870000078012819D19DF8040051490988605435
:104880004F480088401C4E4908800846008804288C
:104890000BDD0094009C6088FEF71FFF001D85B2B1
:1048A00047480088A84200D10CE09DF80400424926
:1048B000087044480078401C4249087009F1010919
:1048C000D1459FDB00BF3E480088042823DD3C48DB
:1048D0000088A8421FD13A4801882046FEF7EAFE28
:1048E000029037480088401E215C029881420FD117
:1048F0002A462146304602F0F2FC3D8000202F4936
:1049000008702F4908802F4908702B49087069E703
:104910006FF0010066E7012064E710B5002423482A
:104920001C3890F8440000B910BD20481C38B0F87D
:1049300060104530FFF7AFFB0446FFF78AFB1B49C9
:104940001C39C1F8620000BFEEE770B50446174D90
:10495000293514B94FF0FF3070BD2879401C2179FA
:10496000884204D123211148273002F02FFD002076
:10497000F2E73EB5044600250CB9681E3EBD20682E
:104980000090606801909DF80400401CC0B28DF852
:1049900004000520FEF7A1FEADF8020009216846DB
:1049A000FEF788FE8DF8080009210DE0650600205D
:1049B000C0270900E0010020E8010020E4010020F8
:1049C000E6010020E90100206846FFF764FB054688
:1049D0002846D3E710B5FE4890F8440001281BD1C3
:1049E000FB4890F84300022811DAFFF732FBF84940
:1049F000D1F86210401AC8280ED9FFF78EFFF4488C
:104A000090F84300401CF24981F8430004E0232160
:104A1000EF48433002F0DAFC10BD30B59DB00446DB
:104A2000002514B9681E1DB030BD6846FFF78AFB2B
:104A300002208DF8040060798DF80500E5A103C916
:104A4000CDE90201E6A103C9CDE90401E7A103C94B
:104A5000CDE90801E8A103C9CDE906012022E9A1B9
:104A60000AA802F081FC2022EFA10DF1520002F011
:104A700036FC0020CDF84A00CDF84E009DF85100DC
:104A80008DF851009DF8510040F002018DF8511051
:104A90000020FEF722FEADF848006F20FEF71DFE55
:104AA000ADF8020073216846FEF704FE8DF872002F
:104AB00073216846FFF7EFFA05462846B3E7FEB5CF
:104AC00004460D4600260CB9701EFEBD6846FFF771
:104AD00039FB12208DF8040060798DF8050006205E
:104AE000FEF7FBFDADF802008DF808500A2168467C
:104AF000FEF7E0FD8DF809000A216846FFF7CBFAC2
:104B000006463046E1E770B50446254614B94FF035
:104B1000FF3070BDCD48A9680160E9684160298A0D
:104B20000181A97C8172AA49B1F80701FEF7D5FD80
:104B3000A749A1F80701D1F80F01FEF7DBFDA44951
:104B4000C1F80F010E21A24890F8982099308154A5
:104B5000993890F89800401C9D4981F898000420ED
:104B600008700020D5E710B5FFF773FA044600BFC0
:104B7000FFF76FFA001BB0F5167FF9D9FFF76CFA53
:104B800010BD10B504462CB9B1A002F00FFB4FF0D8
:104B9000FF3010BD2089FEF7A0FD2081B8480078C5
:104BA000C0F38000217AC1F38001884248D0207A86
:104BB000C0F3800010B3207A00F0010060B1002142
:104BC000834890F87F2080308154803890F87F00AF
:104BD000401C7F4981F87F00207AC0F3400078B301
:104BE00001217B4890F87F2080308154803890F8F4
:104BF0007F00401C764981F87F0021E0207A00F098
:104C0000010060B10021724890F87F20803081540B
:104C1000803890F87F00401C6D4981F87F00207A31
:104C2000C0F3400060B10221694890F87F208030D5
:104C30008154803890F87F00401C654981F87F00DE
:104C40008F480078C0F3C000217AC1F3C0018842C8
:104C500029D0207AC1088A48007861F3C3008849C6
:104C60000870207AC0F3C00068B10321584890F85A
:104C70007F2080308154803890F87F00401C544958
:104C800081F87F000FE00421514890F87F208030A8
:104C90008154803890F87F00401C4D4981F87F0096
:104CA00078A002F083FA76480078C0F30010217AE9
:104CB000C1F30011884226D0207A0109704800789B
:104CC00061F304106E490870207AC0F3001068B1D7
:104CD00005213F4890F87F2080308154803890F83B
:104CE0007F00401C3A4981F87F000CE006213848DB
:104CF00090F87F2080308154803890F87F00401CED
:104D0000334981F87F005E480078C0F34010217A73
:104D1000C1F34011884226D0207A410958480078D2
:104D200061F3451056490870207AC0F3401068B10D
:104D30000721274890F87F2080308154803890F8F0
:104D40007F00401C224981F87F000CE008212048A8
:104D500090F87F2080308154803890F87F00401C8C
:104D60001B4981F87F0046484078C0F3C001607A53
:104D7000C0F3C000814226D0607AC1084048407824
:104D800061F3C3003E494870607AC0F3C00068B167
:104D90000B210F4890F87F2080308154803890F8A4
:104DA0007F00401C0A4981F87F000CE00C21084874
:104DB00090F87F2080308154803890F87F00401C2C
:104DC000034981F87F002E484078C0F3001169E064
:104DD00049060020303030303030303400000000E0
:104DE000303030303030303200000000303330337B
:104DF000303030300000000030333031303130306E
:104E00000000000064316162336635623339396312
:104E10003437653238653963386337373933386149
:104E2000633134660000000066306137623330362B
:104E30006439313534393964393239366535643558
:104E400066633137663631350000000050070020B8
:104E500067697A50726F746F636F6C4D6F64756CB5
:104E600065537461747573204572726F72202C20C3
:104E7000496C6C6567616C20506172616D0A00005D
:104E8000EA01002057694669207374617475733AAA
:104E9000206F75742062696E64696E67206D6F643F
:104EA000650A0000607AC0F30010814226D0607A63
:104EB0000109F948407861F30410F7494870607AB5
:104EC000C0F3001068B10921F44890F87F208030C9
:104ED0008154803890F87F00401CF04981F87F00B1
:104EE0000CE00A21ED4890F87F2080308154803812
:104EF00090F87F00401CE94981F87F000D21E748C8
:104F000090F87F2080308154803890F87F00401CDA
:104F1000E24981F87F00607A00F0070081F806011D
:104F200002200870002034E610B53620DC49086005
:104F3000DC48C860084600F0C5FA4FF4AA71D748AB
:104F400002F044FA10BD30B587B004460025062CA7
:104F50007DD2DFE804F0032A537DA4CB01A8FFF73C
:104F6000F1F80B208DF80800CC4890F83B10D0F8F1
:104F70003B00401CC94AC2F83B00C8B28DF809008A
:104F80000520FEF7AAFBADF80600092101A8FEF7EF
:104F900091FB8DF80C00092101A8FFF77CF805466C
:104FA000092101A8FFF7DFF8C8E004A8FFF7CAF855
:104FB00009208DF81400B94890F83B10D0F83B0058
:104FC000401CB64AC2F83B00C8B28DF815008DF8F7
:104FD00018400620FEF781FBADF812000A2104A854
:104FE000FEF768FB8DF819000A2104A8FFF753F8B3
:104FF00005460A2104A8FFF7B6F89FE004A8FFF7CA
:10500000A1F809208DF81400A44890F83B10D0F8BE
:105010003B00401CA14AC2F83B00C8B28DF8150005
:105020008DF818400620FEF758FBADF812000A2153
:1050300004A8FEF73FFB8DF819000A2104A8FFF72A
:105040002AF805460A2104A8FFF78DF876E074E0F7
:1050500001A8FFF777F813208DF808008F4890F823
:105060003B10D0F83B00401C8C4AC2F83B00C8B251
:105070008DF809000520FEF730FBADF80600092188
:1050800001A8FEF717FB8DF80C00092101A8FFF716
:1050900002F80546092101A8FFF765F84EE001A8CE
:1050A000FFF750F815208DF808007C4890F83B1069
:1050B000D0F83B00401C794AC2F83B00C8B28DF8DA
:1050C00009000520FEF709FBADF80600092101A83B
:1050D000FEF7F0FA8DF80C00092101A8FEF7DBFFBE
:1050E0000546092101A8FFF73EF827E001A8FFF7D0
:1050F00029F829208DF80800684890F83B10D0F86E
:105100003B00401C654AC2F83B00C8B28DF809005C
:105110000520FEF7E2FAADF80600092101A8FEF726
:10512000C9FA8DF80C00092101A8FEF7B4FF054665
:10513000092101A8FFF717F800E000BF00BF2846CB
:1051400007B030BD3EB500246846FEF7FBFF1720D0
:105150008DF80400514890F83B10D0F83B00401CFB
:105160004E4AC2F83B00C8B28DF805000520FEF794
:10517000B4FAADF8020009216846FEF79BFA8DF8F3
:10518000080009216846FEF786FF044609216846A3
:10519000FEF7E9FF3EBD3EB500246846FEF7D2FFAC
:1051A00021208DF804003D4890F83B10D0F83B00DA
:1051B000401C3A4AC2F83B00C8B28DF805000020F6
:1051C0008DF808000620FEF788FAADF802000A21E3
:1051D0006846FEF76FFA8DF809000A216846FEF767
:1051E0005AFF04460A216846FEF7BDFF3EBD70B572
:1051F0000446254614B94FF0FF3070BD412205F139
:105200000801294802F06BF80F21244890F8B120DA
:10521000B2308154B23890F8B100401C1F4981F877
:10522000B100052008700020E7E72DE9F04192B0B9
:1052300005460026002003900290002480460027A7
:105240001DB9401E12B0BDE8F081FFF7C3FB03AAF1
:105250001249491C1248FFF7B0FA0646002E77D1D2
:105260000E4C641C20790F2851D00ADC0E2869D21C
:10527000DFE800F0682168256868453A6868466894
:10528000473E18284ED011DC112846D0142845D0AE
:10529000162857D136E00000EA0100204906002018
:1052A0009D070020AD0700205C070020222840D089
:1052B0002A2847D127E02046FFF7AFFB47E002A8A6
:1052C000009007F10900BDF80C301A1A7C48C1198A
:1052D00004AB4046FFF7C2F828B9E37904A9204699
:1052E000029AFFF786F932E02046FFF742FB2EE0F4
:1052F0002046FFF73EFB2046FFF743FC27E000BFB8
:1053000000BF00BF00BF2046FFF71FFB1FE0204685
:10531000FFF72FFBFFF727FC19E018E02046FFF707
:1053200014FB14E02046FFF710FB2046FFF7EBFBD1
:105330000DE02046FFF709FB2046FFF758FF06E087
:1053400006E0FFE702212046FFF7B9FB00BF0BE0B4
:1053500016F1020F08D15A4C083C01212046FFF7F4
:10536000AEFB6FF001006DE755480938007806285C
:1053700053D2DFE800F0520313243041002050499B
:10538000093908701B22D031A1F16A00FEF704FD33
:1053900019214B485D3002F019F83FE000204849E0
:1053A00009390870012201F58371A1F18700FEF728
:1053B000F3FC19214248763002F008F82EE0002074
:1053C0003F49093908700846D0F837201C3166304B
:1053D000FEF7E2FC22E000203949093908700C226E
:1053E00001F20711A1F16F00FEF7D6FC1921344834
:1053F0008F3001F0EBFF11E00020314909390870CE
:10540000412201F21311A1F16200FEF7C5FC412116
:105410002B48A83001F0DAFF00E000BF00BF2846AB
:10542000FFF78EF900200DE72DE9F04188B0064620
:105430000F464FF0000801ACB81D85B226B94FF0F9
:10544000FF3008B0BDE8F081FF2004F8010B04F83C
:10545000010B281204F8010B04F8015B052004F885
:10546000010B1748093890F83B10D0F83B00401C5E
:10547000134A093AC2F83B0004F8011B002004F863
:10548000010B04F8010B062004F8010B3A463146E3
:105490000DF10D0001F023FF291D01A8FEF70AF907
:1054A0000146E81C01AA1154291D01A8FEF7F3FDCD
:1054B0008046291D01A8FEF756FE0020C1E7000026
:1054C00052060020014611B94FF0FF307047C868FE
:1054D0004860C86888600020F8E7014611B94FF0BD
:1054E000FF3070470020C86048608860086000BFD7
:1054F000F7E7014611B94FF0FF3070470868FCE745
:1055000000B5024612B94FF0FF3000BD50689168F7
:10551000884201D10020F8E750689168884203D2A0
:1055200090685168401AF0E71046FFF7E2FF5168B3
:105530009368C91A401AE8E730B5044614B94FF029
:10554000FF3030BD2046FFF7D4FF05462046FFF769
:10555000D7FF281AF5E72DE9F04104460F46164615
:10556000002514B9681EBDE8F08117B94FF0FF306F
:10557000F9E76068A168884214D22046FFF7C0FFAF
:10558000B04201D9304602E02046FFF7B9FF054698
:1055900061682A46384601F0A2FE606828446060CF
:1055A0002846E0E72046FFF7A4FF6168E268891A11
:1055B000401AB0420AD9354661682A46384601F099
:1055C0008EFE6068284460602846CCE72046FFF7DE
:1055D00090FF6168E268891A451A61682A46384670
:1055E00001F07DFEE0686060721B79192046FFF7CC
:1055F000B2FF05442846B6E72DE9F04104460F46C0
:105600001546002604B11FB94FF0FF30BDE8F08108
:105610002046FFF791FFA84202D86FF00100F5E79E
:105620006068A16888422AD82046FFF762FFA16817
:10563000E268891A461AB54213D8A0682A46394644
:1056400001F04DFEA0682844A0602046FFF751FFFE
:10565000E1680844A168884201D1E068A06028465A
:10566000D4E7A0683246394601F039FEE068A06010
:10567000AA1BB9192046FFF7BFFF3044C6E7A06850
:105680002A46394601F02BFEA0682844A06028462F
:10569000BCE708B54FF4E060FBF74AF91C208DF831
:1056A000000004208DF8010003208DF80200012085
:1056B0008DF803006846FBF740F908BD0EB50121DF
:1056C0000846FBF7D2FF40F2E730ADF80400472070
:1056D000ADF800000020ADF80600ADF802008DF82E
:1056E000080069464FF08040FCF770FA01218807F6
:1056F000FDF78EF8012211469007FCF7DEFD01212F
:105700008807FCF7BFFD0EBD10B5FFF7D7FFFFF709
:10571000C0FF10BD10B501218807FDF77CF828B146
:1057200001218807FDF788F8FEF78DFC10BD000009
:1057300001B502E00098401E009000980028F9D1C1
:1057400008BD08B501216020FBF782FF03208DF81A
:10575000020018208DF803004FF48040ADF80000DF
:105760006946FE48FBF7B8FC4FF40040ADF8000076
:105770006946FA48FBF7B0FC0120ADF80000694625
:10578000F648FBF7A9FC0220ADF800006946F34893
:10579000FBF7A2FC8020ADF800006946F048FBF75B
:1057A0009BFC4FF48070ADF800006946EC48FBF7B5
:1057B00093FC4FF40070ADF800006946E848FBF731
:1057C0008BFC4FF48060ADF800006946E448FBF7BD
:1057D00083FC4FF40060ADF800006946E048FBF739
:1057E0007BFC4FF48050ADF800006946DC48FBF7C5
:1057F00073FC4FF40050ADF800006946D848FBF741
:105800006BFC4FF48040ADF800006946D448FBF7CC
:1058100063FC4FF40040ADF800006946D048FBF748
:105820005BFC4FF48070ADF800006946CB48FBF795
:1058300053FC4FF40070ADF800006946C748FBF711
:105840004BFC4FF48060ADF800006946C348FBF79D
:1058500043FC03208DF8020018208DF8030010206F
:10586000ADF800006946BD48FBF736FC2020ADF8D6
:1058700000006946B948FBF72FFC8020ADF8000016
:105880006946B648FBF728FC4FF40060ADF800000D
:105890006946B248FBF720FC10208DF80300032076
:1058A0008DF802000220ADF800006946AC48FBF715
:1058B00013FC10208DF8030003208DF802004FF434
:1058C0008050ADF800006946A448FBF705FC08BD10
:1058D00000B597B001210802FBF7ADFE0120019051
:1058E0000420039080060790002002900490059009
:1058F00006900890099008200A9010200B90002034
:105900000C900E900F9010904FF48050119000204A
:1059100012901390149001A81590169008A8FBF708
:10592000C1F801210020FBF725FA17B000BD10B522
:10593000CF2001F0A3FE002001F0A4FE812001F0A1
:10594000A1FE302001F09EFEED2001F097FE6420C4
:1059500001F098FE032001F095FE122001F092FE66
:10596000812001F08FFEE82001F088FE852001F003
:1059700089FE102001F086FE782001F083FECB2006
:1059800001F07CFE392001F07DFE2C2001F07AFE32
:10599000002001F077FE342001F074FE022001F0B7
:1059A00071FEF72001F06AFE202001F06BFEEA2074
:1059B00001F064FE002001F065FE002001F062FEAF
:1059C000B12001F05BFE002001F05CFE1B2001F025
:1059D00059FEB62001F052FE0A2001F053FEA2202B
:1059E00001F050FEC02001F049FE352001F04AFED2
:1059F000C12001F043FE112001F044FEC52001F05A
:105A00003DFE452001F03EFE452001F03BFEC72053
:105A100001F034FEA22001F035FEF22001F02EFE4E
:105A2000002001F02FFE262001F028FE012001F0C9
:105A300029FEE02001F022FE0F2001F023FE2620A7
:105A400001F020FE242001F01DFE0B2001F01AFEC3
:105A50000E2001F017FE092001F014FE542001F081
:105A600011FEA82001F00EFE462001F00BFE0C20D6
:105A700001F008FE172001F005FE092001F002FEEA
:105A80000F2001F0FFFD072001F0FCFD002001F0D8
:105A9000F9FDE12001F0F2FD002001F0F3FD1920F5
:105AA00001F0F0FD1B2001F0EDFD042001F0EAFD06
:105AB000102001F0E7FD072001F0E4FD2A2001F0AD
:105AC000E1FD472001F0DEFD392001F0DBFD032080
:105AD00001F0D8FD062001F0D5FD062001F0D2FD31
