:03000000020A39B8
:0C0A3900787FE4F6D8FD758154020A8035
:10102100C4A3C4E2B5E7CAD30061006200630064EF
:0710310000650066003000BD
:081126003098FDC298AF992238
:060FC4008B4C8A4D894EA2
:100FCA00E4FEEEC39D5015121126AB4CAA4DA94E54
:0C0FDA008E82758300EF1209C20E80E6C3
:010FE60022E8
:0E10610000007F017E347DC3DDFEDEFCDFFA81
:01106F00225E
:10000300C2C4121061D2C4D295C294120D7F1210D1
:0E001300057BFF7A1079217D20E4FF02079320
:100CB600120003E51E64417058F51EE51F249E6070
:100CC6001814601D14602214602714602C2405700B
:100CD600307BFF7A10792A802E7BFF7A10792C8060
:100CE600267BFF7A10792E801E7BFF7A1079308062
:100CF600167BFF7A107932800E7BFF7A107934806A
:100D0600067BFF7A1079367D147F03120AC5E4F557
:060D16001F121061809D18
:02114F00C100DD
:10100500E5A2543FF5A2759850758E40E4F58975B3
:0C1015008BE8758DFFD28ED2ACD2AF22DA
:03002300020F29A0
:070F2900C0E0C0D075D00844
:100F3000309813C298E51F6002C200A200E4332477
:0D0F40001EF8A699B200309904C299C201B2
:050F4D00D0D0D0E0321D
:09111D002001FDEFD201F5992239
:100F7A008B4F8A508951AB4FAA50A95112097C60F4
:100F8A00130551E5517002055014F912097CFF123C
:050F9A00111D80E222A0
:10002600C4A3C4E2B5E7CAD3B1F9CFE4BFD5B5F7E7
:10003600D2A3BFD8A1E6001010D0FF9014E4AFA45D
:10004600A4A4AFE4040000040300FF00894B2A1AAD
:100056000E1A2A4B888000101010FF9000F800023C
:10006600041800FF0000000242817F00003F108854
:1000760040300C0B30C0000000F888888888FF8864
:10008600888888F800000000001F080808087F8894
:100096008888889F80F000080889EE980000FE0294
:1000A60002F20202FE0000020100FF008340231854
:1000B60006017E8083E00000020CC0002020E000E4
:1000C600FF70A01008000002027F001008064180A1
:1000D6007F00010608100020908C87EC948414C8D9
:1000E60047444C54C4040040201806FF041800FF7F
:1000F60092929292FF0000100C4424140405060408
:1001060004142444140C00004040414141417F4105
:10011600414141404000004042CC0000FE829292A4
:10012600FE929282FE000000003F10887F001E12A1
:1001360012125E807F0000404042CC00004A32220C
:100146002AF121312D00000080403F408081BDA171
:10015600A1BFA1A1BD8100101010FF9020984828D2
:10016600090E2848A818000242817F0040404242FA
:10017600427E4242424000060909E6F80C040202A9
:10018600020202041E0000000000071F302040404B
:100196004040402010000000000000000000000069
:1001A6000000000000000000000000000000000049
:1001B600F800000000000000333000000000100CC2
:1001C60006100C0600000000000000000040C07889
:1001D60040C0784000043F04043F040400007088D7
:1001E600FC08300000001820FF211E0000F008F077
:1001F60000E018000000211C031E211E0000F0086C
:1002060088700000001E2123241927211010160EC5
:1002160000000000000000000000000000000000D8
:10022600E018040200000000071820400000020445
:1002360018E0000000004020180700000040408041
:10024600F0804040000202010F010202000000009F
:10025600F0000000000101011F0101010000000083
:10026600000000000080B0700000000000000000E8
:100276000000000000000101010101010100000071
:100286000000000000003030000000000000000008
:100296000080601804006018060100000000E010ED
:1002A600080810E000000F102020100F00001010AA
:1002B600F8000000000020203F2020000000700809
:1002C60008088870000030282422213000003008F9
:1002D60088884830000018202020110E000000C039
:1002E6002010F8000000070424243F240000F8082A
:1002F60088880808000019212020110E0000E0104F
:100306008888180000000F112020110E0000380800
:1003160008C83808000000003F0000000000708890
:100326000808887000001C222121221C0000E01011
:10033600080810E0000000312222110F0000000022
:10034600C0C00000000000003030000000000000C7
:1003560080000000000000806000000000000080B7
:100366004020100800000102040810200040404010
:100376004040404000040404040404040000081043
:100386002040800000002010080402010000704890
:10039600080808F0000000003036010000C030C830
:1003A60028E810E0000718272423140B000000C0DB
:1003B60038E0000000203C23020227382008F88895
:1003C6008888700000203F202020110E00C03008D1
:1003D6000808083800071820202010080008F80828
:1003E600080810E000203F202020100F0008F888A1
:1003F60088E8081000203F20202320180008F888ED
:1004060088E8081000203F200003000000C03008E4
:10041600080838000007182020221E020008F808E5
:10042600000008F808203F210101213F20000808AC
:10043600F8080800000020203F20200000000008E7
:1004460008F8080800C08080807F00000008F8884F
:10045600C028180800203F20012638200008F80888
:100466000000000000203F20202020300008F8F87F
:1004760000F8F80800203F003F003F200008F83051
:10048600C00008F808203F200007183F00E01008C9
:10049600080810E0000F10202020100F0008F808B0
:1004A600080808F000203F210101010000E01008C3
:1004B600080810E0000F18242438504F0008F88868
:1004C6008888887000203F2000030C302000708848
:1004D60008080838000038202121221C00180808C6
:1004E600F8080818000000203F2000000008F8085F
:1004F600000008F808001F202020201F0008788828
:100506000000C83808000007380E010000F808008F
:10051600F80008F800033C0700073C0300081868C9
:10052600808068180820302C03032C30200838C837
:1005360000C83808000000203F200000001008080E
:1005460008C838080020382621202018000000009E
:10055600FE020202000000007F40404000000C3016
:10056600C000000000000000010638C000000202C2
:1005760002FE000000004040407F00000000000432
:10058600020202040000000000000000000000005B
:100596000000000000808080808080808000020251
:1005A60004000000000000000000000000000080C1
:1005B60080808000000019242222223F2008F800B3
:1005C6008080000000003F112020110E0000000076
:1005D6008080800000000E11202020110000000005
:1005E600808088F800000E112020103F2000008037
:1005F6008080800000001F222222221300008080BB
:10060600F0888888180020203F2020000000008005
:100616008080808000006B94949493600008F800BA
:100626008080800000203F210000203F200080982D
:1006360098000000000020203F202000000000005D
:10064600809898000000C08080807F000008F80035
:100656000080808000203F24022D30200000080802
:10066600F8000000000020203F202000008080804D
:100676008080808000203F20003F20003F80800057
:100686008080800000203F210000203F2000008065
:100696008080800000001F202020201F0080800016
:1006A600808000000080FFA12020110E00000000C5
:1006B6008080808000000E112020A0FF8080808036
:1006C600008080800020203F212000010000008063
:1006D6008080808000003324242424190000808038
:1006E600E0808000000000001F20200000808000C5
:1006F6000000808000001F202020103F2080808086
:10070600000080808000010E300806010080800015
:1007160080008080800F300C030C300F000080803A
:1007260000808080000020312E0E312000808080E5
:10073600000080808080818E701806010000808015
:1007460080808080000021302C22213000000000B3
:1007560000807C020200000000003F4040000000D4
:1007660000FF00000000000000FF00000000020281
:100776007C800000000040403F00000000000601B1
:0D0786000102020404000000000000000059
:0100210022BC
:100E2F0075F010EBA424A3F582E5F03402F583E509
:0C0E3F00822CF582E43583F583E493FFF8
:100E4B00E4FED290C293120021EF30E704D29280DD
:100E5B0002C292D293120021EF25E0FF0EBE08E2F0
:010E6B002264
:070F5200E4FF120F59AF0488
:100F5900E4FEC290C293120021EF30E704D29280DE
:100F690002C292D293120021EF25E0FF0EBE08E2E1
:010F79002255
:040FE700AF02AD01A7
:100FEB00EF24B0FF120F59ED54F0C4540F4410FF0F
:0A0FFB00120F59ED540FFF020F59B9
:020F9F00AD079C
:100FA100E4FCEC24B0FF120F59E4FF120F597F103B
:100FB100120F59E4FBAF05120E4B0BBB80F70CBCB3
:020FC10008E046
:010FC300220B
:0C10A500AD077F20120F59AF05020F5954
:07112E00EF44B0FF020F596E
:10103800AD07ED54F0C4540F4410FF120F59ED548E
:051048000FFF020F592B
:0C10B100AC077F22120F54AF05020F594C
:0C10BD00AC077F21120F54AF05020F5941
:07113500EF4440FF020F59D7
:0C10C900AD077F81120F59AF05020F59CF
:10104D00AD077F8D120F59ED60047F1480027F1064
:04105D00120F5922F3
:0D107E00EF60047FC880027FC0120F59226E
:0D108B00EF60047FA180027FA0120F5922A8
:0D109800EF60047FA580027FA4120F592293
:07113C00EF44A6FF020F596A
:0C10D500AD077FA8120F59AF05020F599C
:07114300EF44AEFF020F595B
:0C10E100AD077FD3120F59AF05020F5965
:0C10ED00AD077FD5120F59AF05020F5957
:0C10F900AD077FD9120F59AF05020F5947
:0E107000AD077FDA120F59ED4402FF020F594F
:0C110500AD077FDB120F59AF05020F5938
:05114A007FE3020F59D4
:100D7F00D293C291E4FF0FBF64FCD291E4FF121132
:100D8F00437F801210ED7F3F1210D5E4FF1210E168
:100D9F00E4FF1211357F0112104D7F021210A57F53
:100DAF000112108B7F0112107E7F101210707F7F47
:100DBF001210C97FF11210F97F40121105E4FF12D2
:100DCF001098E4FF12113C7F01121143E4FF020F50
:010DDF009F74
:030EFB00240CFDC7
:100EFE00EB24E0FCEDD3947A4003E4FD0F120FEBEC
:100F0E00E4FDEC75F006A4249DF582E43401F5832E
:0A0F1E00E5822D120E410DBD06E81C
:010F280022A6
:0A0E6C008F428D438B448A4589466E
:100E7600E4F547AB44AA45A9468547827583001227
:100E86000995FB6011AD43AF42120EFE7406254371
:060E9600F543054780DD75
:010E9C002233
:0A0AC5008F2A8D2B8B2C8A2D892E91
:100ACF00E52A25E0F52AE4FCAB2CAA2DA92E8C8271
:100ADF00758300120995606124E0FBE52BD39478B0
:100AEF004007E4F52B052A052AAD2BAF2A120FEB91
:100AFF00E4FD75F010EBA424A3F582E5F03401F5C5
:100B0F0083E5822D120E410DBD08E7E52A04FFADE6
:100B1F002B120FEB7D0875F010EBA424A3F582E5E3
:100B2F00F03401F583E5822D120E410DBD10E774EF
:090B3F0008252BF52B0C020AD746
:010B4800228A
:0A0793008F2A8D2B8B2C8A2D892EC6
:10079D00E52A25E0F52AE4F530AB2CAA2DA92E8506
:1007AD00308275830012099570030208B3E4F52FAA
:1007BD00F531753201E52F90002693FFD3947F40DC
:1007CD003AAB2CAA2DA92E8530827583001209957E
:1007DD00FEEF6E7020853082F583A3120995FFE53B
:1007ED002F90002793B5070DE52F75F010A485F018
:1007FD0031F5328006052F052F80BAE52BD3947085
:10080D004007E4F52B052A052AE5326401453160E0
:10081D0058AD2BAF2A120FEBE4F52F743D2532F5B1
:10082D008274003531120E460532E5327002053103
:10083D00052FE52FC3941040E2E52A04FFAD2B12DE
:10084D000FEBE4F52F743D2532F58274003531122E
:10085D000E460532E53270020531052FE52FC394A2
:10086D001040E2053005308034AD2BAF2A120FEB6E
:10087D00E4F52FE4FF120E4B052FE52FC394104026
:10088D00F2E52A04FFAD2B120FEBE4F52FE4FF1276
:10089D000E4B052FE52FC3941040F2053074102533
:0608AD002BF52B0207A64B
:0108B3002222
:0A0BC6008F218D228B238A248925BC
:100BD000E4F529AB23AA24A925852982758300126F
:100BE0000995FF6058D3947F40298F268529827507
:100BF0008300A3120995F527E4F528FB7A007926EE
:100C0000AD22AF2112079374102522F52205290584
:100C10002980C0AB23AA24A92585298275830012C7
:100C20000995F526E4F527FB7A007926AD22AF2158
:0D0C3000120AC574082522F52205298096B8
:010C3D002294
:060B49008F3BAA05A90381
:100B4F00C3E964809480500F7B2D120EFEE9F404EC
:100B5F00754000F5418010AD027B2BAF3B120EFEAE
:100B6F00AF017540008F41AE40AF417C007D6412F4
:100B7F0009E48F82AE40AF417C007D0A1209E47C0C
:100B8F00007D0A1209E48C3C8D3DAE40AF417C00E4
:100B9F007D0A1209E48C3E8D3FEA2406FDAB82AF3D
:100BAF003B120EFEEAAB3DAF3B120EFBEA2412FDE9
:070BBF00AB3FAF3B020EFE4D
:0808B4008F108D118A128B13C5
:1008BC00C3E5126480948050137B2D120EFEC3E4AA
:1008CC009513FFE49512F51C8F1D800F7B2BAD113A
:1008DC00AF10120EFE85121C85131DAE1CAF1D7CB5
:1008EC00277D101209E4AB07AE1CAF1D7C037DE81D
:1008FC001209E47C007D0A1209E48C1A8D1BAE1CD3
:10090C00AF1D7C007D641209E47C007D0A1209E4B1
:10091C008C148D15AE1CAF1D7C007D0A1209E47C75
:10092C00007D0A1209E48C168D17AE1CAF1D7C00DD
:10093C007D0A1209E48C188D19E5112406FDAF10FF
:10094C00120EFEE511AB1BAF10120EFBE5112412BB
:10095C00FDAB15AF10120EFEE5112418FDAB17AF51
:10096C0010120EFEE511241EFDAB19AF10020EFE87
:060D1C008B338A34893597
:100D2200E4F539F53AEDD3943F40027D3FE537D300
:100D3200947F400375377FED131313541FF538ED7D
:100D4200540760020538E4FCECC39538502EAF041A
:100D5200E4FD120FEBEDC39537501EAB33AA34A955
:100D620035853A82853983120995FF120E4B053A71
:0C0D7200E53A700205390D80DC0C80CCE5
:010D7E002252
:100E9D00AC077F2E120F593002047F2780027F2668
:100EAD00120F59120F52AF54120F59AF05120F599D
:0F0EBD00E4FF120F597FFF120F597F2F020F59B9
:100ECC00AC077F2E120F593003047F2A80027F2932
:100EDC00120F59120F52AF4A120F59AF05120F5978
:0F0EEC00E4FF120F59AF4B120F597F2F020F590E
:0C111100AC077FA3120F54AF05020F596A
:040DE000AA07A905B0
:100DE400E9D3947A40030AE4F9EBC3940A50181245
:100DF4000FE7E4FCEB75F006A424FDF582E434016E
:100E0400120E3C0CBC06EDEBD39409401DEB941080
:100E14005018120FE7E4FCEB75F006A42427F582C2
:0A0E2400E43402120E3C0CBC06ED93
:010E2E0022A1
:040C3E00AA07A90553
:100C4200EA25E0FAE9D3947840040A0AE4F9EBC30E
:100C5200940A501D120FE7E4FC120E2F0CBC08F987
:100C6200EA04FFAD01120FEB7C08120E2F0CBC1030
:100C7200F9EBD39409403CEB94105037120FE7E4A0
:100C8200FC75F010EBA42413F582E5F03403120E88
:100C92003C0CBC08ECEA04FFAD01120FEB7C0875BA
:100CA200F010EBA42413F582E5F03403120E3C0C91
:030CB200BC10EC87
:010CB500221C
:100A4500020CB6E493A3F8E493A34003F68001F205
:100A550008DFF48029E493A3F85407240CC8C333B2
:100A6500C4540F4420C8834004F456800146F6DF81
:100A7500E4800B010204081020408090114FE47EB1
:100A8500019360BCA3FF543F30E509541FFEE49376
:100A9500A360010ECF54C025E060A840B8E493A33D
:100AA500FAE493A3F8E493A3C8C582C8CAC583CA68
:100AB500F0A3C8C582C8CAC583CADFE9DEE780BE20
:01115100009D
:10097C00BB010689828A83E0225002E722BBFE0279
:09098C00E32289828A83E49322AC
:10099500BB010CE58229F582E5833AF583E0225017
:1009A50006E92582F8E622BBFE06E92582F8E22261
:0D09B500E58229F582E5833AF583E493227B
:1009C200F8BB010DE58229F582E5833AF583E8F06B
:1009D200225006E92582C8F622BBFE05E92582C817
:0209E200F222FF
:1009E400BC000BBE0029EF8DF084FFADF022E4CCF7
:1009F400F875F008EF2FFFEE33FEEC33FCEE9DECC0
:100A0400984005FCEE9DFE0FD5F0E9E4CEFD22ED05
:100A1400F8F5F0EE8420D21CFEADF075F008EF2F4F
:100A2400FFED33FD4007985006D5F0F222C398FD40
:050A34000FD5F0EA22DD
:00000001FF
