:03000000020A3CB5
:0C0A3C00787FE4F6D8FD75815E020A8325
:1010DE00C4A3C4E2B5C6004C6967687420004F4EC5
:0410EE00004F460069
:05105500015000C10381
:0E113B0000007F027E247DCEDDFEDEFCDFFAAA
:011149002283
:10000300538EBF53890F758BE0758DB1C28FD28E1E
:05001300D2ABD2AF22C8
:08122E007F0C7EA9DEFEDFFC4F
:011236002295
:100EE000C2C412122ED2C4D295C294120D95121001
:100EF000AF1200037BFF7A1079DEE4FDFF1207B525
:0D0F00007BFF7A1079E5E4FD7F01020AC84D
:100F6000E553B4420EF54E85544F7F027853E4F6B4
:100F700008DFFCE554B4420EF54E85534F7F0278EE
:060F800053E4F608DFFC5B
:010F86002248
:100CBE00E4F521120EE0E54E64427041F54EE54F2B
:100CCE00249E601C14602B14602D2403702C7BFF5B
:100CDE007A1079EC7D50E4FF120AC8121119801AAD
:100CEE007BFF7A1079EF7D50E4FF120AC81211765D
:100CFE00800812112A8003121091E4F54FAB21E403
:100D0E00FD7F03120C46E550B4010FE4F5500521AA
:100D1E00E521D394094003E4F521300399C203126F
:040D2E000F60809240
:03001B00020F874A
:060F8700C0E0C0F0C0D084
:100F8D00054DE54D75F00584E5F07002D203E54D94
:080F9D00B49605754D000550E6
:070FA500D0D0D0F0D0E03203
:0A105A00015200015100C101C10064
:1010AF00E5A2543FF5A275985075D7E675D6FF7532
:0A10BF008E14438E01D2ACD2AF2292
:03002300020FD1F8
:070FD100C0E0C0D075D0089C
:100FD80030980DC298A200E4332453F8A699B200C1
:070FE800309904C299C20216
:050FEF00D0D0D0E0327B
:06114A0014F91209A1FFD7
:091150002002FDEFD202F5992204
:101036008B598A5A895BAB59AA5AA95B1209A160D6
:0F1046000D055BE55B7002055A12114A80E82226
:061016008B228A238924CD
:10101C00E4FEEEC39D5012AB220524E524AA2370F6
:09102C0002052312114A0E80E9AD
:011035002298
:10002600B5C6C4A3C4E2B5E7CAD3B1F9CFE4BFD518
:10003600B5F7D2A3BFD8A1E600807000FF20100458
:10004600040404FC0404040400806018070830005B
:100056000040807F00000000001010D0FF9014E4E4
:10006600AFA4A4A4AFE4040000040300FF00894B7E
:100076002A1A0E1A2A4B888000101010FF9000F8DA
:100086000002041800FF0000000242817F00003FCA
:10009600108840300C0B30C0000000F88888888833
:1000A600FF88888888F800000000001F08080808F4
:1000B6007F888888889F80F000080889EE9800006D
:1000C600FE0202F20202FE0000020100FF0083406F
:1000D600231806017E8083E00000020CC000202069
:1000E600E000FF70A01008000002027F0010080662
:1000F60041807F00010608100020908C87EC9484D4
:1001060014C847444C54C4040040201806FF041881
:1001160000FF92929292FF0000100C4424140405F2
:10012600060404142444140C00004040414141419B
:100136007F41414141404000004042CC0000FE82E8
:100146009292FE929282FE000000003F10887F008D
:100156001E1212125E807F0000404042CC00004A10
:1001660032222AF121312D00000080403F4080815B
:10017600BDA1A1BFA1A1BD8100101010FF902098C4
:100186004828090E2848A818000242817F004040EE
:100196004242427E4242424000060909E6F80C0409
:1001A6000202020202041E0000000000071F3020A7
:1001B60040404040402010000000000000000000C9
:1001C6000000000000000000000000000000000029
:1001D6000000F800000000000000333000000000BE
:1001E600100C06100C060000000000000000004085
:1001F600C07840C0784000043F04043F0404000077
:100206007088FC08300000001820FF211E0000F056
:1002160008F000E018000000211C031E211E00004B
:10022600F00888700000001E2123241927211010D1
:10023600160E000000000000000000000000000094
:100246000000E0180402000000000718204000002B
:10025600020418E0000000004020180700000040DB
:100266004080F0804040000202010F0102020000BF
:100276000000F0000000000101011F010101000063
:100286000000000000000080B070000000000000C8
:100296000000000000000000010101010101010051
:1002A60000000000000000003030000000000000E8
:1002B60000000080601804006018060100000000BD
:1002C600E010080810E000000F102020100F0000BA
:1002D6001010F8000000000020203F202000000041
:1002E6007008080888700000302824222130000099
:1002F600300888884830000018202020110E0000A1
:1003060000C02010F8000000070424243F24000049
:10031600F80888880808000019212020110E00001E
:10032600E0108888180000000F112020110E000030
:10033600380808C83808000000003F000000000028
:1003460070880808887000001C222121221C0000E9
:10035600E010080810E0000000312222110F000012
:100366000000C0C0000000000000303000000000A7
:100376000000800000000000008060000000000017
:1003860000804020100800000102040810200040F0
:1003960040404040404000040404040404040000BB
:1003A6000810204080000000201008040201000010
:1003B6007048080808F0000000003036010000C050
:1003C60030C828E810E0000718272423140B000083
:1003D60000C038E0000000203C2302022738200835
:1003E600F8888888700000203F202020110E00C069
:1003F60030080808083800071820202010080008D0
:10040600F808080810E000203F202020100F000800
:10041600F88888E8081000203F20202320180008CC
:10042600F88888E8081000203F200003000000C07C
:100436003008080838000007182020221E0200088D
:10044600F808000008F808203F210101213F20009C
:100456000808F8080800000020203F2020000000BF
:10046600000808F8080800C08080807F00000008A7
:10047600F888C028180800203F20012638200008E8
:10048600F8080000000000203F202020203000084F
:10049600F8F800F8F80800203F003F003F20000869
:1004A600F830C00008F808203F200007183F00E099
:1004B6001008080810E0000F10202020100F000878
:1004C600F808080808F000203F210101010000E0BB
:1004D6001008080810E0000F18242438504F0008B0
:1004E600F8888888887000203F2000030C302000A0
:1004F600708808080838000038202121221C0018BE
:100506000808F8080818000000203F20000000082E
:10051600F808000008F808001F202020201F000807
:1005260078880000C83808000007380E010000F877
:100536000800F80008F800033C0700073C03000821
:100546001868808068180820302C03032C30200897
:1005560038C800C83808000000203F2000000010FE
:10056600080808C83808002038262120201800006E
:100576000000FE020202000000007F404040000032
:100586000C30C000000000000000010638C000006A
:10059600020202FE000000004040407F0000000012
:1005A6000004020202040000000000000000000037
:1005B6000000000000000080808080808080800035
:1005C600020204000000000000000000000000001D
:1005D600008080808000000019242222223F20080B
:1005E600F8008080000000003F112020110E00005E
:1005F60000008080800000000E11202020110000E5
:100606000000808088F800000E112020103F200096
:1006160000808080800000001F222222221300001A
:100626008080F0888888180020203F202000000065
:1006360000808080808000006B9494949360000812
:10064600F8008080800000203F210000203F20002D
:10065600809898000000000020203F202000000025
:100666000000809898000000C08080807F0000080D
:10067600F8000080808000203F24022D30200000FA
:100686000808F8000000000020203F20200000801D
:1006960080808080808000203F20003F20003F80B7
:1006A60080008080800000203F210000203F200045
:1006B60000808080800000001F202020201F0080F6
:1006C6008000808000000080FFA12020110E000025
:1006D60000008080808000000E112020A0FF808016
:1006E6008080008080800020203F212000010000C3
:1006F6000080808080800000332424242419000098
:100706008080E0808000000000001F202000008024
:1007160080000000808000001F202020103F2080E5
:100726008080000080808000010E30080601008075
:10073600800080008080800F300C030C300F00009A
:10074600808000808080000020312E0E31200080C5
:100756008080000080808080818E701806010000F5
:10076600808080808080000021302C222130000093
:10077600000000807C020200000000003F404000B4
:10078600000000FF00000000000000FF0000000065
:1007960002027C800000000040403F000000000094
:0F07A60006010102020404000000000000000030
:0100180022C5
:100E450075F010EBA424C5F582E5F03402F583E5D1
:0C0E5500822CF582E43583F583E493FFE2
:100E6100E4FED290C293120018EF30E704D29280D0
:100E710002C292D293120018EF25E0FF0EBE08E2E3
:010E8100224E
:070F3800E4FF120F3FAF04BC
:100F3F00E4FEC290C293120018EF30E704D2928001
:100F4F0002C292D293120018EF25E0FF0EBE08E204
:010F5F00226F
:04107300AF02AD011A
:10107700EF24B0FF120F3FED54F0C4540F4410FF9C
:0A108700120F3FED540FFF020F3F60
:020FAC00AD078F
:100FAE00E4FCEC24B0FF120F3FE4FF120F3F7F1062
:100FBE00120F3FE4FBAF05120E610BBB80F70CBCAA
:020FCE0008E039
:010FD00022FE
:0C11AB00AD077F20120F3FAF05020F3F81
:07123F00EF44B0FF020F3F76
:1010C900AD07ED54F0C4540F4410FF120F3FED5417
:0510D9000FFF020F3FB4
:0C11B700AC077F22120F3AAF05020F3F79
:0C11C300AC077F21120F3AAF05020F3F6E
:07124600EF4440FF020F3FDF
:0C11CF00AD077F81120F3FAF05020F3FFC
:1010F200AD077F8D120F3FED60047F1480027F10D9
:04110200120F3F2267
:0D118400EF60047FC880027FC0120F3F2281
:0D119100EF60047FA180027FA0120F3F22BB
:0D119E00EF60047FA580027FA4120F3F22A6
:07124D00EF44A6FF020F3F72
:0C11DB00AD077FA8120F3FAF05020F3FC9
:07125400EF44AEFF020F3F63
:0C11E700AD077FD3120F3FAF05020F3F92
:0C11F300AD077FD5120F3FAF05020F3F84
:0C11FF00AD077FD9120F3FAF05020F3F74
:0E116800AD077FDA120F3FED4402FF020F3F8A
:0C120B00AD077FDB120F3FAF05020F3F65
:05001E007FE3020F3F2B
:100D9500D293C291E4FF0FBF64FCD291E4FF12121B
:100DA500547F801211F37F3F1211DBE4FF1211E72C
:100DB500E4FF1212467F011210F27F021211AB7F7F
:100DC500011211917F011211847F101211687F7F2A
:100DD5001211CF7FF11211FF7F4012120BE4FF12A7
:100DE500119EE4FF12124D7F01121254E4FF020F0F
:010DF500AC51
:100F0D00EB24E0FCEDD3947A4003E4FD0F1210774F
:100F1D00E4FDEC75F006A424BFF582E43401F583FD
:0A0F2D00E5822D120E570DBD10E8ED
:010F37002297
:0A0AC8008F228D238B248A258926B6
:100AD200E52225E0F522E4FCAB24AA25A9268C8296
:100AE2007583001209BA606124E0FBE523D3947890
:100AF2004007E4F52305220522AD23AF2212107729
:100B0200E4FD75F010EBA424C5F582E5F03401F59F
:100B120083E5822D120E570DBD08E7E52204FFADD5
:100B2200231210777D0875F010EBA424C5F582E539
:100B3200F03401F583E5822D120E570DBD10E774D6
:090B4200082523F5230C020ADA50
:010B4B002287
:0A07B5008F228D238B248A258926CC
:1007BF00E52225E0F522E4F528AB24AA25A9268514
:1007CF0028827583001209BA70030208D5E4F52751
:1007DF00F529752A01E52790002693FFD3947F40D2
:1007EF003AAB24AA25A9268528827583001209BA57
:1007FF00FEEF6E7020852882F583A31209BAFFE5FC
:10080F002790002793B5070DE52775F010A485F005
:10081F0029F52A80060527052780BAE523D394708A
:10082F004007E4F52305220522E52A6401452960E6
:10083F0058AD23AF22121077E4F527743F252AF520
:10084F008274003529120E5C052AE52A70020529EB
:10085F000527E527C3941040E2E52204FFAD2312DC
:10086F001077E4F527743F252AF582740035291295
:10087F000E5C052AE52A700205290527E527C39492
:10088F001040E2052805288034AD23AF22121077DF
:10089F00E4F527E4FF120E610527E527C394104006
:1008AF00F2E52204FFAD23121077E4F527E4FF12DF
:1008BF000E610527E527C3941040F2052874102513
:0608CF0023F5230207C817
:0108D5002200
:0A0BCE008F2B8D2C8B2D8A2E892F82
:100BD800E4F533AB2DAA2EA92F8533827583001235
:100BE80009BAFF6058D3947F40298F3085338275C6
:100BF8008300A31209BAF531E4F532FB7A007930A3
:100C0800AD2CAF2B1207B57410252CF52C05330528
:100C18003380C0AB2DAA2EA92F853382758300128D
:100C280009BAF530E4F531FB7A007930AD2CAF2BF9
:0D0C3800120AC87408252CF52C053380968F
:010C4500228C
:060B4C008F348D358B365D
:100B5200C3E5366480948050107B2D120000E53688
:100B6200F404753B00F53C800F7B2BAD35AF34129E
:100B72000000753B0085363CAE3BAF3C7C007D649B
:100B82001209E7AB07AE3BAF3C7C007D0A1209E7D6
:100B92007C007D0A1209E78C378D38AE3BAF3C7C76
:100BA200007D0A1209E78C398D3AE5352406FDAF3E
:100BB20034120000E535240CFDAB38AF34120000CE
:0C0BC200E5352412FDAB3AAF3402000010
:0808D6008F108D118A128B13A3
:1008DE00C3E5126480948050137B2D120000C3E494
:1008EE009513FFE49512F51C8F1D800F7B2BAD1118
:1008FE00AF1012000085121C85131DAE1CAF1D7C9F
:10090E00277D101209E7AB07AE1CAF1D7C037DE8F7
:10091E001209E77C007D0A1209E78C1A8D1BAE1CAA
:10092E00AF1D7C007D641209E77C007D0A1209E789
:10093E008C148D15AE1CAF1D7C007D0A1209E77C50
:10094E00007D0A1209E78C168D17AE1CAF1D7C00B8
:10095E007D0A1209E78C188D19E5112406FDAF10DA
:10096E00120000E511240CFDAB1BAF10120000E5C8
:10097E00112412FDAB15AF10120000E5112418FD65
:10098E00AB17AF10120000E511241EFDAB19AF100E
:03099E0002000054
:060D32008B3D8A3E893F63
:100D3800E4F543F544EDD3943F40027D3FE541D3CC
:100D4800947F400375417FED131313541FF542ED53
:100D5800540760020542E4FCECC39542502EAF04F0
:100D6800E4FD121077EDC39541501EAB3DAA3EA994
:100D78003F8544828543831209BAFF120E610544F8
:0C0D8800E544700205430D80DC0C80CCBB
:010D9400223C
:100E8200AC077F2E120F3F3004047F2780027F269B
:100E9200120F3F120F38AF5E120F3FAF05120F3F16
:0F0EA200E4FF120F3F7FFF120F3F7F2F020F3F22
:100EB100AC077F2E120F3F3005047F2A80027F2965
:100EC100120F3F120F38AF57120F3FAF05120F3FEE
:0F0ED100E4FF120F3FAF58120F3F7F2F020F3F6A
:0C121700AC077FA3120F3AAF05020F3F97
:040DF600AA07A9059A
:100DFA00E9D3947A40030AE4F9EBC3940A5018122F
:100E0A001073E4FCEB75F006A4241FF582E43402A7
:100E1A00120E520CBC06EDEBD39409401DEB941054
:100E2A005018121073E4FCEB75F006A42449F582FD
:0A0E3A00E43402120E520CBC06ED67
:010E4400228B
:040C4600AA07A9054B
:100C4A00EA25E0FAE9D3947840040A0AE4F9EBC306
:100C5A00940A501D121073E4FC120E450CBC08F9DC
:100C6A00EA04FFAD011210777C08120E450CBC1085
:100C7A00F9EBD39409403CEB94105037121073E40B
:100C8A00FC75F010EBA42435F582E5F03403120E5E
:100C9A00520CBC08ECEA04FFAD011210777C08750F
:100CAA00F010EBA42435F582E5F03403120E520C51
:030CBA00BC10EC7F
:010CBD002214
:08123700FEFDFBF7EFDFBF7FB6
:0E1064000145FFC10607463A3A5342FF00AA73
:0E11590000007F037E487DA1DDFEDEFCDFFA94
:011167002265
:10110600E4FFAE45FDEE20E0010FEEC313FE0DBD7C
:0211160008F3DC
:0111180022B4
:100FF40012113BA206E433F54A1211068F4BAB4B98
:101004007D2D7F01120C467B007A0079467D070214
:021014001016B4
:0B122300121159C2C412122ED2C422B4
:0E11760075A0FF7545FFC206120FF40212238A
:1011190020060875A0FE7545FED206120FF40212CC
:0111290023A2
:10112A00300608E54525E0F545F5A0120FF4021250
:01113A002391
:10109100300615E5457005754580800CE545C3139F
:0E10A100F5454345808545A0120FF402122349
:100A4800020CBEE493A3F8E493A34003F68001F2FA
:100A580008DFF48029E493A3F85407240CC8C333AF
:100A6800C4540F4420C8834004F456800146F6DF7E
:100A7800E4800B0102040810204080901055E47EA9
:100A8800019360BCA3FF543F30E509541FFEE49373
:100A9800A360010ECF54C025E060A840B8E493A33A
:100AA800FAE493A3F8E493A3C8C582C8CAC583CA65
:100AB800F0A3C8C582C8CAC583CADFE9DEE780BE1D
:01107200007D
:1009A100BB010689828A83E0225002E722BBFE0254
:0909B100E32289828A83E4932287
:1009BA00BB010CE58229F582E5833AF583E02250F2
:1009CA0006E92582F8E622BBFE06E92582F8E2223C
:0D09DA00E58229F582E5833AF583E4932256
:1009E700BC000BBE0029EF8DF084FFADF022E4CCF4
:1009F700F875F008EF2FFFEE33FEEC33FCEE9DECBD
:100A0700984005FCEE9DFE0FD5F0E9E4CEFD22ED02
:100A1700F8F5F0EE8420D21CFEADF075F008EF2F4C
:100A2700FFED33FD4007985006D5F0F222C398FD3D
:050A37000FD5F0EA22DA
:00000001FF
