:03000000020AD41D
:0C0AD400787FE4F6D8FD758160020B1BF2
:10000300C4A3C4E2B5C600C1C1B5C6B8F6CA003AB6
:07001300004F4E004F4600B4
:0A100700015200C103C104014F01B2
:0E119A0000007F027E247DCEDDFEDEFCDFFA4B
:0111A8002224
:10112900538EBF53890F758BE0758DB1C28FD28EE7
:05113900D2ABD2AF2291
:081280007F0C7EA9DEFEDFFCFD
:011288002243
:100EA600C2C4121280D2C4D295C294120DB91211C4
:100EB6000F1211297BFF7A007903E4FDFF120792D6
:100EC6007BFF7A00790AE4FD7F011207927BFF7AA5
:0A0ED6000079127D417F01020B60DC
:100FBB00E555B4420EF5508556517F027855E4F64F
:100FCB0008DFFCE556B4420EF5508555517F02788B
:060FDB0055E4F608DFFCFE
:010FE10022ED
:10097E00E4F521120EA6E5506442706CF550E55177
:10098E00249FB40700505E9009A375F003A4C5839D
:10099E0025F0C583730209B80209CA0209DC0209EF
:1009AE00E10209E60209EA0209EE7BFF7A007914F8
:1009BE007D50E4FF120B6012117A80297BFF7A00C2
:1009CE0079177D50E4FF120B60121274801712100B
:1009DE00F2801212118A800D7F0380067F02800240
:1009EE007F01121093E4F551AB21E4FD7F03120C4D
:1009FE00DEE552B40112E4F5520521121071E52123
:100A0E00D394094003E4F521300305C203120FBB52
:100A1E00E54FC394055003020984200403020984A0
:0B0A2E0012129BE4F54FC20402098481
:03001B00020F6968
:040F6900C0E0C0D054
:100F6D00054E300409E54FC394055002054FE54E7B
:100F7D0054037002D203E54EB46406754E007552EB
:010F8D000162
:050F8E00D0D0D0E032DC
:0A101100015400015300C101C100A9
:10110F00E5A2543FF5A275985075D7E675D6FF75D1
:0A111F008E14438E01D2ACD2AF2231
:0300230002102B9D
:07102B00C0E0C0D075D00841
:1010320030980DC298A200E4332455F8A699B20064
:07104200309904C299C202BB
:05104900D0D0D0E03220
:0611A90014F9120A39FFDF
:0911AF002002FDEFD202F59922A5
:1010B5008B5B8A5C895DAB5BAA5CA95D120A3960B2
:0F10C5000D055DE55D7002055C1211A980E82242
:081289007F017EECDEFEDFFCBC
:01129100223A
:06104E008B228A23892495
:10105400E4FCECC39D5015AB220524E524AA2370BF
:0C1064000205231211A91212890C80E66B
:01107000225D
:10002600C1C1B5C8BCB6B5C6C4A3C4E2B5E7CAD398
:10003600B8F6A1E6CA000004047454545556545444
:10004600547404040000848341211D05050505053B
:100056007D818185E30008042322262A22FA2423AF
:1000660022262A0202000109090919690909498992
:100076007D09090901002030AC6330000202FE024E
:1000860002625AC60000226722121240308F804355
:100096002C102C438000807000FF20100404040400
:1000A600FC04040404008060180708300000408047
:1000B6007F00000000001010D0FF9014E4AFA4A44D
:1000C600A4AFE4040000040300FF00894B2A1A0EC3
:1000D6001A2A4B888000101010FF9000F8000204C6
:1000E6001800FF0000000242817F00003F10884098
:1000F600300C0B30C0000000F888888888FF88889C
:100106008888F800000000001F080808087F888813
:1001160088889F80F000080889EE980000FE020299
:10012600F20202FE0000020100FF008340231806CF
:10013600017E8083E00080804020100804C304080C
:1001460010204080800000000000000000FF00003A
:10015600000000000000060909E6F80C040202028D
:100166000202041E0000000000071F30204040402D
:1001760040402010000090523410FF10345280701E
:100186008F0808F80800829A566322528E00804033
:10019600330C334080000000000000000000000027
:1001A600000000000000000000000000000000F851
:1001B60000000000000000333000000000100C06B4
:1001C600100C0600000000000000000040C078404F
:1001D600C0784000043F04043F040400007088FC1B
:1001E60008300000001820FF211E0000F008F00073
:1001F600E018000000211C031E211E0000F00888E4
:10020600700000001E2123241927211010160E004D
:10021600000000000000000000000000000000E0F8
:10022600180402000000000718204000000204180D
:10023600E00000000040201807000000404080F069
:10024600804040000202010F01020200000000F09F
:10025600000000000101011F010101000000000073
:100266000000000080B070000000000000000000E8
:100276000000000000010101010101010000000071
:100286000000000000303000000000000000000008
:1002960080601804006018060100000000E01008E5
:1002A6000810E000000F102020100F00001010F8BA
:1002B600000000000020203F2020000000700808F9
:1002C6000888700000302824222130000030088879
:1002D600884830000018202020110E000000C020A1
:1002E60010F8000000070424243F240000F80888C2
:1002F600880808000019212020110E0000E010884F
:1003060088180000000F112020110E000038080880
:10031600C83808000000003F000000000070880890
:1003260008887000001C222121221C0000E0100811
:100336000810E0000000312222110F00000000C06A
:10034600C000000000000030300000000000008007
:1003560000000000000080600000000000008040F7
:100366002010080000010204081020004040404010
:100376004040400004040404040404000008102063
:1003860040800000002010080402010000704808A8
:100396000808F0000000003036010000C030C82810
:1003A600E810E0000718272423140B000000C038CB
:1003B600E0000000203C23020227382008F8888845
:1003C60088700000203F202020110E00C030080851
:1003D60008083800071820202010080008F8080828
:1003E6000810E000203F202020100F0008F8888821
:1003F600E8081000203F20202320180008F88888ED
:10040600E8081000203F200003000000C030080864
:100416000838000007182020221E020008F80800ED
:100426000008F808203F210101213F20000808F8B4
:10043600080800000020203F2020000000000808D7
:10044600F8080800C08080807F00000008F888C097
:1004560028180800203F20012638200008F8080048
:1004660000000000203F20202020300008F8F8007F
:10047600F8F80800203F003F003F200008F830C091
:100486000008F808203F200007183F00E010080881
:100496000810E0000F10202020100F0008F80808B0
:1004A6000808F000203F210101010000E0100808C3
:1004B6000810E0000F18242438504F0008F88888E8
:1004C60088887000203F2000030C302000708808C8
:1004D600080838000038202121221C00180808F8D6
:1004E600080818000000203F2000000008F8080057
:1004F6000008F808001F202020201F000878880028
:1005060000C83808000007380E010000F80800F897
:100516000008F800033C0700073C03000818688041
:100526008068180820302C03032C30200838C800B7
:10053600C83808000000203F200000001008080806
:10054600C83808002038262120201800000000FEA8
:10055600020202000000007F40404000000C30C054
:1005660000000000000000010638C0000002020280
:10057600FE000000004040407F0000000000040232
:10058600020204000000000000000000000000005D
:10059600000000008080808080808080000202044D
:1005A6000000000000000000000000000000808045
:1005B600808000000019242222223F2008F80080B3
:1005C60080000000003F112020110E000000008076
:1005D60080800000000E1120202011000000008005
:1005E6008088F800000E112020103F200000808037
:1005F60080800000001F222222221300008080F04B
:10060600888888180020203F202000000000808075
:1006160080808000006B94949493600008F80080BA
:1006260080800000203F210000203F200080989815
:10063600000000000020203F202000000000008075
:100646009898000000C08080807F000008F80000B5
:1006560080808000203F24022D302000000808F80A
:10066600000000000020203F2020000080808080C5
:1006760080808000203F20003F20003F8080008057
:1006860080800000203F210000203F200000808065
:1006960080800000001F202020201F008080008016
:1006A6008000000080FFA12020110E0000000080C5
:1006B60080808000000E112020A0FF8080808000B6
:1006C6008080800020203F212000010000008080E3
:1006D600808080000033242424241900008080E0D8
:1006E600808000000000001F2020000080800000A5
:1006F60000808000001F202020103F208080800086
:100706000080808000010E30080601008080008095
:10071600008080800F300C030C300F0000808000BA
:10072600808080000020312E0E31200080808000E5
:100736000080808080818E70180601000080808095
:10074600808080000021302C222130000000000033
:10075600807C020200000000003F404000000000D4
:10076600FF00000000000000FF0000000002027C05
:10077600800000000040403F00000000000601012C
:0C0786000202040400000000000000005B
:01001A0022C3
:100E690075F010EBA424A2F582E5F03402F583E5D0
:0C0E7900822CF582E43583F583E493FFBE
:100E8500E4FED290C29312001AEF30E704D29280AA
:100E950002C292D29312001AEF25E0FF0EBE08E2BD
:010EA500222A
:070F9300E4FF120F9AAF0406
:100F9A00E4FEC290C29312001AEF30E704D29280A4
:100FAA0002C292D29312001AEF25E0FF0EBE08E2A7
:010FBA002214
:0410D400AF02AD01B9
:1010D800EF24B0FF120F9AED54F0C4540F4410FFE0
:0A10E800120F9AED540FFF020F9A49
:020FE200AD0759
:100FE400E4FCEC24B0FF120F9AE4FF120F9A7F1076
:100FF400120F9AE4FBAF05120E850BBB80F70CBCF5
:0210040008E002
:0110060022C7
:0C11FC00AD077F20120F9AAF05020F9A7A
:0712AB00EF44B0FF020F9AAF
:10113E00AD07ED54F0C4540F4410FF120F9AED5446
:05114E000FFF020F9AE3
:0C120800AC077F22120F95AF05020F9A71
:0C121400AC077F21120F95AF05020F9A66
:0712B200EF4440FF020F9A18
:0C122000AD077F81120F9AAF05020F9AF4
:10115300AD077F8D120F9AED60047F1480027F101C
:04116300120F9A22AB
:0D11D500EF60047FC880027FC0120F9A22D5
:0D11E200EF60047FA180027FA0120F9A220F
:0D11EF00EF60047FA580027FA4120F9A22FA
:0712B900EF44A6FF020F9AAB
:0C122C00AD077FA8120F9AAF05020F9AC1
:0712C000EF44AEFF020F9A9C
:0C123800AD077FD3120F9AAF05020F9A8A
:0C124400AD077FD5120F9AAF05020F9A7C
:0C125000AD077FD9120F9AAF05020F9A6C
:0E11C700AD077FDA120F9AED4402FF020F9A75
:0C125C00AD077FDB120F9AAF05020F9A5E
:05001E007FE3020F9AD0
:100DB900D293C291E4FF0FBF64FCD291E4FF1212F7
:100DC900C07F801212447F3F12122CE4FF121238A6
:100DD900E4FF1212B27F011211537F021211FC7F3C
:100DE900011211E27F011211D57F101211C77F7F05
:100DF9001212207FF11212507F4012125CE4FF128E
:100E090011EFE4FF1212B97F011212C0E4FF020FC1
:010E1900E2F6
:100F3E00EB24E0FCEDD3947A4003E4FD0F1210D8BD
:100F4E00E4FDEC75F006A4249CF582E43401F583EF
:0A0F5E00E5822D120E7B0DBD10E898
:010F68002266
:0A0B60008F228D238B248A2589261D
:100B6A00E52225E0F522E4FCAB24AA25A9268C82FD
:100B7A00758300120A52606124E0FBE523D394785E
:100B8A004007E4F52305220522AD23AF221210D82F
:100B9A00E4FD75F010EBA424A2F582E5F03401F52A
:100BAA0083E5822D120E7B0DBD08E7E52204FFAD19
:100BBA00231210D87D0875F010EBA424A2F582E563
:100BCA00F03401F583E5822D120E7B0DBD10E7741A
:090BDA00082523F5230C020B721F
:010BE30022EF
:0A0792008F228D238B248A258926EF
:10079C00E52225E0F522E4F528AB24AA25A9268537
:1007AC002882758300120A5270030208B2E4F527FE
:1007BC00F529752A01E52790002693FFD3947F40F5
:1007CC003AAB24AA25A926852882758300120A52E1
:1007DC00FEEF6E7020852882F583A3120A52FFE586
:1007EC002790002793B5070DE52775F010A485F029
:1007FC0029F52A80060527052780BAE523D39470AE
:10080C004007E4F52305220522E52A640145296009
:10081C0058AD23AF221210D8E4F527743C252AF5E5
:10082C008274003529120E80052AE52A70020529EA
:10083C000527E527C3941040E2E52204FFAD2312FF
:10084C0010D8E4F527743C252AF58274003529125A
:10085C000E80052AE52A700205290527E527C39491
:10086C001040E2052805288034AD23AF221210D8A1
:10087C00E4F527E4FF120E850527E527C394104005
:10088C00F2E52204FFAD231210D8E4F527E4FF12A1
:10089C000E850527E527C3941040F2052874102512
:0608AC0023F5230207A55D
:0108B2002223
:0A0C66008F2B8D2C8B2D8A2E892FE9
:100C7000E4F533AB2DAA2EA92F853382758300129C
:100C80000A52FF6058D3947F40298F308533827594
:100C90008300A3120A52F531E4F532FB7A00793071
:100CA000AD2CAF2B1207927410252CF52C053305B3
:100CB0003380C0AB2DAA2EA92F85338275830012F5
:100CC0000A52F530E4F531FB7A007930AD2CAF2BC8
:0D0CD000120B607408252CF52C053380965E
:010CDD0022F4
:060BE4008F348D358B36C5
:100BEA00C3E5366480948050107B2D120000E536F0
:100BFA00F404753B00F53C800F7B2BAD35AF341206
:100C0A000000753B0085363CAE3BAF3C7C007D6402
:100C1A00120A7FAB07AE3BAF3C7C007D0A120A7F0B
:100C2A007C007D0A120A7F8C378D38AE3BAF3C7C44
:100C3A00007D0A120A7F8C398D3AE5352406FDAF0C
:100C4A0034120000E535240CFDAB38AF3412000035
:0C0C5A00E5352412FDAB3AAF3402000077
:0808B3008F108D118A128B13C6
:1008BB00C3E5126480948050137B2D120000C3E4B7
:1008CB009513FFE49512F51C8F1D800F7B2BAD113B
:1008DB00AF1012000085121C85131DAE1CAF1D7CC2
:1008EB00277D10120A7FAB07AE1CAF1D7C037DE882
:1008FB00120A7F7C007D0A120A7F8C1A8D1BAE1C9C
:10090B00AF1D7C007D64120A7F7C007D0A120A7F7A
:10091B008C148D15AE1CAF1D7C007D0A120A7F7CDA
:10092B00007D0A120A7F8C168D17AE1CAF1D7C0042
:10093B007D0A120A7F8C188D19E5112406FDAF1064
:10094B00120000E511240CFDAB1BAF10120000E5EB
:10095B00112412FDAB15AF10120000E5112418FD88
:10096B00AB17AF10120000E511241EFDAB19AF1031
:03097B0002000077
:060D56008B468A47894824
:100D5C00E4F54CF54DEDD3943F40027D3FE54AD38D
:100D6C00947F4003754A7FED131313541FF54BED1D
:100D7C0054076002054BE4FCECC3954B502EAF04BA
:100D8C00E4FD1210D8EDC3954A501EAB46AA47A9F4
:100D9C0048854D82854C83120A52FF120E85054DF3
:0C0DAC00E54D7002054C0D80DC0C80CC85
:010DB8002218
:100EE000AC077F2E120F9A3005047F2780027F26E1
:100EF000120F9A120F93AF60120F9AAF05120F9A4A
:0F0F0000E4FF120F9A7FFF120F9A7F2F020F9AB2
:100F0F00AC077F2E120F9A3006047F2A80027F29AA
:100F1F00120F9A120F93AF59120F9AAF05120F9A21
:0F0F2F00E4FF120F9AAF5A120F9A7F2F020F9AF8
:0C126800AC077FA3120F95AF05020F9A90
:040E1A00AA07A90575
:100E1E00E9D3947A40030AE4F9EBC3940A5018120A
:100E2E0010D4E4FCEB75F006A424FCF582E4340146
:100E3E00120E760CBC06EDEBD39409401DEB94100C
:100E4E0050181210D4E4FCEB75F006A42426F5829B
:0A0E5E00E43402120E760CBC06ED1F
:010E68002267
:040CDE00AA07A905B3
:100CE200EA25E0FAE9D3947840040A0AE4F9EBC36E
:100CF200940A501D1210D4E4FC120E690CBC08F9BF
:100D0200EA04FFAD011210D87C08120E690CBC1067
:100D1200F9EBD39409403CEB941050371210D4E411
:100D2200FC75F010EBA42412F582E5F03403120EE8
:100D3200760CBC08ECEA04FFAD011210D87C0875F1
:100D4200F010EBA42412F582E5F03403120E760CB7
:030D5200BC10ECE6
:010D5500227B
:0812A300FEFDFBF7EFDFBF7F4A
:0F101B00013E00013D00073F3A3A53420000AA50
:0E11B80000007F037E4B7DA1DDFEDEFCDFFA32
:0111C6002206
:081292007F757EB8DEFEDFFC73
:01129A002231
:10116700E4FFAE3EFDEE20E0010FEEC313FE0DBD22
:0211770008F37B
:011179002253
:08129B00C2C4121292D2C42257
:10107100853D431211678F44AB447D497F01120CBA
:10108100DE7B007A00793F7D0712104EE4F54FD2E6
:02109100042237
:0C12740075A0FF753EFFE4F53D0210710F
:10117A00E53D700975A0FE753EFE753DFF021071D2
:10118A00E53D600BE53E25E0F53EF5A01210712223
:1010F200E53D6018E53E7005753E80800CE53EC317
:0D11020013F53E433E80853EA01210712281
:10109300E53D601DEF14601014600814700DE4F555
:1010A3003E8008753EF08003753EFE853EA012101B
:0210B3007122A8
:100AE00002097EE493A3F8E493A34003F68001F2A5
:100AF00008DFF48029E493A3F85407240CC8C33317
:100B0000C4540F4420C8834004F456800146F6DFE5
:100B1000E4800B0102040810204080901007E47E5E
:100B2000019360BCA3FF543F30E509541FFEE493DA
:100B3000A360010ECF54C025E060A840B8E493A3A1
:100B4000FAE493A3F8E493A3C8C582C8CAC583CACC
:100B5000F0A3C8C582C8CAC583CADFE9DEE780BE84
:01102A0000C5
:100A3900BB010689828A83E0225002E722BBFE02BB
:090A4900E32289828A83E49322EE
:100A5200BB010CE58229F582E5833AF583E0225059
:100A620006E92582F8E622BBFE06E92582F8E222A3
:0D0A7200E58229F582E5833AF583E49322BD
:100A7F00BC000BBE0029EF8DF084FFADF022E4CC5B
:100A8F00F875F008EF2FFFEE33FEEC33FCEE9DEC24
:100A9F00984005FCEE9DFE0FD5F0E9E4CEFD22ED6A
:100AAF00F8F5F0EE8420D21CFEADF075F008EF2FB4
:100ABF00FFED33FD4007985006D5F0F222C398FDA5
:050ACF000FD5F0EA2242
:00000001FF
